{
  "_format": "hh-sol-artifact-1",
  "contractName": "PredictionGame",
  "sourceName": "contracts/Game.sol",
  "abi": [
    {
      "inputs": [],
      "stateMutability": "nonpayable",
      "type": "constructor"
    },
    {
      "inputs": [],
      "name": "AlreadyPredicted",
      "type": "error"
    },
    {
      "inputs": [],
      "name": "CoreTransferFailed",
      "type": "error"
    },
    {
      "inputs": [],
      "name": "DeadlineNotReached",
      "type": "error"
    },
    {
      "inputs": [],
      "name": "InvalidAnswer",
      "type": "error"
    },
    {
      "inputs": [],
      "name": "InvalidCorrectAnswer",
      "type": "error"
    },
    {
      "inputs": [],
      "name": "InvalidQuestionID",
      "type": "error"
    },
    {
      "inputs": [],
      "name": "InvalidStakeAmount",
      "type": "error"
    },
    {
      "inputs": [],
      "name": "MaxQuestionsReached",
      "type": "error"
    },
    {
      "inputs": [],
      "name": "OnlyOwner",
      "type": "error"
    },
    {
      "inputs": [],
      "name": "PredictionPeriodEnded",
      "type": "error"
    },
    {
      "inputs": [],
      "name": "ResolutionWindowExpired",
      "type": "error"
    },
    {
      "inputs": [],
      "name": "ResultAlreadySet",
      "type": "error"
    },
    {
      "inputs": [],
      "name": "TimeLimitExpired",
      "type": "error"
    },
    {
      "inputs": [],
      "name": "TimeLimitInvalid",
      "type": "error"
    },
    {
      "inputs": [],
      "name": "UsernameEmpty",
      "type": "error"
    },
    {
      "inputs": [],
      "name": "UsernameTaken",
      "type": "error"
    },
    {
      "anonymous": false,
      "inputs": [
        {
          "indexed": false,
          "internalType": "address",
          "name": "player",
          "type": "address"
        },
        {
          "indexed": false,
          "internalType": "uint256",
          "name": "questionId",
          "type": "uint256"
        },
        {
          "indexed": false,
          "internalType": "uint256",
          "name": "answer",
          "type": "uint256"
        },
        {
          "indexed": false,
          "internalType": "uint256",
          "name": "stakeAmount",
          "type": "uint256"
        }
      ],
      "name": "PredictionSubmitted",
      "type": "event"
    },
    {
      "anonymous": false,
      "inputs": [
        {
          "indexed": false,
          "internalType": "uint256",
          "name": "questionId",
          "type": "uint256"
        },
        {
          "indexed": false,
          "internalType": "string",
          "name": "text",
          "type": "string"
        },
        {
          "indexed": false,
          "internalType": "uint256",
          "name": "duration",
          "type": "uint256"
        },
        {
          "indexed": false,
          "internalType": "uint256",
          "name": "resolutionWindow",
          "type": "uint256"
        },
        {
          "indexed": false,
          "internalType": "uint256",
          "name": "timeLimit",
          "type": "uint256"
        }
      ],
      "name": "QuestionCreated",
      "type": "event"
    },
    {
      "anonymous": false,
      "inputs": [
        {
          "indexed": false,
          "internalType": "uint256",
          "name": "questionId",
          "type": "uint256"
        },
        {
          "indexed": false,
          "internalType": "uint256",
          "name": "correctAnswer",
          "type": "uint256"
        }
      ],
      "name": "QuestionResolved",
      "type": "event"
    },
    {
      "anonymous": false,
      "inputs": [
        {
          "indexed": false,
          "internalType": "address",
          "name": "player",
          "type": "address"
        },
        {
          "indexed": false,
          "internalType": "uint256",
          "name": "rewardAmount",
          "type": "uint256"
        }
      ],
      "name": "RewardDistributed",
      "type": "event"
    },
    {
      "anonymous": false,
      "inputs": [
        {
          "indexed": false,
          "internalType": "address",
          "name": "player",
          "type": "address"
        },
        {
          "indexed": false,
          "internalType": "uint256",
          "name": "streakLength",
          "type": "uint256"
        },
        {
          "indexed": false,
          "internalType": "uint256",
          "name": "rewardPoints",
          "type": "uint256"
        }
      ],
      "name": "StreakReward",
      "type": "event"
    },
    {
      "anonymous": false,
      "inputs": [
        {
          "indexed": false,
          "internalType": "address",
          "name": "player",
          "type": "address"
        },
        {
          "indexed": false,
          "internalType": "string",
          "name": "username",
          "type": "string"
        }
      ],
      "name": "UsernameSet",
      "type": "event"
    },
    {
      "inputs": [],
      "name": "MAX_OPTIONS",
      "outputs": [
        {
          "internalType": "uint256",
          "name": "",
          "type": "uint256"
        }
      ],
      "stateMutability": "view",
      "type": "function"
    },
    {
      "inputs": [],
      "name": "POINTS_PER_CORRECT_ANSWER",
      "outputs": [
        {
          "internalType": "uint256",
          "name": "",
          "type": "uint256"
        }
      ],
      "stateMutability": "view",
      "type": "function"
    },
    {
      "inputs": [],
      "name": "QUESTIONS_PER_GAME",
      "outputs": [
        {
          "internalType": "uint256",
          "name": "",
          "type": "uint256"
        }
      ],
      "stateMutability": "view",
      "type": "function"
    },
    {
      "inputs": [],
      "name": "STREAK_LENGTH",
      "outputs": [
        {
          "internalType": "uint256",
          "name": "",
          "type": "uint256"
        }
      ],
      "stateMutability": "view",
      "type": "function"
    },
    {
      "inputs": [],
      "name": "STREAK_REWARD_POINTS",
      "outputs": [
        {
          "internalType": "uint256",
          "name": "",
          "type": "uint256"
        }
      ],
      "stateMutability": "view",
      "type": "function"
    },
    {
      "inputs": [
        {
          "internalType": "uint256",
          "name": "",
          "type": "uint256"
        }
      ],
      "name": "allPlayers",
      "outputs": [
        {
          "internalType": "address",
          "name": "",
          "type": "address"
        }
      ],
      "stateMutability": "view",
      "type": "function"
    },
    {
      "inputs": [
        {
          "internalType": "string",
          "name": "text",
          "type": "string"
        },
        {
          "internalType": "string[4]",
          "name": "options",
          "type": "string[4]"
        },
        {
          "internalType": "uint256",
          "name": "duration",
          "type": "uint256"
        },
        {
          "internalType": "uint256",
          "name": "resolutionWindow",
          "type": "uint256"
        },
        {
          "internalType": "uint256",
          "name": "timeLimit",
          "type": "uint256"
        }
      ],
      "name": "createQuestion",
      "outputs": [],
      "stateMutability": "nonpayable",
      "type": "function"
    },
    {
      "inputs": [],
      "name": "currentQuestionId",
      "outputs": [
        {
          "internalType": "uint256",
          "name": "",
          "type": "uint256"
        }
      ],
      "stateMutability": "view",
      "type": "function"
    },
    {
      "inputs": [],
      "name": "getLeaderboard",
      "outputs": [
        {
          "internalType": "address[]",
          "name": "",
          "type": "address[]"
        },
        {
          "internalType": "string[]",
          "name": "",
          "type": "string[]"
        },
        {
          "internalType": "uint256[]",
          "name": "",
          "type": "uint256[]"
        }
      ],
      "stateMutability": "view",
      "type": "function"
    },
    {
      "inputs": [
        {
          "internalType": "address",
          "name": "playerAddress",
          "type": "address"
        }
      ],
      "name": "getPlayerDetails",
      "outputs": [
        {
          "components": [
            {
              "internalType": "address",
              "name": "playerAddress",
              "type": "address"
            },
            {
              "internalType": "string",
              "name": "username",
              "type": "string"
            },
            {
              "internalType": "uint256",
              "name": "totalPoints",
              "type": "uint256"
            },
            {
              "internalType": "uint256",
              "name": "totalCorrect",
              "type": "uint256"
            },
            {
              "internalType": "uint256",
              "name": "currentStreak",
              "type": "uint256"
            },
            {
              "components": [
                {
                  "internalType": "uint256",
                  "name": "questionId",
                  "type": "uint256"
                },
                {
                  "internalType": "uint256",
                  "name": "answer",
                  "type": "uint256"
                },
                {
                  "internalType": "bool",
                  "name": "correct",
                  "type": "bool"
                },
                {
                  "internalType": "uint256",
                  "name": "timestamp",
                  "type": "uint256"
                }
              ],
              "internalType": "struct PredictionGame.Prediction[]",
              "name": "predictionHistory",
              "type": "tuple[]"
            }
          ],
          "internalType": "struct PredictionGame.Player",
          "name": "",
          "type": "tuple"
        }
      ],
      "stateMutability": "view",
      "type": "function"
    },
    {
      "inputs": [],
      "name": "lastLeaderboardUpdate",
      "outputs": [
        {
          "internalType": "uint256",
          "name": "",
          "type": "uint256"
        }
      ],
      "stateMutability": "view",
      "type": "function"
    },
    {
      "inputs": [
        {
          "internalType": "uint256",
          "name": "",
          "type": "uint256"
        }
      ],
      "name": "leaderboard",
      "outputs": [
        {
          "internalType": "address",
          "name": "",
          "type": "address"
        }
      ],
      "stateMutability": "view",
      "type": "function"
    },
    {
      "inputs": [],
      "name": "owner",
      "outputs": [
        {
          "internalType": "address",
          "name": "",
          "type": "address"
        }
      ],
      "stateMutability": "view",
      "type": "function"
    },
    {
      "inputs": [
        {
          "internalType": "address",
          "name": "",
          "type": "address"
        }
      ],
      "name": "players",
      "outputs": [
        {
          "internalType": "address",
          "name": "playerAddress",
          "type": "address"
        },
        {
          "internalType": "string",
          "name": "username",
          "type": "string"
        },
        {
          "internalType": "uint256",
          "name": "totalPoints",
          "type": "uint256"
        },
        {
          "internalType": "uint256",
          "name": "totalCorrect",
          "type": "uint256"
        },
        {
          "internalType": "uint256",
          "name": "currentStreak",
          "type": "uint256"
        }
      ],
      "stateMutability": "view",
      "type": "function"
    },
    {
      "inputs": [
        {
          "internalType": "uint256",
          "name": "questionId",
          "type": "uint256"
        },
        {
          "internalType": "uint256",
          "name": "answer",
          "type": "uint256"
        }
      ],
      "name": "predict",
      "outputs": [],
      "stateMutability": "payable",
      "type": "function"
    },
    {
      "inputs": [
        {
          "internalType": "uint256",
          "name": "",
          "type": "uint256"
        }
      ],
      "name": "questions",
      "outputs": [
        {
          "internalType": "string",
          "name": "text",
          "type": "string"
        },
        {
          "internalType": "uint256",
          "name": "correctAnswer",
          "type": "uint256"
        },
        {
          "internalType": "uint256",
          "name": "createdAt",
          "type": "uint256"
        },
        {
          "internalType": "uint256",
          "name": "deadline",
          "type": "uint256"
        },
        {
          "internalType": "uint256",
          "name": "resolveBy",
          "type": "uint256"
        },
        {
          "internalType": "uint256",
          "name": "timeLimit",
          "type": "uint256"
        },
        {
          "internalType": "bool",
          "name": "resolved",
          "type": "bool"
        },
        {
          "internalType": "uint256",
          "name": "totalStakes",
          "type": "uint256"
        }
      ],
      "stateMutability": "view",
      "type": "function"
    },
    {
      "inputs": [
        {
          "internalType": "uint256",
          "name": "questionId",
          "type": "uint256"
        },
        {
          "internalType": "uint256",
          "name": "correctAnswer",
          "type": "uint256"
        }
      ],
      "name": "resolveQuestion",
      "outputs": [],
      "stateMutability": "nonpayable",
      "type": "function"
    },
    {
      "inputs": [
        {
          "internalType": "string",
          "name": "_username",
          "type": "string"
        }
      ],
      "name": "setUsername",
      "outputs": [],
      "stateMutability": "nonpayable",
      "type": "function"
    }
  ],
  "bytecode": "0x6080604052348015600f57600080fd5b50336000806101000a81548173ffffffffffffffffffffffffffffffffffffffff021916908373ffffffffffffffffffffffffffffffffffffffff1602179055506001600481905550613502806100676000396000f3fe6080604052600436106101095760003560e01c80638da5cb5b11610095578063c8dd6ce711610064578063c8dd6ce71461036b578063cacf1b51146103a8578063dea3e42d146103d1578063e2eb41ff146103fc578063ed59313a1461043d57610109565b80638da5cb5b146102bc578063a2462712146102e7578063aca4ed8414610312578063bf3683991461032e57610109565b806331b1b978116100dc57806331b1b978146101cc57806359d85553146102105780636d763a6e1461023b5780637c3210f4146102685780637d7adffa1461029157610109565b80630544ce5e1461010e5780630da183d61461014b578063108eeb201461017657806315da65a5146101a1575b600080fd5b34801561011a57600080fd5b5061013560048036038101906101309190612380565b610466565b60405161014291906123ee565b60405180910390f35b34801561015757600080fd5b506101606104a5565b60405161016d9190612418565b60405180910390f35b34801561018257600080fd5b5061018b6104aa565b6040516101989190612418565b60405180910390f35b3480156101ad57600080fd5b506101b66104af565b6040516101c39190612418565b60405180910390f35b3480156101d857600080fd5b506101f360048036038101906101ee9190612380565b6104b5565b6040516102079897969594939291906124de565b60405180910390f35b34801561021c57600080fd5b50610225610592565b6040516102329190612418565b60405180910390f35b34801561024757600080fd5b50610250610597565b60405161025f939291906127eb565b60405180910390f35b34801561027457600080fd5b5061028f600480360381019061028a9190612a40565b610919565b005b34801561029d57600080fd5b506102a6610b0d565b6040516102b39190612418565b60405180910390f35b3480156102c857600080fd5b506102d1610b12565b6040516102de91906123ee565b60405180910390f35b3480156102f357600080fd5b506102fc610b36565b6040516103099190612418565b60405180910390f35b61032c60048036038101906103279190612af3565b610b3c565b005b34801561033a57600080fd5b5061035560048036038101906103509190612380565b610feb565b60405161036291906123ee565b60405180910390f35b34801561037757600080fd5b50610392600480360381019061038d9190612b5f565b61102a565b60405161039f9190612d2f565b60405180910390f35b3480156103b457600080fd5b506103cf60048036038101906103ca9190612af3565b611221565b005b3480156103dd57600080fd5b506103e6611487565b6040516103f39190612418565b60405180910390f35b34801561040857600080fd5b50610423600480360381019061041e9190612b5f565b61148c565b604051610434959493929190612d51565b60405180910390f35b34801561044957600080fd5b50610464600480360381019061045f9190612dab565b61156a565b005b6003818154811061047657600080fd5b906000526020600020016000915054906101000a900473ffffffffffffffffffffffffffffffffffffffff1681565b600481565b600a81565b60045481565b60016020528060005260406000206000915090508060000180546104d890612e23565b80601f016020809104026020016040519081016040528092919081815260200182805461050490612e23565b80156105515780601f1061052657610100808354040283529160200191610551565b820191906000526020600020905b81548152906001019060200180831161053457829003601f168201915b50505050509080600501549080600601549080600701549080600801549080600901549080600a0160009054906101000a900460ff169080600b0154905088565b600381565b6060806060600060058054905067ffffffffffffffff8111156105bd576105bc612841565b5b6040519080825280602002602001820160405280156105eb5781602001602082028036833780820191505090505b509050600060058054905067ffffffffffffffff81111561060f5761060e612841565b5b60405190808252806020026020018201604052801561064257816020015b606081526020019060019003908161062d5790505b509050600060058054905067ffffffffffffffff81111561066657610665612841565b5b6040519080825280602002602001820160405280156106945781602001602082028036833780820191505090505b50905060005b60058054905081101561090757600581815481106106bb576106ba612e54565b5b9060005260206000200160009054906101000a900473ffffffffffffffffffffffffffffffffffffffff168482815181106106f9576106f8612e54565b5b602002602001019073ffffffffffffffffffffffffffffffffffffffff16908173ffffffffffffffffffffffffffffffffffffffff1681525050600260006005838154811061074b5761074a612e54565b5b9060005260206000200160009054906101000a900473ffffffffffffffffffffffffffffffffffffffff1673ffffffffffffffffffffffffffffffffffffffff1673ffffffffffffffffffffffffffffffffffffffff16815260200190815260200160002060010180546107be90612e23565b80601f01602080910402602001604051908101604052809291908181526020018280546107ea90612e23565b80156108375780601f1061080c57610100808354040283529160200191610837565b820191906000526020600020905b81548152906001019060200180831161081a57829003601f168201915b505050505083828151811061084f5761084e612e54565b5b6020026020010181905250600260006005838154811061087257610871612e54565b5b9060005260206000200160009054906101000a900473ffffffffffffffffffffffffffffffffffffffff1673ffffffffffffffffffffffffffffffffffffffff1673ffffffffffffffffffffffffffffffffffffffff168152602001908152602001600020600201548282815181106108ee576108ed612e54565b5b602002602001018181525050808060010191505061069a565b50828282955095509550505050909192565b60008054906101000a900473ffffffffffffffffffffffffffffffffffffffff1673ffffffffffffffffffffffffffffffffffffffff163373ffffffffffffffffffffffffffffffffffffffff161461099e576040517f5fc483c500000000000000000000000000000000000000000000000000000000815260040160405180910390fd5b600a60045411156109db576040517f9abecf8900000000000000000000000000000000000000000000000000000000815260040160405180910390fd5b60008103610a15576040517fe87da8d900000000000000000000000000000000000000000000000000000000815260040160405180910390fd5b6000600160006004548152602001908152602001600020905085816000019081610a3f919061302f565b508481600101906004610a539291906121cb565b50428160060181905550610e1084610a6b9190613130565b42610a769190613172565b8160070181905550610e1083610a8c9190613130565b8160070154610a9b9190613172565b81600801819055508181600901819055507f0f322d7ea2998df6f242d39c4f338a40f6cd61cdc2fa71694af6da1f2ed0831260045487868686604051610ae59594939291906131a6565b60405180910390a160046000815480929190610b0090613200565b9190505550505050505050565b600a81565b60008054906101000a900473ffffffffffffffffffffffffffffffffffffffff1681565b60065481565b81600081111580610b4e575060045481115b15610b85576040517f6296052400000000000000000000000000000000000000000000000000000000815260040160405180910390fd5b600060016000858152602001908152602001600020905080600701544210610bd9576040517fb53b70f700000000000000000000000000000000000000000000000000000000815260040160405180910390fd5b80600901548160060154610bed9190613172565b421115610c26576040517f34f8517a00000000000000000000000000000000000000000000000000000000815260040160405180910390fd5b6000831480610c355750600483115b15610c6c576040517fb5f71a2e00000000000000000000000000000000000000000000000000000000815260040160405180910390fd5b600081600d0160003373ffffffffffffffffffffffffffffffffffffffff1673ffffffffffffffffffffffffffffffffffffffff1681526020019081526020016000205414610ce7576040517f3b9e91cf00000000000000000000000000000000000000000000000000000000815260040160405180910390fd5b60003403610d21576040517f040ef8ec00000000000000000000000000000000000000000000000000000000815260040160405180910390fd5b600073ffffffffffffffffffffffffffffffffffffffff16600260003373ffffffffffffffffffffffffffffffffffffffff1673ffffffffffffffffffffffffffffffffffffffff16815260200190815260200160002060000160009054906101000a900473ffffffffffffffffffffffffffffffffffffffff1673ffffffffffffffffffffffffffffffffffffffff1603610e9c5733600260003373ffffffffffffffffffffffffffffffffffffffff1673ffffffffffffffffffffffffffffffffffffffff16815260200190815260200160002060000160006101000a81548173ffffffffffffffffffffffffffffffffffffffff021916908373ffffffffffffffffffffffffffffffffffffffff1602179055506003339080600181540180825580915050600190039060005260206000200160009091909190916101000a81548173ffffffffffffffffffffffffffffffffffffffff021916908373ffffffffffffffffffffffffffffffffffffffff1602179055505b8281600d0160003373ffffffffffffffffffffffffffffffffffffffff1673ffffffffffffffffffffffffffffffffffffffff168152602001908152602001600020819055503481600c0160003373ffffffffffffffffffffffffffffffffffffffff1673ffffffffffffffffffffffffffffffffffffffff168152602001908152602001600020819055503481600b016000828254610f3c9190613172565b9250508190555080600e01339080600181540180825580915050600190039060005260206000200160009091909190916101000a81548173ffffffffffffffffffffffffffffffffffffffff021916908373ffffffffffffffffffffffffffffffffffffffff1602179055507fd7bc80db9e7a8475c41b586c4efb670481b81ad165f08ffb2beb311a5878328f33858534604051610fdd9493929190613248565b60405180910390a150505050565b60058181548110610ffb57600080fd5b906000526020600020016000915054906101000a900473ffffffffffffffffffffffffffffffffffffffff1681565b611032612217565b600260008373ffffffffffffffffffffffffffffffffffffffff1673ffffffffffffffffffffffffffffffffffffffff1681526020019081526020016000206040518060c00160405290816000820160009054906101000a900473ffffffffffffffffffffffffffffffffffffffff1673ffffffffffffffffffffffffffffffffffffffff1673ffffffffffffffffffffffffffffffffffffffff1681526020016001820180546110e290612e23565b80601f016020809104026020016040519081016040528092919081815260200182805461110e90612e23565b801561115b5780601f106111305761010080835404028352916020019161115b565b820191906000526020600020905b81548152906001019060200180831161113e57829003601f168201915b5050505050815260200160028201548152602001600382015481526020016004820154815260200160058201805480602002602001604051908101604052809291908181526020016000905b82821015611212578382906000526020600020906004020160405180608001604052908160008201548152602001600182015481526020016002820160009054906101000a900460ff16151515158152602001600382015481525050815260200190600101906111a7565b50505050815250509050919050565b60008054906101000a900473ffffffffffffffffffffffffffffffffffffffff1673ffffffffffffffffffffffffffffffffffffffff163373ffffffffffffffffffffffffffffffffffffffff16146112a6576040517f5fc483c500000000000000000000000000000000000000000000000000000000815260040160405180910390fd5b816000811115806112b8575060045481115b156112ef576040517f6296052400000000000000000000000000000000000000000000000000000000815260040160405180910390fd5b60006001600085815260200190815260200160002090508060070154421015611344576040517f66ec4ee600000000000000000000000000000000000000000000000000000000815260040160405180910390fd5b8060080154421115611382576040517f89da025b00000000000000000000000000000000000000000000000000000000815260040160405180910390fd5b80600a0160009054906101000a900460ff16156113cb576040517f6b2b440800000000000000000000000000000000000000000000000000000000815260040160405180910390fd5b60008314806113da5750600483115b15611411576040517f1021d5e900000000000000000000000000000000000000000000000000000000815260040160405180910390fd5b828160050181905550600181600a0160006101000a81548160ff0219169083151502179055506114408461189e565b611448611ead565b7f372f04348744399b80b497711376882c2eb7003d29e800a7c52a835659217586848460405161147992919061328d565b60405180910390a150505050565b603281565b60026020528060005260406000206000915090508060000160009054906101000a900473ffffffffffffffffffffffffffffffffffffffff16908060010180546114d590612e23565b80601f016020809104026020016040519081016040528092919081815260200182805461150190612e23565b801561154e5780601f106115235761010080835404028352916020019161154e565b820191906000526020600020905b81548152906001019060200180831161153157829003601f168201915b5050505050908060020154908060030154908060040154905085565b60008151036115a5576040517f16d1737600000000000000000000000000000000000000000000000000000000815260040160405180910390fd5b60005b60038054905081101561169657818051906020012060026000600384815481106115d5576115d4612e54565b5b9060005260206000200160009054906101000a900473ffffffffffffffffffffffffffffffffffffffff1673ffffffffffffffffffffffffffffffffffffffff1673ffffffffffffffffffffffffffffffffffffffff16815260200190815260200160002060010160405161164a9190613359565b604051809103902003611689576040517f6bc324ad00000000000000000000000000000000000000000000000000000000815260040160405180910390fd5b80806001019150506115a8565b50600073ffffffffffffffffffffffffffffffffffffffff16600260003373ffffffffffffffffffffffffffffffffffffffff1673ffffffffffffffffffffffffffffffffffffffff16815260200190815260200160002060000160009054906101000a900473ffffffffffffffffffffffffffffffffffffffff1673ffffffffffffffffffffffffffffffffffffffff16036118125733600260003373ffffffffffffffffffffffffffffffffffffffff1673ffffffffffffffffffffffffffffffffffffffff16815260200190815260200160002060000160006101000a81548173ffffffffffffffffffffffffffffffffffffffff021916908373ffffffffffffffffffffffffffffffffffffffff1602179055506003339080600181540180825580915050600190039060005260206000200160009091909190916101000a81548173ffffffffffffffffffffffffffffffffffffffff021916908373ffffffffffffffffffffffffffffffffffffffff1602179055505b80600260003373ffffffffffffffffffffffffffffffffffffffff1673ffffffffffffffffffffffffffffffffffffffff1681526020019081526020016000206001019081611861919061302f565b507f74d8e560d2e870c35b35dc882df2a5c96e2bf1cdb5ef6dd2f9cb433c8d0488533382604051611893929190613370565b60405180910390a150565b600060016000838152602001908152602001600020905060008060005b83600e01805490508110156119c757600084600e0182815481106118e2576118e1612e54565b5b9060005260206000200160009054906101000a900473ffffffffffffffffffffffffffffffffffffffff169050846005015485600d0160008373ffffffffffffffffffffffffffffffffffffffff1673ffffffffffffffffffffffffffffffffffffffff16815260200190815260200160002054036119b957838061196690613200565b94505084600c0160008273ffffffffffffffffffffffffffffffffffffffff1673ffffffffffffffffffffffffffffffffffffffff16815260200190815260200160002054836119b69190613172565b92505b5080806001019150506118bb565b50600082036119d857505050611eaa565b60005b83600e0180549050811015611ea557600084600e018281548110611a0257611a01612e54565b5b9060005260206000200160009054906101000a900473ffffffffffffffffffffffffffffffffffffffff1690506000600260008373ffffffffffffffffffffffffffffffffffffffff1673ffffffffffffffffffffffffffffffffffffffff1681526020019081526020016000209050856005015486600d0160008473ffffffffffffffffffffffffffffffffffffffff1673ffffffffffffffffffffffffffffffffffffffff1681526020019081526020016000205403611db957600086600c0160008473ffffffffffffffffffffffffffffffffffffffff1673ffffffffffffffffffffffffffffffffffffffff16815260200190815260200160002054905060008588600b015483611b179190613130565b611b2191906133cf565b9050826003016000815480929190611b3890613200565b9190505550826004016000815480929190611b5290613200565b9190505550600a836002016000828254611b6c9190613172565b92505081905550600060038460040154611b869190613400565b03611be8576032836002016000828254611ba09190613172565b925050819055507ffbdafbbc14774062bbd11c772b5079b5f04e8abe9cbdbf1a7920a642b748f9f98484600401546032604051611bdf93929190613431565b60405180910390a15b80836002016000828254611bfc9190613172565b925050819055508260050160405180608001604052808b81526020018a600d0160008873ffffffffffffffffffffffffffffffffffffffff1673ffffffffffffffffffffffffffffffffffffffff168152602001908152602001600020548152602001600115158152602001428152509080600181540180825580915050600190039060005260206000209060040201600090919091909150600082015181600001556020820151816001015560408201518160020160006101000a81548160ff02191690831515021790555060608201518160030155505060008473ffffffffffffffffffffffffffffffffffffffff1682604051611cfb9061348e565b60006040518083038185875af1925050503d8060008114611d38576040519150601f19603f3d011682016040523d82523d6000602084013e611d3d565b606091505b5050905080611d78576040517f3ae6ac5d00000000000000000000000000000000000000000000000000000000815260040160405180910390fd5b7fe34918ff1c7084970068b53fd71ad6d8b04e9f15d3886cbf006443e6cdc52ea68583604051611da99291906134a3565b60405180910390a1505050611e96565b6000816004018190555080600501604051806080016040528089815260200188600d0160008673ffffffffffffffffffffffffffffffffffffffff1673ffffffffffffffffffffffffffffffffffffffff168152602001908152602001600020548152602001600015158152602001428152509080600181540180825580915050600190039060005260206000209060040201600090919091909150600082015181600001556020820151816001015560408201518160020160006101000a81548160ff0219169083151502179055506060820151816003015550505b505080806001019150506119db565b505050505b50565b60005b60038054905081101561213c576000600182611ecc9190613172565b90505b60038054905081101561212e576002600060038381548110611ef457611ef3612e54565b5b9060005260206000200160009054906101000a900473ffffffffffffffffffffffffffffffffffffffff1673ffffffffffffffffffffffffffffffffffffffff1673ffffffffffffffffffffffffffffffffffffffff168152602001908152602001600020600201546002600060038581548110611f7557611f74612e54565b5b9060005260206000200160009054906101000a900473ffffffffffffffffffffffffffffffffffffffff1673ffffffffffffffffffffffffffffffffffffffff1673ffffffffffffffffffffffffffffffffffffffff16815260200190815260200160002060020154101561212157600060038381548110611ffa57611ff9612e54565b5b9060005260206000200160009054906101000a900473ffffffffffffffffffffffffffffffffffffffff1690506003828154811061203b5761203a612e54565b5b9060005260206000200160009054906101000a900473ffffffffffffffffffffffffffffffffffffffff166003848154811061207a57612079612e54565b5b9060005260206000200160006101000a81548173ffffffffffffffffffffffffffffffffffffffff021916908373ffffffffffffffffffffffffffffffffffffffff16021790555080600383815481106120d7576120d6612e54565b5b9060005260206000200160006101000a81548173ffffffffffffffffffffffffffffffffffffffff021916908373ffffffffffffffffffffffffffffffffffffffff160217905550505b8080600101915050611ecf565b508080600101915050611eb0565b50606460038054905011156121af576000606490505b6003805490508110156121ad576003818154811061217357612172612e54565b5b9060005260206000200160006101000a81549073ffffffffffffffffffffffffffffffffffffffff02191690558080600101915050612152565b505b600360059080546121c1929190612263565b5042600681905550565b8260048101928215612206579160200282015b828111156122055782518290816121f5919061302f565b50916020019190600101906121de565b5b50905061221391906122b5565b5090565b6040518060c00160405280600073ffffffffffffffffffffffffffffffffffffffff16815260200160608152602001600081526020016000815260200160008152602001606081525090565b8280548282559060005260206000209081019282156122a45760005260206000209182015b828111156122a3578254825591600101919060010190612288565b5b5090506122b191906122d9565b5090565b5b808211156122d557600081816122cc91906122f6565b506001016122b6565b5090565b5b808211156122f25760008160009055506001016122da565b5090565b50805461230290612e23565b6000825580601f106123145750612333565b601f01602090049060005260206000209081019061233291906122d9565b5b50565b6000604051905090565b600080fd5b600080fd5b6000819050919050565b61235d8161234a565b811461236857600080fd5b50565b60008135905061237a81612354565b92915050565b60006020828403121561239657612395612340565b5b60006123a48482850161236b565b91505092915050565b600073ffffffffffffffffffffffffffffffffffffffff82169050919050565b60006123d8826123ad565b9050919050565b6123e8816123cd565b82525050565b600060208201905061240360008301846123df565b92915050565b6124128161234a565b82525050565b600060208201905061242d6000830184612409565b92915050565b600081519050919050565b600082825260208201905092915050565b60005b8381101561246d578082015181840152602081019050612452565b60008484015250505050565b6000601f19601f8301169050919050565b600061249582612433565b61249f818561243e565b93506124af81856020860161244f565b6124b881612479565b840191505092915050565b60008115159050919050565b6124d8816124c3565b82525050565b60006101008201905081810360008301526124f9818b61248a565b9050612508602083018a612409565b6125156040830189612409565b6125226060830188612409565b61252f6080830187612409565b61253c60a0830186612409565b61254960c08301856124cf565b61255660e0830184612409565b9998505050505050505050565b600081519050919050565b600082825260208201905092915050565b6000819050602082019050919050565b612598816123cd565b82525050565b60006125aa838361258f565b60208301905092915050565b6000602082019050919050565b60006125ce82612563565b6125d8818561256e565b93506125e38361257f565b8060005b838110156126145781516125fb888261259e565b9750612606836125b6565b9250506001810190506125e7565b5085935050505092915050565b600081519050919050565b600082825260208201905092915050565b6000819050602082019050919050565b600082825260208201905092915050565b600061266982612433565b612673818561264d565b935061268381856020860161244f565b61268c81612479565b840191505092915050565b60006126a3838361265e565b905092915050565b6000602082019050919050565b60006126c382612621565b6126cd818561262c565b9350836020820285016126df8561263d565b8060005b8581101561271b57848403895281516126fc8582612697565b9450612707836126ab565b925060208a019950506001810190506126e3565b50829750879550505050505092915050565b600081519050919050565b600082825260208201905092915050565b6000819050602082019050919050565b6127628161234a565b82525050565b60006127748383612759565b60208301905092915050565b6000602082019050919050565b60006127988261272d565b6127a28185612738565b93506127ad83612749565b8060005b838110156127de5781516127c58882612768565b97506127d083612780565b9250506001810190506127b1565b5085935050505092915050565b6000606082019050818103600083015261280581866125c3565b9050818103602083015261281981856126b8565b9050818103604083015261282d818461278d565b9050949350505050565b600080fd5b600080fd5b7f4e487b7100000000000000000000000000000000000000000000000000000000600052604160045260246000fd5b61287982612479565b810181811067ffffffffffffffff8211171561289857612897612841565b5b80604052505050565b60006128ab612336565b90506128b78282612870565b919050565b600067ffffffffffffffff8211156128d7576128d6612841565b5b6128e082612479565b9050602081019050919050565b82818337600083830152505050565b600061290f61290a846128bc565b6128a1565b90508281526020810184848401111561292b5761292a61283c565b5b6129368482856128ed565b509392505050565b600082601f83011261295357612952612837565b5b81356129638482602086016128fc565b91505092915050565b600067ffffffffffffffff82111561298757612986612841565b5b602082029050919050565b600080fd5b60006129aa6129a58461296c565b6128a1565b905080602084028301858111156129c4576129c3612992565b5b835b81811015612a0b57803567ffffffffffffffff8111156129e9576129e8612837565b5b8086016129f6898261293e565b855260208501945050506020810190506129c6565b5050509392505050565b600082601f830112612a2a57612a29612837565b5b6004612a37848285612997565b91505092915050565b600080600080600060a08688031215612a5c57612a5b612340565b5b600086013567ffffffffffffffff811115612a7a57612a79612345565b5b612a868882890161293e565b955050602086013567ffffffffffffffff811115612aa757612aa6612345565b5b612ab388828901612a15565b9450506040612ac48882890161236b565b9350506060612ad58882890161236b565b9250506080612ae68882890161236b565b9150509295509295909350565b60008060408385031215612b0a57612b09612340565b5b6000612b188582860161236b565b9250506020612b298582860161236b565b9150509250929050565b612b3c816123cd565b8114612b4757600080fd5b50565b600081359050612b5981612b33565b92915050565b600060208284031215612b7557612b74612340565b5b6000612b8384828501612b4a565b91505092915050565b600081519050919050565b600082825260208201905092915050565b6000819050602082019050919050565b612bc1816124c3565b82525050565b608082016000820151612bdd6000850182612759565b506020820151612bf06020850182612759565b506040820151612c036040850182612bb8565b506060820151612c166060850182612759565b50505050565b6000612c288383612bc7565b60808301905092915050565b6000602082019050919050565b6000612c4c82612b8c565b612c568185612b97565b9350612c6183612ba8565b8060005b83811015612c92578151612c798882612c1c565b9750612c8483612c34565b925050600181019050612c65565b5085935050505092915050565b600060c083016000830151612cb7600086018261258f565b5060208301518482036020860152612ccf828261265e565b9150506040830151612ce46040860182612759565b506060830151612cf76060860182612759565b506080830151612d0a6080860182612759565b5060a083015184820360a0860152612d228282612c41565b9150508091505092915050565b60006020820190508181036000830152612d498184612c9f565b905092915050565b600060a082019050612d6660008301886123df565b8181036020830152612d78818761248a565b9050612d876040830186612409565b612d946060830185612409565b612da16080830184612409565b9695505050505050565b600060208284031215612dc157612dc0612340565b5b600082013567ffffffffffffffff811115612ddf57612dde612345565b5b612deb8482850161293e565b91505092915050565b7f4e487b7100000000000000000000000000000000000000000000000000000000600052602260045260246000fd5b60006002820490506001821680612e3b57607f821691505b602082108103612e4e57612e4d612df4565b5b50919050565b7f4e487b7100000000000000000000000000000000000000000000000000000000600052603260045260246000fd5b60008190508160005260206000209050919050565b60006020601f8301049050919050565b600082821b905092915050565b600060088302612ee57fffffffffffffffffffffffffffffffffffffffffffffffffffffffffffffffff82612ea8565b612eef8683612ea8565b95508019841693508086168417925050509392505050565b6000819050919050565b6000612f2c612f27612f228461234a565b612f07565b61234a565b9050919050565b6000819050919050565b612f4683612f11565b612f5a612f5282612f33565b848454612eb5565b825550505050565b600090565b612f6f612f62565b612f7a818484612f3d565b505050565b5b81811015612f9e57612f93600082612f67565b600181019050612f80565b5050565b601f821115612fe357612fb481612e83565b612fbd84612e98565b81016020851015612fcc578190505b612fe0612fd885612e98565b830182612f7f565b50505b505050565b600082821c905092915050565b600061300660001984600802612fe8565b1980831691505092915050565b600061301f8383612ff5565b9150826002028217905092915050565b61303882612433565b67ffffffffffffffff81111561305157613050612841565b5b61305b8254612e23565b613066828285612fa2565b600060209050601f8311600181146130995760008415613087578287015190505b6130918582613013565b8655506130f9565b601f1984166130a786612e83565b60005b828110156130cf578489015182556001820191506020850194506020810190506130aa565b868310156130ec57848901516130e8601f891682612ff5565b8355505b6001600288020188555050505b505050505050565b7f4e487b7100000000000000000000000000000000000000000000000000000000600052601160045260246000fd5b600061313b8261234a565b91506131468361234a565b92508282026131548161234a565b9150828204841483151761316b5761316a613101565b5b5092915050565b600061317d8261234a565b91506131888361234a565b92508282019050808211156131a05761319f613101565b5b92915050565b600060a0820190506131bb6000830188612409565b81810360208301526131cd818761248a565b90506131dc6040830186612409565b6131e96060830185612409565b6131f66080830184612409565b9695505050505050565b600061320b8261234a565b91507fffffffffffffffffffffffffffffffffffffffffffffffffffffffffffffffff820361323d5761323c613101565b5b600182019050919050565b600060808201905061325d60008301876123df565b61326a6020830186612409565b6132776040830185612409565b6132846060830184612409565b95945050505050565b60006040820190506132a26000830185612409565b6132af6020830184612409565b9392505050565b600081905092915050565b60008190508160005260206000209050919050565b600081546132e381612e23565b6132ed81866132b6565b94506001821660008114613308576001811461331d57613350565b60ff1983168652811515820286019350613350565b613326856132c1565b60005b8381101561334857815481890152600182019150602081019050613329565b838801955050505b50505092915050565b600061336582846132d6565b915081905092915050565b600060408201905061338560008301856123df565b8181036020830152613397818461248a565b90509392505050565b7f4e487b7100000000000000000000000000000000000000000000000000000000600052601260045260246000fd5b60006133da8261234a565b91506133e58361234a565b9250826133f5576133f46133a0565b5b828204905092915050565b600061340b8261234a565b91506134168361234a565b925082613426576134256133a0565b5b828206905092915050565b600060608201905061344660008301866123df565b6134536020830185612409565b6134606040830184612409565b949350505050565b50565b60006134786000836132b6565b915061348382613468565b600082019050919050565b60006134998261346b565b9150819050919050565b60006040820190506134b860008301856123df565b6134c56020830184612409565b939250505056fea26469706673582212206631f0891351a6deb453fbc27cc0e0e97cc8706b52aa89557354fa91c58aad5e64736f6c634300081c0033",
  "linkReferences": {},
  "deployedLinkReferences": {}
}