{"abi":[{"type":"constructor","inputs":[],"stateMutability":"nonpayable"},{"type":"function","name":"MAX_OPTIONS","inputs":[],"outputs":[{"name":"","type":"uint256","internalType":"uint256"}],"stateMutability":"view"},{"type":"function","name":"POINTS_PER_CORRECT_ANSWER","inputs":[],"outputs":[{"name":"","type":"uint256","internalType":"uint256"}],"stateMutability":"view"},{"type":"function","name":"QUESTIONS_PER_GAME","inputs":[],"outputs":[{"name":"","type":"uint256","internalType":"uint256"}],"stateMutability":"view"},{"type":"function","name":"STREAK_LENGTH","inputs":[],"outputs":[{"name":"","type":"uint256","internalType":"uint256"}],"stateMutability":"view"},{"type":"function","name":"STREAK_REWARD_POINTS","inputs":[],"outputs":[{"name":"","type":"uint256","internalType":"uint256"}],"stateMutability":"view"},{"type":"function","name":"allPlayers","inputs":[{"name":"","type":"uint256","internalType":"uint256"}],"outputs":[{"name":"","type":"address","internalType":"address"}],"stateMutability":"view"},{"type":"function","name":"createQuestion","inputs":[{"name":"text","type":"string","internalType":"string"},{"name":"options","type":"string[4]","internalType":"string[4]"},{"name":"duration","type":"uint256","internalType":"uint256"},{"name":"resolutionWindow","type":"uint256","internalType":"uint256"},{"name":"timeLimit","type":"uint256","internalType":"uint256"}],"outputs":[],"stateMutability":"nonpayable"},{"type":"function","name":"currentQuestionId","inputs":[],"outputs":[{"name":"","type":"uint256","internalType":"uint256"}],"stateMutability":"view"},{"type":"function","name":"getLeaderboard","inputs":[],"outputs":[{"name":"","type":"address[]","internalType":"address[]"},{"name":"","type":"string[]","internalType":"string[]"},{"name":"","type":"uint256[]","internalType":"uint256[]"}],"stateMutability":"view"},{"type":"function","name":"getPlayerDetails","inputs":[{"name":"playerAddress","type":"address","internalType":"address"}],"outputs":[{"name":"","type":"tuple","internalType":"struct PredictionGame.Player","components":[{"name":"playerAddress","type":"address","internalType":"address"},{"name":"username","type":"string","internalType":"string"},{"name":"totalPoints","type":"uint256","internalType":"uint256"},{"name":"totalCorrect","type":"uint256","internalType":"uint256"},{"name":"currentStreak","type":"uint256","internalType":"uint256"},{"name":"predictionHistory","type":"tuple[]","internalType":"struct PredictionGame.Prediction[]","components":[{"name":"questionId","type":"uint256","internalType":"uint256"},{"name":"answer","type":"uint256","internalType":"uint256"},{"name":"correct","type":"bool","internalType":"bool"},{"name":"timestamp","type":"uint256","internalType":"uint256"}]}]}],"stateMutability":"view"},{"type":"function","name":"lastLeaderboardUpdate","inputs":[],"outputs":[{"name":"","type":"uint256","internalType":"uint256"}],"stateMutability":"view"},{"type":"function","name":"leaderboard","inputs":[{"name":"","type":"uint256","internalType":"uint256"}],"outputs":[{"name":"","type":"address","internalType":"address"}],"stateMutability":"view"},{"type":"function","name":"owner","inputs":[],"outputs":[{"name":"","type":"address","internalType":"address"}],"stateMutability":"view"},{"type":"function","name":"players","inputs":[{"name":"","type":"address","internalType":"address"}],"outputs":[{"name":"playerAddress","type":"address","internalType":"address"},{"name":"username","type":"string","internalType":"string"},{"name":"totalPoints","type":"uint256","internalType":"uint256"},{"name":"totalCorrect","type":"uint256","internalType":"uint256"},{"name":"currentStreak","type":"uint256","internalType":"uint256"}],"stateMutability":"view"},{"type":"function","name":"predict","inputs":[{"name":"questionId","type":"uint256","internalType":"uint256"},{"name":"answer","type":"uint256","internalType":"uint256"}],"outputs":[],"stateMutability":"payable"},{"type":"function","name":"questions","inputs":[{"name":"","type":"uint256","internalType":"uint256"}],"outputs":[{"name":"text","type":"string","internalType":"string"},{"name":"correctAnswer","type":"uint256","internalType":"uint256"},{"name":"createdAt","type":"uint256","internalType":"uint256"},{"name":"deadline","type":"uint256","internalType":"uint256"},{"name":"resolveBy","type":"uint256","internalType":"uint256"},{"name":"timeLimit","type":"uint256","internalType":"uint256"},{"name":"resolved","type":"bool","internalType":"bool"},{"name":"totalStakes","type":"uint256","internalType":"uint256"}],"stateMutability":"view"},{"type":"function","name":"resolveQuestion","inputs":[{"name":"questionId","type":"uint256","internalType":"uint256"},{"name":"correctAnswer","type":"uint256","internalType":"uint256"}],"outputs":[],"stateMutability":"nonpayable"},{"type":"function","name":"setUsername","inputs":[{"name":"_username","type":"string","internalType":"string"}],"outputs":[],"stateMutability":"nonpayable"},{"type":"event","name":"PredictionSubmitted","inputs":[{"name":"player","type":"address","indexed":false,"internalType":"address"},{"name":"questionId","type":"uint256","indexed":false,"internalType":"uint256"},{"name":"answer","type":"uint256","indexed":false,"internalType":"uint256"},{"name":"stakeAmount","type":"uint256","indexed":false,"internalType":"uint256"}],"anonymous":false},{"type":"event","name":"QuestionCreated","inputs":[{"name":"questionId","type":"uint256","indexed":false,"internalType":"uint256"},{"name":"text","type":"string","indexed":false,"internalType":"string"},{"name":"duration","type":"uint256","indexed":false,"internalType":"uint256"},{"name":"resolutionWindow","type":"uint256","indexed":false,"internalType":"uint256"},{"name":"timeLimit","type":"uint256","indexed":false,"internalType":"uint256"}],"anonymous":false},{"type":"event","name":"QuestionResolved","inputs":[{"name":"questionId","type":"uint256","indexed":false,"internalType":"uint256"},{"name":"correctAnswer","type":"uint256","indexed":false,"internalType":"uint256"}],"anonymous":false},{"type":"event","name":"RewardDistributed","inputs":[{"name":"player","type":"address","indexed":false,"internalType":"address"},{"name":"rewardAmount","type":"uint256","indexed":false,"internalType":"uint256"}],"anonymous":false},{"type":"event","name":"StreakReward","inputs":[{"name":"player","type":"address","indexed":false,"internalType":"address"},{"name":"streakLength","type":"uint256","indexed":false,"internalType":"uint256"},{"name":"rewardPoints","type":"uint256","indexed":false,"internalType":"uint256"}],"anonymous":false},{"type":"event","name":"UsernameSet","inputs":[{"name":"player","type":"address","indexed":false,"internalType":"address"},{"name":"username","type":"string","indexed":false,"internalType":"string"}],"anonymous":false},{"type":"error","name":"AlreadyPredicted","inputs":[]},{"type":"error","name":"CoreTransferFailed","inputs":[]},{"type":"error","name":"DeadlineNotReached","inputs":[]},{"type":"error","name":"InvalidAnswer","inputs":[]},{"type":"error","name":"InvalidCorrectAnswer","inputs":[]},{"type":"error","name":"InvalidQuestionID","inputs":[]},{"type":"error","name":"InvalidStakeAmount","inputs":[]},{"type":"error","name":"MaxQuestionsReached","inputs":[]},{"type":"error","name":"OnlyOwner","inputs":[]},{"type":"error","name":"PredictionPeriodEnded","inputs":[]},{"type":"error","name":"ResolutionWindowExpired","inputs":[]},{"type":"error","name":"ResultAlreadySet","inputs":[]},{"type":"error","name":"TimeLimitExpired","inputs":[]},{"type":"error","name":"TimeLimitInvalid","inputs":[]},{"type":"error","name":"UsernameEmpty","inputs":[]},{"type":"error","name":"UsernameTaken","inputs":[]}],"bytecode":{"object":"0x6080604052348015600e575f5ffd5b50335f5f6101000a81548173ffffffffffffffffffffffffffffffffffffffff021916908373ffffffffffffffffffffffffffffffffffffffff1602179055506001600481905550613380806100635f395ff3fe608060405260043610610108575f3560e01c80638da5cb5b11610094578063c8dd6ce711610063578063c8dd6ce71461035d578063cacf1b5114610399578063dea3e42d146103c1578063e2eb41ff146103eb578063ed59313a1461042b57610108565b80638da5cb5b146102b1578063a2462712146102db578063aca4ed8414610305578063bf3683991461032157610108565b806331b1b978116100db57806331b1b978146101c657806359d85553146102095780636d763a6e146102335780637c3210f41461025f5780637d7adffa1461028757610108565b80630544ce5e1461010c5780630da183d614610148578063108eeb201461017257806315da65a51461019c575b5f5ffd5b348015610117575f5ffd5b50610132600480360381019061012d91906122a0565b610453565b60405161013f919061230a565b60405180910390f35b348015610153575f5ffd5b5061015c61048e565b6040516101699190612332565b60405180910390f35b34801561017d575f5ffd5b50610186610493565b6040516101939190612332565b60405180910390f35b3480156101a7575f5ffd5b506101b0610498565b6040516101bd9190612332565b60405180910390f35b3480156101d1575f5ffd5b506101ec60048036038101906101e791906122a0565b61049e565b6040516102009897969594939291906123d5565b60405180910390f35b348015610214575f5ffd5b5061021d610574565b60405161022a9190612332565b60405180910390f35b34801561023e575f5ffd5b50610247610579565b604051610256939291906126c9565b60405180910390f35b34801561026a575f5ffd5b506102856004803603810190610280919061290f565b6108eb565b005b348015610292575f5ffd5b5061029b610ad9565b6040516102a89190612332565b60405180910390f35b3480156102bc575f5ffd5b506102c5610ade565b6040516102d2919061230a565b60405180910390f35b3480156102e6575f5ffd5b506102ef610b02565b6040516102fc9190612332565b60405180910390f35b61031f600480360381019061031a91906129be565b610b08565b005b34801561032c575f5ffd5b50610347600480360381019061034291906122a0565b610f9a565b604051610354919061230a565b60405180910390f35b348015610368575f5ffd5b50610383600480360381019061037e9190612a26565b610fd5565b6040516103909190612be8565b60405180910390f35b3480156103a4575f5ffd5b506103bf60048036038101906103ba91906129be565b6111c1565b005b3480156103cc575f5ffd5b506103d5611420565b6040516103e29190612332565b60405180910390f35b3480156103f6575f5ffd5b50610411600480360381019061040c9190612a26565b611425565b604051610422959493929190612c08565b60405180910390f35b348015610436575f5ffd5b50610451600480360381019061044c9190612c60565b6114fc565b005b60038181548110610462575f80fd5b905f5260205f20015f915054906101000a900473ffffffffffffffffffffffffffffffffffffffff1681565b600481565b600a81565b60045481565b6001602052805f5260405f205f91509050805f0180546104bd90612cd4565b80601f01602080910402602001604051908101604052809291908181526020018280546104e990612cd4565b80156105345780601f1061050b57610100808354040283529160200191610534565b820191905f5260205f20905b81548152906001019060200180831161051757829003601f168201915b50505050509080600501549080600601549080600701549080600801549080600901549080600a015f9054906101000a900460ff169080600b0154905088565b600381565b60608060605f60058054905067ffffffffffffffff81111561059e5761059d61271b565b5b6040519080825280602002602001820160405280156105cc5781602001602082028036833780820191505090505b5090505f60058054905067ffffffffffffffff8111156105ef576105ee61271b565b5b60405190808252806020026020018201604052801561062257816020015b606081526020019060019003908161060d5790505b5090505f60058054905067ffffffffffffffff8111156106455761064461271b565b5b6040519080825280602002602001820160405280156106735781602001602082028036833780820191505090505b5090505f5f90505b6005805490508110156108d9576005818154811061069c5761069b612d04565b5b905f5260205f20015f9054906101000a900473ffffffffffffffffffffffffffffffffffffffff168482815181106106d7576106d6612d04565b5b602002602001019073ffffffffffffffffffffffffffffffffffffffff16908173ffffffffffffffffffffffffffffffffffffffff168152505060025f6005838154811061072857610727612d04565b5b905f5260205f20015f9054906101000a900473ffffffffffffffffffffffffffffffffffffffff1673ffffffffffffffffffffffffffffffffffffffff1673ffffffffffffffffffffffffffffffffffffffff1681526020019081526020015f20600101805461079790612cd4565b80601f01602080910402602001604051908101604052809291908181526020018280546107c390612cd4565b801561080e5780601f106107e55761010080835404028352916020019161080e565b820191905f5260205f20905b8154815290600101906020018083116107f157829003601f168201915b505050505083828151811061082657610825612d04565b5b602002602001018190525060025f6005838154811061084857610847612d04565b5b905f5260205f20015f9054906101000a900473ffffffffffffffffffffffffffffffffffffffff1673ffffffffffffffffffffffffffffffffffffffff1673ffffffffffffffffffffffffffffffffffffffff1681526020019081526020015f20600201548282815181106108c0576108bf612d04565b5b602002602001018181525050808060010191505061067b565b50828282955095509550505050909192565b5f5f9054906101000a900473ffffffffffffffffffffffffffffffffffffffff1673ffffffffffffffffffffffffffffffffffffffff163373ffffffffffffffffffffffffffffffffffffffff1614610970576040517f5fc483c500000000000000000000000000000000000000000000000000000000815260040160405180910390fd5b600a60045411156109ad576040517f9abecf8900000000000000000000000000000000000000000000000000000000815260040160405180910390fd5b5f81036109e6576040517fe87da8d900000000000000000000000000000000000000000000000000000000815260040160405180910390fd5b5f60015f60045481526020019081526020015f20905085815f019081610a0c9190612ed1565b508481600101906004610a209291906120ff565b50428160060181905550610e1084610a389190612fcd565b42610a43919061300e565b8160070181905550610e1083610a599190612fcd565b8160070154610a68919061300e565b81600801819055508181600901819055507f0f322d7ea2998df6f242d39c4f338a40f6cd61cdc2fa71694af6da1f2ed0831260045487868686604051610ab2959493929190613041565b60405180910390a160045f815480929190610acc90613099565b9190505550505050505050565b600a81565b5f5f9054906101000a900473ffffffffffffffffffffffffffffffffffffffff1681565b60065481565b815f81111580610b19575060045481115b15610b50576040517f6296052400000000000000000000000000000000000000000000000000000000815260040160405180910390fd5b5f60015f8581526020019081526020015f20905080600701544210610ba1576040517fb53b70f700000000000000000000000000000000000000000000000000000000815260040160405180910390fd5b80600901548160060154610bb5919061300e565b421115610bee576040517f34f8517a00000000000000000000000000000000000000000000000000000000815260040160405180910390fd5b5f831480610bfc5750600483115b15610c33576040517fb5f71a2e00000000000000000000000000000000000000000000000000000000815260040160405180910390fd5b5f81600d015f3373ffffffffffffffffffffffffffffffffffffffff1673ffffffffffffffffffffffffffffffffffffffff1681526020019081526020015f205414610cab576040517f3b9e91cf00000000000000000000000000000000000000000000000000000000815260040160405180910390fd5b5f3403610ce4576040517f040ef8ec00000000000000000000000000000000000000000000000000000000815260040160405180910390fd5b5f73ffffffffffffffffffffffffffffffffffffffff1660025f3373ffffffffffffffffffffffffffffffffffffffff1673ffffffffffffffffffffffffffffffffffffffff1681526020019081526020015f205f015f9054906101000a900473ffffffffffffffffffffffffffffffffffffffff1673ffffffffffffffffffffffffffffffffffffffff1603610e53573360025f3373ffffffffffffffffffffffffffffffffffffffff1673ffffffffffffffffffffffffffffffffffffffff1681526020019081526020015f205f015f6101000a81548173ffffffffffffffffffffffffffffffffffffffff021916908373ffffffffffffffffffffffffffffffffffffffff160217905550600333908060018154018082558091505060019003905f5260205f20015f9091909190916101000a81548173ffffffffffffffffffffffffffffffffffffffff021916908373ffffffffffffffffffffffffffffffffffffffff1602179055505b8281600d015f3373ffffffffffffffffffffffffffffffffffffffff1673ffffffffffffffffffffffffffffffffffffffff1681526020019081526020015f20819055503481600c015f3373ffffffffffffffffffffffffffffffffffffffff1673ffffffffffffffffffffffffffffffffffffffff1681526020019081526020015f20819055503481600b015f828254610eee919061300e565b9250508190555080600e0133908060018154018082558091505060019003905f5260205f20015f9091909190916101000a81548173ffffffffffffffffffffffffffffffffffffffff021916908373ffffffffffffffffffffffffffffffffffffffff1602179055507fd7bc80db9e7a8475c41b586c4efb670481b81ad165f08ffb2beb311a5878328f33858534604051610f8c94939291906130e0565b60405180910390a150505050565b60058181548110610fa9575f80fd5b905f5260205f20015f915054906101000a900473ffffffffffffffffffffffffffffffffffffffff1681565b610fdd61214b565b60025f8373ffffffffffffffffffffffffffffffffffffffff1673ffffffffffffffffffffffffffffffffffffffff1681526020019081526020015f206040518060c00160405290815f82015f9054906101000a900473ffffffffffffffffffffffffffffffffffffffff1673ffffffffffffffffffffffffffffffffffffffff1673ffffffffffffffffffffffffffffffffffffffff16815260200160018201805461108990612cd4565b80601f01602080910402602001604051908101604052809291908181526020018280546110b590612cd4565b80156111005780601f106110d757610100808354040283529160200191611100565b820191905f5260205f20905b8154815290600101906020018083116110e357829003601f168201915b5050505050815260200160028201548152602001600382015481526020016004820154815260200160058201805480602002602001604051908101604052809291908181526020015f905b828210156111b2578382905f5260205f2090600402016040518060800160405290815f820154815260200160018201548152602001600282015f9054906101000a900460ff161515151581526020016003820154815250508152602001906001019061114b565b50505050815250509050919050565b5f5f9054906101000a900473ffffffffffffffffffffffffffffffffffffffff1673ffffffffffffffffffffffffffffffffffffffff163373ffffffffffffffffffffffffffffffffffffffff1614611246576040517f5fc483c500000000000000000000000000000000000000000000000000000000815260040160405180910390fd5b815f81111580611257575060045481115b1561128e576040517f6296052400000000000000000000000000000000000000000000000000000000815260040160405180910390fd5b5f60015f8581526020019081526020015f20905080600701544210156112e0576040517f66ec4ee600000000000000000000000000000000000000000000000000000000815260040160405180910390fd5b806008015442111561131e576040517f89da025b00000000000000000000000000000000000000000000000000000000815260040160405180910390fd5b80600a015f9054906101000a900460ff1615611366576040517f6b2b440800000000000000000000000000000000000000000000000000000000815260040160405180910390fd5b5f8314806113745750600483115b156113ab576040517f1021d5e900000000000000000000000000000000000000000000000000000000815260040160405180910390fd5b828160050181905550600181600a015f6101000a81548160ff0219169083151502179055506113d98461181e565b6113e1611dfb565b7f372f04348744399b80b497711376882c2eb7003d29e800a7c52a8356592175868484604051611412929190613123565b60405180910390a150505050565b603281565b6002602052805f5260405f205f91509050805f015f9054906101000a900473ffffffffffffffffffffffffffffffffffffffff169080600101805461146990612cd4565b80601f016020809104026020016040519081016040528092919081815260200182805461149590612cd4565b80156114e05780601f106114b7576101008083540402835291602001916114e0565b820191905f5260205f20905b8154815290600101906020018083116114c357829003601f168201915b5050505050908060020154908060030154908060040154905085565b5f815103611536576040517f16d1737600000000000000000000000000000000000000000000000000000000815260040160405180910390fd5b5f5f90505b60038054905081101561162457818051906020012060025f6003848154811061156757611566612d04565b5b905f5260205f20015f9054906101000a900473ffffffffffffffffffffffffffffffffffffffff1673ffffffffffffffffffffffffffffffffffffffff1673ffffffffffffffffffffffffffffffffffffffff1681526020019081526020015f206001016040516115d891906131e6565b604051809103902003611617576040517f6bc324ad00000000000000000000000000000000000000000000000000000000815260040160405180910390fd5b808060010191505061153b565b505f73ffffffffffffffffffffffffffffffffffffffff1660025f3373ffffffffffffffffffffffffffffffffffffffff1673ffffffffffffffffffffffffffffffffffffffff1681526020019081526020015f205f015f9054906101000a900473ffffffffffffffffffffffffffffffffffffffff1673ffffffffffffffffffffffffffffffffffffffff1603611794573360025f3373ffffffffffffffffffffffffffffffffffffffff1673ffffffffffffffffffffffffffffffffffffffff1681526020019081526020015f205f015f6101000a81548173ffffffffffffffffffffffffffffffffffffffff021916908373ffffffffffffffffffffffffffffffffffffffff160217905550600333908060018154018082558091505060019003905f5260205f20015f9091909190916101000a81548173ffffffffffffffffffffffffffffffffffffffff021916908373ffffffffffffffffffffffffffffffffffffffff1602179055505b8060025f3373ffffffffffffffffffffffffffffffffffffffff1673ffffffffffffffffffffffffffffffffffffffff1681526020019081526020015f2060010190816117e19190612ed1565b507f74d8e560d2e870c35b35dc882df2a5c96e2bf1cdb5ef6dd2f9cb433c8d04885333826040516118139291906131fc565b60405180910390a150565b5f60015f8381526020019081526020015f2090505f5f5f5f90505b83600e018054905081101561193d575f84600e01828154811061185f5761185e612d04565b5b905f5260205f20015f9054906101000a900473ffffffffffffffffffffffffffffffffffffffff169050846005015485600d015f8373ffffffffffffffffffffffffffffffffffffffff1673ffffffffffffffffffffffffffffffffffffffff1681526020019081526020015f20540361192f5783806118de90613099565b94505084600c015f8273ffffffffffffffffffffffffffffffffffffffff1673ffffffffffffffffffffffffffffffffffffffff1681526020019081526020015f20548361192c919061300e565b92505b508080600101915050611839565b505f820361194d57505050611df8565b5f5f90505b83600e0180549050811015611df3575f84600e01828154811061197857611977612d04565b5b905f5260205f20015f9054906101000a900473ffffffffffffffffffffffffffffffffffffffff1690505f60025f8373ffffffffffffffffffffffffffffffffffffffff1673ffffffffffffffffffffffffffffffffffffffff1681526020019081526020015f209050856005015486600d015f8473ffffffffffffffffffffffffffffffffffffffff1673ffffffffffffffffffffffffffffffffffffffff1681526020019081526020015f205403611d11575f86600c015f8473ffffffffffffffffffffffffffffffffffffffff1673ffffffffffffffffffffffffffffffffffffffff1681526020019081526020015f205490505f8588600b015483611a819190612fcd565b611a8b9190613257565b9050826003015f815480929190611aa190613099565b9190505550826004015f815480929190611aba90613099565b9190505550600a836002015f828254611ad3919061300e565b925050819055505f60038460040154611aec9190613287565b03611b4d576032836002015f828254611b05919061300e565b925050819055507ffbdafbbc14774062bbd11c772b5079b5f04e8abe9cbdbf1a7920a642b748f9f98484600401546032604051611b44939291906132b7565b60405180910390a15b80836002015f828254611b60919061300e565b925050819055508260050160405180608001604052808b81526020018a600d015f8873ffffffffffffffffffffffffffffffffffffffff1673ffffffffffffffffffffffffffffffffffffffff1681526020019081526020015f2054815260200160011515815260200142815250908060018154018082558091505060019003905f5260205f2090600402015f909190919091505f820151815f0155602082015181600101556040820151816002015f6101000a81548160ff0219169083151502179055506060820151816003015550505f8473ffffffffffffffffffffffffffffffffffffffff1682604051611c569061330f565b5f6040518083038185875af1925050503d805f8114611c90576040519150601f19603f3d011682016040523d82523d5f602084013e611c95565b606091505b5050905080611cd0576040517f3ae6ac5d00000000000000000000000000000000000000000000000000000000815260040160405180910390fd5b7fe34918ff1c7084970068b53fd71ad6d8b04e9f15d3886cbf006443e6cdc52ea68583604051611d01929190613323565b60405180910390a1505050611de4565b5f816004018190555080600501604051806080016040528089815260200188600d015f8673ffffffffffffffffffffffffffffffffffffffff1673ffffffffffffffffffffffffffffffffffffffff1681526020019081526020015f205481526020015f1515815260200142815250908060018154018082558091505060019003905f5260205f2090600402015f909190919091505f820151815f0155602082015181600101556040820151816002015f6101000a81548160ff0219169083151502179055506060820151816003015550505b50508080600101915050611952565b505050505b50565b5f5f90505b600380549050811015612074575f600182611e1b919061300e565b90505b6003805490508110156120665760025f60038381548110611e4257611e41612d04565b5b905f5260205f20015f9054906101000a900473ffffffffffffffffffffffffffffffffffffffff1673ffffffffffffffffffffffffffffffffffffffff1673ffffffffffffffffffffffffffffffffffffffff1681526020019081526020015f206002015460025f60038581548110611ebe57611ebd612d04565b5b905f5260205f20015f9054906101000a900473ffffffffffffffffffffffffffffffffffffffff1673ffffffffffffffffffffffffffffffffffffffff1673ffffffffffffffffffffffffffffffffffffffff1681526020019081526020015f20600201541015612059575f60038381548110611f3e57611f3d612d04565b5b905f5260205f20015f9054906101000a900473ffffffffffffffffffffffffffffffffffffffff16905060038281548110611f7c57611f7b612d04565b5b905f5260205f20015f9054906101000a900473ffffffffffffffffffffffffffffffffffffffff1660038481548110611fb857611fb7612d04565b5b905f5260205f20015f6101000a81548173ffffffffffffffffffffffffffffffffffffffff021916908373ffffffffffffffffffffffffffffffffffffffff160217905550806003838154811061201257612011612d04565b5b905f5260205f20015f6101000a81548173ffffffffffffffffffffffffffffffffffffffff021916908373ffffffffffffffffffffffffffffffffffffffff160217905550505b8080600101915050611e1e565b508080600101915050611e00565b50606460038054905011156120e3575f606490505b6003805490508110156120e157600381815481106120aa576120a9612d04565b5b905f5260205f20015f6101000a81549073ffffffffffffffffffffffffffffffffffffffff02191690558080600101915050612089565b505b600360059080546120f5929190612193565b5042600681905550565b826004810192821561213a579160200282015b828111156121395782518290816121299190612ed1565b5091602001919060010190612112565b5b50905061214791906121e1565b5090565b6040518060c001604052805f73ffffffffffffffffffffffffffffffffffffffff168152602001606081526020015f81526020015f81526020015f8152602001606081525090565b828054828255905f5260205f209081019282156121d0575f5260205f209182015b828111156121cf5782548255916001019190600101906121b4565b5b5090506121dd9190612204565b5090565b5b80821115612200575f81816121f7919061221f565b506001016121e2565b5090565b5b8082111561221b575f815f905550600101612205565b5090565b50805461222b90612cd4565b5f825580601f1061223c5750612259565b601f0160209004905f5260205f20908101906122589190612204565b5b50565b5f604051905090565b5f5ffd5b5f5ffd5b5f819050919050565b61227f8161226d565b8114612289575f5ffd5b50565b5f8135905061229a81612276565b92915050565b5f602082840312156122b5576122b4612265565b5b5f6122c28482850161228c565b91505092915050565b5f73ffffffffffffffffffffffffffffffffffffffff82169050919050565b5f6122f4826122cb565b9050919050565b612304816122ea565b82525050565b5f60208201905061231d5f8301846122fb565b92915050565b61232c8161226d565b82525050565b5f6020820190506123455f830184612323565b92915050565b5f81519050919050565b5f82825260208201905092915050565b8281835e5f83830152505050565b5f601f19601f8301169050919050565b5f61238d8261234b565b6123978185612355565b93506123a7818560208601612365565b6123b081612373565b840191505092915050565b5f8115159050919050565b6123cf816123bb565b82525050565b5f610100820190508181035f8301526123ee818b612383565b90506123fd602083018a612323565b61240a6040830189612323565b6124176060830188612323565b6124246080830187612323565b61243160a0830186612323565b61243e60c08301856123c6565b61244b60e0830184612323565b9998505050505050505050565b5f81519050919050565b5f82825260208201905092915050565b5f819050602082019050919050565b61248a816122ea565b82525050565b5f61249b8383612481565b60208301905092915050565b5f602082019050919050565b5f6124bd82612458565b6124c78185612462565b93506124d283612472565b805f5b838110156125025781516124e98882612490565b97506124f4836124a7565b9250506001810190506124d5565b5085935050505092915050565b5f81519050919050565b5f82825260208201905092915050565b5f819050602082019050919050565b5f82825260208201905092915050565b5f6125528261234b565b61255c8185612538565b935061256c818560208601612365565b61257581612373565b840191505092915050565b5f61258b8383612548565b905092915050565b5f602082019050919050565b5f6125a98261250f565b6125b38185612519565b9350836020820285016125c585612529565b805f5b8581101561260057848403895281516125e18582612580565b94506125ec83612593565b925060208a019950506001810190506125c8565b50829750879550505050505092915050565b5f81519050919050565b5f82825260208201905092915050565b5f819050602082019050919050565b6126448161226d565b82525050565b5f612655838361263b565b60208301905092915050565b5f602082019050919050565b5f61267782612612565b612681818561261c565b935061268c8361262c565b805f5b838110156126bc5781516126a3888261264a565b97506126ae83612661565b92505060018101905061268f565b5085935050505092915050565b5f6060820190508181035f8301526126e181866124b3565b905081810360208301526126f5818561259f565b90508181036040830152612709818461266d565b9050949350505050565b5f5ffd5b5f5ffd5b7f4e487b71000000000000000000000000000000000000000000000000000000005f52604160045260245ffd5b61275182612373565b810181811067ffffffffffffffff821117156127705761276f61271b565b5b80604052505050565b5f61278261225c565b905061278e8282612748565b919050565b5f67ffffffffffffffff8211156127ad576127ac61271b565b5b6127b682612373565b9050602081019050919050565b828183375f83830152505050565b5f6127e36127de84612793565b612779565b9050828152602081018484840111156127ff576127fe612717565b5b61280a8482856127c3565b509392505050565b5f82601f83011261282657612825612713565b5b81356128368482602086016127d1565b91505092915050565b5f67ffffffffffffffff8211156128595761285861271b565b5b602082029050919050565b5f5ffd5b5f61287a6128758461283f565b612779565b9050806020840283018581111561289457612893612864565b5b835b818110156128db57803567ffffffffffffffff8111156128b9576128b8612713565b5b8086016128c68982612812565b85526020850194505050602081019050612896565b5050509392505050565b5f82601f8301126128f9576128f8612713565b5b6004612906848285612868565b91505092915050565b5f5f5f5f5f60a0868803121561292857612927612265565b5b5f86013567ffffffffffffffff81111561294557612944612269565b5b61295188828901612812565b955050602086013567ffffffffffffffff81111561297257612971612269565b5b61297e888289016128e5565b945050604061298f8882890161228c565b93505060606129a08882890161228c565b92505060806129b18882890161228c565b9150509295509295909350565b5f5f604083850312156129d4576129d3612265565b5b5f6129e18582860161228c565b92505060206129f28582860161228c565b9150509250929050565b612a05816122ea565b8114612a0f575f5ffd5b50565b5f81359050612a20816129fc565b92915050565b5f60208284031215612a3b57612a3a612265565b5b5f612a4884828501612a12565b91505092915050565b5f81519050919050565b5f82825260208201905092915050565b5f819050602082019050919050565b612a83816123bb565b82525050565b608082015f820151612a9d5f85018261263b565b506020820151612ab0602085018261263b565b506040820151612ac36040850182612a7a565b506060820151612ad6606085018261263b565b50505050565b5f612ae78383612a89565b60808301905092915050565b5f602082019050919050565b5f612b0982612a51565b612b138185612a5b565b9350612b1e83612a6b565b805f5b83811015612b4e578151612b358882612adc565b9750612b4083612af3565b925050600181019050612b21565b5085935050505092915050565b5f60c083015f830151612b705f860182612481565b5060208301518482036020860152612b888282612548565b9150506040830151612b9d604086018261263b565b506060830151612bb0606086018261263b565b506080830151612bc3608086018261263b565b5060a083015184820360a0860152612bdb8282612aff565b9150508091505092915050565b5f6020820190508181035f830152612c008184612b5b565b905092915050565b5f60a082019050612c1b5f8301886122fb565b8181036020830152612c2d8187612383565b9050612c3c6040830186612323565b612c496060830185612323565b612c566080830184612323565b9695505050505050565b5f60208284031215612c7557612c74612265565b5b5f82013567ffffffffffffffff811115612c9257612c91612269565b5b612c9e84828501612812565b91505092915050565b7f4e487b71000000000000000000000000000000000000000000000000000000005f52602260045260245ffd5b5f6002820490506001821680612ceb57607f821691505b602082108103612cfe57612cfd612ca7565b5b50919050565b7f4e487b71000000000000000000000000000000000000000000000000000000005f52603260045260245ffd5b5f819050815f5260205f209050919050565b5f6020601f8301049050919050565b5f82821b905092915050565b5f60088302612d8d7fffffffffffffffffffffffffffffffffffffffffffffffffffffffffffffffff82612d52565b612d978683612d52565b95508019841693508086168417925050509392505050565b5f819050919050565b5f612dd2612dcd612dc88461226d565b612daf565b61226d565b9050919050565b5f819050919050565b612deb83612db8565b612dff612df782612dd9565b848454612d5e565b825550505050565b5f5f905090565b612e16612e07565b612e21818484612de2565b505050565b5b81811015612e4457612e395f82612e0e565b600181019050612e27565b5050565b601f821115612e8957612e5a81612d31565b612e6384612d43565b81016020851015612e72578190505b612e86612e7e85612d43565b830182612e26565b50505b505050565b5f82821c905092915050565b5f612ea95f1984600802612e8e565b1980831691505092915050565b5f612ec18383612e9a565b9150826002028217905092915050565b612eda8261234b565b67ffffffffffffffff811115612ef357612ef261271b565b5b612efd8254612cd4565b612f08828285612e48565b5f60209050601f831160018114612f39575f8415612f27578287015190505b612f318582612eb6565b865550612f98565b601f198416612f4786612d31565b5f5b82811015612f6e57848901518255600182019150602085019450602081019050612f49565b86831015612f8b5784890151612f87601f891682612e9a565b8355505b6001600288020188555050505b505050505050565b7f4e487b71000000000000000000000000000000000000000000000000000000005f52601160045260245ffd5b5f612fd78261226d565b9150612fe28361226d565b9250828202612ff08161226d565b9150828204841483151761300757613006612fa0565b5b5092915050565b5f6130188261226d565b91506130238361226d565b925082820190508082111561303b5761303a612fa0565b5b92915050565b5f60a0820190506130545f830188612323565b81810360208301526130668187612383565b90506130756040830186612323565b6130826060830185612323565b61308f6080830184612323565b9695505050505050565b5f6130a38261226d565b91507fffffffffffffffffffffffffffffffffffffffffffffffffffffffffffffffff82036130d5576130d4612fa0565b5b600182019050919050565b5f6080820190506130f35f8301876122fb565b6131006020830186612323565b61310d6040830185612323565b61311a6060830184612323565b95945050505050565b5f6040820190506131365f830185612323565b6131436020830184612323565b9392505050565b5f81905092915050565b5f819050815f5260205f209050919050565b5f815461317281612cd4565b61317c818661314a565b9450600182165f811461319657600181146131ab576131dd565b60ff19831686528115158202860193506131dd565b6131b485613154565b5f5b838110156131d5578154818901526001820191506020810190506131b6565b838801955050505b50505092915050565b5f6131f18284613166565b915081905092915050565b5f60408201905061320f5f8301856122fb565b81810360208301526132218184612383565b90509392505050565b7f4e487b71000000000000000000000000000000000000000000000000000000005f52601260045260245ffd5b5f6132618261226d565b915061326c8361226d565b92508261327c5761327b61322a565b5b828204905092915050565b5f6132918261226d565b915061329c8361226d565b9250826132ac576132ab61322a565b5b828206905092915050565b5f6060820190506132ca5f8301866122fb565b6132d76020830185612323565b6132e46040830184612323565b949350505050565b50565b5f6132fa5f8361314a565b9150613305826132ec565b5f82019050919050565b5f613319826132ef565b9150819050919050565b5f6040820190506133365f8301856122fb565b6133436020830184612323565b939250505056fea2646970667358221220f535b4089db7e077acff6a631ef4130791d1c6d5b3bb0c3800579b4b13c4ca8e64736f6c634300081c0033","linkReferences":{}},"methodIdentifiers":{"MAX_OPTIONS()":"0da183d6","POINTS_PER_CORRECT_ANSWER()":"108eeb20","QUESTIONS_PER_GAME()":"7d7adffa","STREAK_LENGTH()":"59d85553","STREAK_REWARD_POINTS()":"dea3e42d","allPlayers(uint256)":"0544ce5e","createQuestion(string,string[4],uint256,uint256,uint256)":"7c3210f4","currentQuestionId()":"15da65a5","getLeaderboard()":"6d763a6e","getPlayerDetails(address)":"c8dd6ce7","lastLeaderboardUpdate()":"a2462712","leaderboard(uint256)":"bf368399","owner()":"8da5cb5b","players(address)":"e2eb41ff","predict(uint256,uint256)":"aca4ed84","questions(uint256)":"31b1b978","resolveQuestion(uint256,uint256)":"cacf1b51","setUsername(string)":"ed59313a"},"id":17}