{
  "_format": "hh-sol-artifact-1",
  "contractName": "GuessGame",
  "sourceName": "contracts/Guess.sol",
  "abi": [
    {
      "inputs": [],
      "stateMutability": "nonpayable",
      "type": "constructor"
    },
    {
      "anonymous": false,
      "inputs": [
        {
          "indexed": false,
          "internalType": "uint256",
          "name": "gameId",
          "type": "uint256"
        }
      ],
      "name": "GameFinished",
      "type": "event"
    },
    {
      "anonymous": false,
      "inputs": [
        {
          "indexed": true,
          "internalType": "address",
          "name": "player",
          "type": "address"
        },
        {
          "indexed": false,
          "internalType": "uint256",
          "name": "totalCorrect",
          "type": "uint256"
        },
        {
          "indexed": false,
          "internalType": "uint256",
          "name": "totalPoints",
          "type": "uint256"
        }
      ],
      "name": "PointsUpdated",
      "type": "event"
    },
    {
      "anonymous": false,
      "inputs": [
        {
          "indexed": true,
          "internalType": "address",
          "name": "player",
          "type": "address"
        },
        {
          "indexed": false,
          "internalType": "uint256[10]",
          "name": "answers",
          "type": "uint256[10]"
        }
      ],
      "name": "PredictionsSubmitted",
      "type": "event"
    },
    {
      "anonymous": false,
      "inputs": [
        {
          "indexed": true,
          "internalType": "address",
          "name": "player",
          "type": "address"
        },
        {
          "indexed": false,
          "internalType": "uint256[10]",
          "name": "correctAnswers",
          "type": "uint256[10]"
        }
      ],
      "name": "ResultsGenerated",
      "type": "event"
    },
    {
      "anonymous": false,
      "inputs": [
        {
          "indexed": true,
          "internalType": "address",
          "name": "player",
          "type": "address"
        },
        {
          "indexed": false,
          "internalType": "uint256",
          "name": "amount",
          "type": "uint256"
        }
      ],
      "name": "StakeWithdrawn",
      "type": "event"
    },
    {
      "anonymous": false,
      "inputs": [
        {
          "indexed": false,
          "internalType": "address",
          "name": "player",
          "type": "address"
        },
        {
          "indexed": false,
          "internalType": "uint256",
          "name": "streakLength",
          "type": "uint256"
        },
        {
          "indexed": false,
          "internalType": "uint256",
          "name": "rewardPoints",
          "type": "uint256"
        }
      ],
      "name": "StreakReward",
      "type": "event"
    },
    {
      "anonymous": false,
      "inputs": [
        {
          "indexed": false,
          "internalType": "address",
          "name": "player",
          "type": "address"
        },
        {
          "indexed": false,
          "internalType": "string",
          "name": "username",
          "type": "string"
        }
      ],
      "name": "UsernameSet",
      "type": "event"
    },
    {
      "inputs": [],
      "name": "POINTS_PER_CORRECT_ANSWER",
      "outputs": [
        {
          "internalType": "uint256",
          "name": "",
          "type": "uint256"
        }
      ],
      "stateMutability": "view",
      "type": "function"
    },
    {
      "inputs": [],
      "name": "QUESTIONS_PER_GAME",
      "outputs": [
        {
          "internalType": "uint256",
          "name": "",
          "type": "uint256"
        }
      ],
      "stateMutability": "view",
      "type": "function"
    },
    {
      "inputs": [],
      "name": "STREAK_LENGTH",
      "outputs": [
        {
          "internalType": "uint256",
          "name": "",
          "type": "uint256"
        }
      ],
      "stateMutability": "view",
      "type": "function"
    },
    {
      "inputs": [],
      "name": "STREAK_REWARD_POINTS",
      "outputs": [
        {
          "internalType": "uint256",
          "name": "",
          "type": "uint256"
        }
      ],
      "stateMutability": "view",
      "type": "function"
    },
    {
      "inputs": [
        {
          "internalType": "uint256",
          "name": "",
          "type": "uint256"
        }
      ],
      "name": "allPlayers",
      "outputs": [
        {
          "internalType": "address",
          "name": "",
          "type": "address"
        }
      ],
      "stateMutability": "view",
      "type": "function"
    },
    {
      "inputs": [
        {
          "internalType": "address",
          "name": "",
          "type": "address"
        },
        {
          "internalType": "uint256",
          "name": "",
          "type": "uint256"
        }
      ],
      "name": "correctAnswers",
      "outputs": [
        {
          "internalType": "uint256",
          "name": "",
          "type": "uint256"
        }
      ],
      "stateMutability": "view",
      "type": "function"
    },
    {
      "inputs": [],
      "name": "currentGameId",
      "outputs": [
        {
          "internalType": "uint256",
          "name": "",
          "type": "uint256"
        }
      ],
      "stateMutability": "view",
      "type": "function"
    },
    {
      "inputs": [],
      "name": "finishGame",
      "outputs": [],
      "stateMutability": "nonpayable",
      "type": "function"
    },
    {
      "inputs": [
        {
          "internalType": "uint256",
          "name": "",
          "type": "uint256"
        },
        {
          "internalType": "uint256",
          "name": "",
          "type": "uint256"
        }
      ],
      "name": "gameResults",
      "outputs": [
        {
          "internalType": "address",
          "name": "player",
          "type": "address"
        },
        {
          "internalType": "uint256",
          "name": "correctAnswers",
          "type": "uint256"
        },
        {
          "internalType": "uint256",
          "name": "totalPoints",
          "type": "uint256"
        }
      ],
      "stateMutability": "view",
      "type": "function"
    },
    {
      "inputs": [
        {
          "internalType": "uint256",
          "name": "gameId",
          "type": "uint256"
        }
      ],
      "name": "getGameLeaderboard",
      "outputs": [
        {
          "components": [
            {
              "internalType": "address",
              "name": "player",
              "type": "address"
            },
            {
              "internalType": "uint256",
              "name": "correctAnswers",
              "type": "uint256"
            },
            {
              "internalType": "uint256",
              "name": "totalPoints",
              "type": "uint256"
            }
          ],
          "internalType": "struct GuessGame.GameResult[]",
          "name": "",
          "type": "tuple[]"
        }
      ],
      "stateMutability": "view",
      "type": "function"
    },
    {
      "inputs": [],
      "name": "getGlobalLeaderboard",
      "outputs": [
        {
          "internalType": "address[]",
          "name": "",
          "type": "address[]"
        }
      ],
      "stateMutability": "view",
      "type": "function"
    },
    {
      "inputs": [
        {
          "internalType": "address",
          "name": "playerAddress",
          "type": "address"
        }
      ],
      "name": "getPlayerDetails",
      "outputs": [
        {
          "components": [
            {
              "internalType": "address",
              "name": "playerAddress",
              "type": "address"
            },
            {
              "internalType": "string",
              "name": "username",
              "type": "string"
            },
            {
              "internalType": "uint256",
              "name": "totalPoints",
              "type": "uint256"
            },
            {
              "internalType": "uint256",
              "name": "totalCorrect",
              "type": "uint256"
            },
            {
              "internalType": "uint256",
              "name": "currentStreak",
              "type": "uint256"
            },
            {
              "internalType": "uint256",
              "name": "stakedAmount",
              "type": "uint256"
            },
            {
              "internalType": "bool",
              "name": "hasPlayed",
              "type": "bool"
            }
          ],
          "internalType": "struct GuessGame.Player",
          "name": "",
          "type": "tuple"
        }
      ],
      "stateMutability": "view",
      "type": "function"
    },
    {
      "inputs": [
        {
          "internalType": "uint256",
          "name": "",
          "type": "uint256"
        }
      ],
      "name": "globalLeaderboard",
      "outputs": [
        {
          "internalType": "address",
          "name": "",
          "type": "address"
        }
      ],
      "stateMutability": "view",
      "type": "function"
    },
    {
      "inputs": [],
      "name": "owner",
      "outputs": [
        {
          "internalType": "address",
          "name": "",
          "type": "address"
        }
      ],
      "stateMutability": "view",
      "type": "function"
    },
    {
      "inputs": [
        {
          "internalType": "address",
          "name": "",
          "type": "address"
        }
      ],
      "name": "players",
      "outputs": [
        {
          "internalType": "address",
          "name": "playerAddress",
          "type": "address"
        },
        {
          "internalType": "string",
          "name": "username",
          "type": "string"
        },
        {
          "internalType": "uint256",
          "name": "totalPoints",
          "type": "uint256"
        },
        {
          "internalType": "uint256",
          "name": "totalCorrect",
          "type": "uint256"
        },
        {
          "internalType": "uint256",
          "name": "currentStreak",
          "type": "uint256"
        },
        {
          "internalType": "uint256",
          "name": "stakedAmount",
          "type": "uint256"
        },
        {
          "internalType": "bool",
          "name": "hasPlayed",
          "type": "bool"
        }
      ],
      "stateMutability": "view",
      "type": "function"
    },
    {
      "inputs": [
        {
          "internalType": "address",
          "name": "",
          "type": "address"
        }
      ],
      "name": "resultsGenerated",
      "outputs": [
        {
          "internalType": "bool",
          "name": "",
          "type": "bool"
        }
      ],
      "stateMutability": "view",
      "type": "function"
    },
    {
      "inputs": [
        {
          "internalType": "string",
          "name": "_username",
          "type": "string"
        }
      ],
      "name": "setUsername",
      "outputs": [],
      "stateMutability": "nonpayable",
      "type": "function"
    },
    {
      "inputs": [
        {
          "internalType": "uint256[10]",
          "name": "answers",
          "type": "uint256[10]"
        }
      ],
      "name": "submitPredictions",
      "outputs": [],
      "stateMutability": "payable",
      "type": "function"
    },
    {
      "inputs": [
        {
          "internalType": "address",
          "name": "",
          "type": "address"
        },
        {
          "internalType": "uint256",
          "name": "",
          "type": "uint256"
        }
      ],
      "name": "userPredictions",
      "outputs": [
        {
          "internalType": "uint256",
          "name": "",
          "type": "uint256"
        }
      ],
      "stateMutability": "view",
      "type": "function"
    },
    {
      "inputs": [],
      "name": "withdrawStake",
      "outputs": [],
      "stateMutability": "nonpayable",
      "type": "function"
    }
  ],
  "bytecode": "0x6080604052348015600f57600080fd5b50336000806101000a81548173ffffffffffffffffffffffffffffffffffffffff021916908373ffffffffffffffffffffffffffffffffffffffff16021790555060018081905550612daa806100666000396000f3fe60806040526004361061011f5760003560e01c80639fecb69f116100a0578063ce9b009d11610064578063ce9b009d146103e0578063dea3e42d1461041d578063e2eb41ff14610448578063ed59313a1461048b578063f6c33179146104b45761011f565b80639fecb69f1461031a578063a0c2043614610331578063b332457514610370578063bed9d8611461038c578063c8dd6ce7146103a35761011f565b8063536a3ddc116100e7578063536a3ddc1461023157806359d855531461025c578063761f430b146102875780637d7adffa146102c45780638da5cb5b146102ef5761011f565b80630544ce5e14610124578063108eeb20146101615780631d5ba17a1461018c578063330ab49a146101b75780634735366c146101f4575b600080fd5b34801561013057600080fd5b5061014b60048036038101906101469190611abe565b6104f1565b6040516101589190611b2c565b60405180910390f35b34801561016d57600080fd5b50610176610530565b6040516101839190611b56565b60405180910390f35b34801561019857600080fd5b506101a1610535565b6040516101ae9190611c2f565b60405180910390f35b3480156101c357600080fd5b506101de60048036038101906101d99190611abe565b6105c3565b6040516101eb9190611b2c565b60405180910390f35b34801561020057600080fd5b5061021b60048036038101906102169190611abe565b610602565b6040516102289190611d51565b60405180910390f35b34801561023d57600080fd5b506102466106de565b6040516102539190611b56565b60405180910390f35b34801561026857600080fd5b506102716106e4565b60405161027e9190611b56565b60405180910390f35b34801561029357600080fd5b506102ae60048036038101906102a99190611d9f565b6106e9565b6040516102bb9190611de7565b60405180910390f35b3480156102d057600080fd5b506102d9610709565b6040516102e69190611b56565b60405180910390f35b3480156102fb57600080fd5b5061030461070e565b6040516103119190611b2c565b60405180910390f35b34801561032657600080fd5b5061032f610732565b005b34801561033d57600080fd5b5061035860048036038101906103539190611e02565b610813565b60405161036793929190611e42565b60405180910390f35b61038a60048036038101906103859190611fc0565b61087a565b005b34801561039857600080fd5b506103a1610a97565b005b3480156103af57600080fd5b506103ca60048036038101906103c59190611d9f565b610c59565b6040516103d79190612118565b60405180910390f35b3480156103ec57600080fd5b506104076004803603810190610402919061213a565b610ddd565b6040516104149190611b56565b60405180910390f35b34801561042957600080fd5b50610432610e05565b60405161043f9190611b56565b60405180910390f35b34801561045457600080fd5b5061046f600480360381019061046a9190611d9f565b610e0a565b60405161048297969594939291906121c4565b60405180910390f35b34801561049757600080fd5b506104b260048036038101906104ad91906122ef565b610f01565b005b3480156104c057600080fd5b506104db60048036038101906104d6919061213a565b611247565b6040516104e89190611b56565b60405180910390f35b6003818154811061050157600080fd5b906000526020600020016000915054906101000a900473ffffffffffffffffffffffffffffffffffffffff1681565b600a81565b606060088054806020026020016040519081016040528092919081815260200182805480156105b957602002820191906000526020600020905b8160009054906101000a900473ffffffffffffffffffffffffffffffffffffffff1673ffffffffffffffffffffffffffffffffffffffff168152602001906001019080831161056f575b5050505050905090565b600881815481106105d357600080fd5b906000526020600020016000915054906101000a900473ffffffffffffffffffffffffffffffffffffffff1681565b606060046000838152602001908152602001600020805480602002602001604051908101604052809291908181526020016000905b828210156106d357838290600052602060002090600302016040518060600160405290816000820160009054906101000a900473ffffffffffffffffffffffffffffffffffffffff1673ffffffffffffffffffffffffffffffffffffffff1673ffffffffffffffffffffffffffffffffffffffff1681526020016001820154815260200160028201548152505081526020019060010190610637565b505050509050919050565b60015481565b600381565b60076020528060005260406000206000915054906101000a900460ff1681565b600a81565b60008054906101000a900473ffffffffffffffffffffffffffffffffffffffff1681565b60008054906101000a900473ffffffffffffffffffffffffffffffffffffffff1673ffffffffffffffffffffffffffffffffffffffff163373ffffffffffffffffffffffffffffffffffffffff16146107c0576040517f08c379a00000000000000000000000000000000000000000000000000000000081526004016107b790612384565b60405180910390fd5b600160008154809291906107d3906123d3565b91905055507f6543ec12c6e53f26532beb5289ef5732dcd77c2e9e9921ae42b695905f5e84c06001546040516108099190611b56565b60405180910390a1565b6004602052816000526040600020818154811061082f57600080fd5b9060005260206000209060030201600091509150508060000160009054906101000a900473ffffffffffffffffffffffffffffffffffffffff16908060010154908060020154905083565b600260003373ffffffffffffffffffffffffffffffffffffffff1673ffffffffffffffffffffffffffffffffffffffff16815260200190815260200160002060060160009054906101000a900460ff161561090a576040517f08c379a000000000000000000000000000000000000000000000000000000000815260040161090190612467565b60405180910390fd5b6000341161094d576040517f08c379a0000000000000000000000000000000000000000000000000000000008152600401610944906124d3565b60405180910390fd5b80600560003373ffffffffffffffffffffffffffffffffffffffff1673ffffffffffffffffffffffffffffffffffffffff16815260200190815260200160002090600a61099b92919061199f565b5034600260003373ffffffffffffffffffffffffffffffffffffffff1673ffffffffffffffffffffffffffffffffffffffff168152602001908152602001600020600501819055506001600260003373ffffffffffffffffffffffffffffffffffffffff1673ffffffffffffffffffffffffffffffffffffffff16815260200190815260200160002060060160006101000a81548160ff021916908315150217905550610a4661126f565b3373ffffffffffffffffffffffffffffffffffffffff167f3f2a601a107ee971ee6fd5ce93acae3740a45764a3a276f092792d2c22f4572582604051610a8c919061258f565b60405180910390a250565b6000600260003373ffffffffffffffffffffffffffffffffffffffff1673ffffffffffffffffffffffffffffffffffffffff1681526020019081526020016000209050600760003373ffffffffffffffffffffffffffffffffffffffff1673ffffffffffffffffffffffffffffffffffffffff16815260200190815260200160002060009054906101000a900460ff16610b66576040517f08c379a0000000000000000000000000000000000000000000000000000000008152600401610b5d906125f7565b60405180910390fd5b6000816005015411610bad576040517f08c379a0000000000000000000000000000000000000000000000000000000008152600401610ba490612663565b60405180910390fd5b600081600501549050600082600501819055503373ffffffffffffffffffffffffffffffffffffffff166108fc829081150290604051600060405180830381858888f19350505050158015610c06573d6000803e3d6000fd5b503373ffffffffffffffffffffffffffffffffffffffff167f8108595eb6bad3acefa9da467d90cc2217686d5c5ac85460f8b7849c840645fc82604051610c4d9190611b56565b60405180910390a25050565b610c616119df565b600260008373ffffffffffffffffffffffffffffffffffffffff1673ffffffffffffffffffffffffffffffffffffffff1681526020019081526020016000206040518060e00160405290816000820160009054906101000a900473ffffffffffffffffffffffffffffffffffffffff1673ffffffffffffffffffffffffffffffffffffffff1673ffffffffffffffffffffffffffffffffffffffff168152602001600182018054610d11906126b2565b80601f0160208091040260200160405190810160405280929190818152602001828054610d3d906126b2565b8015610d8a5780601f10610d5f57610100808354040283529160200191610d8a565b820191906000526020600020905b815481529060010190602001808311610d6d57829003601f168201915b50505050508152602001600282015481526020016003820154815260200160048201548152602001600582015481526020016006820160009054906101000a900460ff1615151515815250509050919050565b600660205281600052604060002081600a8110610df957600080fd5b01600091509150505481565b603281565b60026020528060005260406000206000915090508060000160009054906101000a900473ffffffffffffffffffffffffffffffffffffffff1690806001018054610e53906126b2565b80601f0160208091040260200160405190810160405280929190818152602001828054610e7f906126b2565b8015610ecc5780601f10610ea157610100808354040283529160200191610ecc565b820191906000526020600020905b815481529060010190602001808311610eaf57829003601f168201915b5050505050908060020154908060030154908060040154908060050154908060060160009054906101000a900460ff16905087565b6000815111610f45576040517f08c379a0000000000000000000000000000000000000000000000000000000008152600401610f3c9061272f565b60405180910390fd5b60005b60038054905081101561103f5781805190602001206002600060038481548110610f7557610f7461274f565b5b9060005260206000200160009054906101000a900473ffffffffffffffffffffffffffffffffffffffff1673ffffffffffffffffffffffffffffffffffffffff1673ffffffffffffffffffffffffffffffffffffffff168152602001908152602001600020600101604051610fea9190612821565b604051809103902003611032576040517f08c379a000000000000000000000000000000000000000000000000000000000815260040161102990612884565b60405180910390fd5b8080600101915050610f48565b50600073ffffffffffffffffffffffffffffffffffffffff16600260003373ffffffffffffffffffffffffffffffffffffffff1673ffffffffffffffffffffffffffffffffffffffff16815260200190815260200160002060000160009054906101000a900473ffffffffffffffffffffffffffffffffffffffff1673ffffffffffffffffffffffffffffffffffffffff16036111bb5733600260003373ffffffffffffffffffffffffffffffffffffffff1673ffffffffffffffffffffffffffffffffffffffff16815260200190815260200160002060000160006101000a81548173ffffffffffffffffffffffffffffffffffffffff021916908373ffffffffffffffffffffffffffffffffffffffff1602179055506003339080600181540180825580915050600190039060005260206000200160009091909190916101000a81548173ffffffffffffffffffffffffffffffffffffffff021916908373ffffffffffffffffffffffffffffffffffffffff1602179055505b80600260003373ffffffffffffffffffffffffffffffffffffffff1673ffffffffffffffffffffffffffffffffffffffff168152602001908152602001600020600101908161120a9190612a50565b507f74d8e560d2e870c35b35dc882df2a5c96e2bf1cdb5ef6dd2f9cb433c8d048853338260405161123c929190612b22565b60405180910390a150565b600560205281600052604060002081600a811061126357600080fd5b01600091509150505481565b6000339050600260008273ffffffffffffffffffffffffffffffffffffffff1673ffffffffffffffffffffffffffffffffffffffff16815260200190815260200160002060060160009054906101000a900460ff16611303576040517f08c379a00000000000000000000000000000000000000000000000000000000081526004016112fa90612b9e565b60405180910390fd5b61130b611a34565b60005b600a81101561137c576002424485846040516020016113309493929190612c27565b6040516020818303038152906040528051906020012060001c6113539190612ca4565b8282600a81106113665761136561274f565b5b602002018181525050808060010191505061130e565b5080600660008473ffffffffffffffffffffffffffffffffffffffff1673ffffffffffffffffffffffffffffffffffffffff16815260200190815260200160002090600a6113cb92919061199f565b506001600760008473ffffffffffffffffffffffffffffffffffffffff1673ffffffffffffffffffffffffffffffffffffffff16815260200190815260200160002060006101000a81548160ff02191690831515021790555061142d8261147f565b8173ffffffffffffffffffffffffffffffffffffffff167f37dc1c195d763b4a0ca82a356352c01abfdf09ba4c36ef7f0ee1f7e6be58abeb82604051611473919061258f565b60405180910390a25050565b600760008273ffffffffffffffffffffffffffffffffffffffff1673ffffffffffffffffffffffffffffffffffffffff16815260200190815260200160002060009054906101000a900460ff1661150b576040517f08c379a0000000000000000000000000000000000000000000000000000000008152600401611502906125f7565b60405180910390fd5b6000600260008373ffffffffffffffffffffffffffffffffffffffff1673ffffffffffffffffffffffffffffffffffffffff1681526020019081526020016000209050600080600560008573ffffffffffffffffffffffffffffffffffffffff1673ffffffffffffffffffffffffffffffffffffffff168152602001908152602001600020600a806020026040519081016040528092919082600a80156115c7576020028201915b8154815260200190600101908083116115b3575b505050505090506000600660008673ffffffffffffffffffffffffffffffffffffffff1673ffffffffffffffffffffffffffffffffffffffff168152602001908152602001600020600a806020026040519081016040528092919082600a8015611646576020028201915b815481526020019060010190808311611632575b5050505050905060005b600a8110156116aa578181600a811061166c5761166b61274f565b5b60200201518382600a81106116845761168361274f565b5b60200201510361169d578380611699906123d3565b9450505b8080600101915050611650565b50828460030160008282546116bf9190612cd5565b92505081905550600a836116d39190612d09565b8460020160008282546116e69190612cd5565b925050819055506000600385600401546117009190612ca4565b14801561170d5750600083115b1561176f5760328460020160008282546117279190612cd5565b925050819055507ffbdafbbc14774062bbd11c772b5079b5f04e8abe9cbdbf1a7920a642b748f9f9858560040154603260405161176693929190611e42565b60405180910390a15b60046000600154815260200190815260200160002060405180606001604052808773ffffffffffffffffffffffffffffffffffffffff1681526020018581526020018660020154815250908060018154018082558091505060019003906000526020600020906003020160009091909190915060008201518160000160006101000a81548173ffffffffffffffffffffffffffffffffffffffff021916908373ffffffffffffffffffffffffffffffffffffffff16021790555060208201518160010155604082015181600201555050611848856118a3565b8473ffffffffffffffffffffffffffffffffffffffff167feceb10b266995afd3009502df537b0421b7f635dd268f4b0a74b99a87be65213848660020154604051611894929190612d4b565b60405180910390a25050505050565b60005b600880549050811015611937578173ffffffffffffffffffffffffffffffffffffffff16600882815481106118de576118dd61274f565b5b9060005260206000200160009054906101000a900473ffffffffffffffffffffffffffffffffffffffff1673ffffffffffffffffffffffffffffffffffffffff160361192a575061199c565b80806001019150506118a6565b506008819080600181540180825580915050600190039060005260206000200160009091909190916101000a81548173ffffffffffffffffffffffffffffffffffffffff021916908373ffffffffffffffffffffffffffffffffffffffff1602179055505b50565b82600a81019282156119ce579160200282015b828111156119cd5782518255916020019190600101906119b2565b5b5090506119db9190611a57565b5090565b6040518060e00160405280600073ffffffffffffffffffffffffffffffffffffffff16815260200160608152602001600081526020016000815260200160008152602001600081526020016000151581525090565b604051806101400160405280600a90602082028036833780820191505090505090565b5b80821115611a70576000816000905550600101611a58565b5090565b6000604051905090565b600080fd5b600080fd5b6000819050919050565b611a9b81611a88565b8114611aa657600080fd5b50565b600081359050611ab881611a92565b92915050565b600060208284031215611ad457611ad3611a7e565b5b6000611ae284828501611aa9565b91505092915050565b600073ffffffffffffffffffffffffffffffffffffffff82169050919050565b6000611b1682611aeb565b9050919050565b611b2681611b0b565b82525050565b6000602082019050611b416000830184611b1d565b92915050565b611b5081611a88565b82525050565b6000602082019050611b6b6000830184611b47565b92915050565b600081519050919050565b600082825260208201905092915050565b6000819050602082019050919050565b611ba681611b0b565b82525050565b6000611bb88383611b9d565b60208301905092915050565b6000602082019050919050565b6000611bdc82611b71565b611be68185611b7c565b9350611bf183611b8d565b8060005b83811015611c22578151611c098882611bac565b9750611c1483611bc4565b925050600181019050611bf5565b5085935050505092915050565b60006020820190508181036000830152611c498184611bd1565b905092915050565b600081519050919050565b600082825260208201905092915050565b6000819050602082019050919050565b611c8681611a88565b82525050565b606082016000820151611ca26000850182611b9d565b506020820151611cb56020850182611c7d565b506040820151611cc86040850182611c7d565b50505050565b6000611cda8383611c8c565b60608301905092915050565b6000602082019050919050565b6000611cfe82611c51565b611d088185611c5c565b9350611d1383611c6d565b8060005b83811015611d44578151611d2b8882611cce565b9750611d3683611ce6565b925050600181019050611d17565b5085935050505092915050565b60006020820190508181036000830152611d6b8184611cf3565b905092915050565b611d7c81611b0b565b8114611d8757600080fd5b50565b600081359050611d9981611d73565b92915050565b600060208284031215611db557611db4611a7e565b5b6000611dc384828501611d8a565b91505092915050565b60008115159050919050565b611de181611dcc565b82525050565b6000602082019050611dfc6000830184611dd8565b92915050565b60008060408385031215611e1957611e18611a7e565b5b6000611e2785828601611aa9565b9250506020611e3885828601611aa9565b9150509250929050565b6000606082019050611e576000830186611b1d565b611e646020830185611b47565b611e716040830184611b47565b949350505050565b600080fd5b6000601f19601f8301169050919050565b7f4e487b7100000000000000000000000000000000000000000000000000000000600052604160045260246000fd5b611ec782611e7e565b810181811067ffffffffffffffff82111715611ee657611ee5611e8f565b5b80604052505050565b6000611ef9611a74565b9050611f058282611ebe565b919050565b600067ffffffffffffffff821115611f2557611f24611e8f565b5b602082029050919050565b600080fd5b6000611f48611f4384611f0a565b611eef565b90508060208402830185811115611f6257611f61611f30565b5b835b81811015611f8b5780611f778882611aa9565b845260208401935050602081019050611f64565b5050509392505050565b600082601f830112611faa57611fa9611e79565b5b600a611fb7848285611f35565b91505092915050565b60006101408284031215611fd757611fd6611a7e565b5b6000611fe584828501611f95565b91505092915050565b600081519050919050565b600082825260208201905092915050565b60005b8381101561202857808201518184015260208101905061200d565b60008484015250505050565b600061203f82611fee565b6120498185611ff9565b935061205981856020860161200a565b61206281611e7e565b840191505092915050565b61207681611dcc565b82525050565b600060e0830160008301516120946000860182611b9d565b50602083015184820360208601526120ac8282612034565b91505060408301516120c16040860182611c7d565b5060608301516120d46060860182611c7d565b5060808301516120e76080860182611c7d565b5060a08301516120fa60a0860182611c7d565b5060c083015161210d60c086018261206d565b508091505092915050565b60006020820190508181036000830152612132818461207c565b905092915050565b6000806040838503121561215157612150611a7e565b5b600061215f85828601611d8a565b925050602061217085828601611aa9565b9150509250929050565b600082825260208201905092915050565b600061219682611fee565b6121a0818561217a565b93506121b081856020860161200a565b6121b981611e7e565b840191505092915050565b600060e0820190506121d9600083018a611b1d565b81810360208301526121eb818961218b565b90506121fa6040830188611b47565b6122076060830187611b47565b6122146080830186611b47565b61222160a0830185611b47565b61222e60c0830184611dd8565b98975050505050505050565b600080fd5b600067ffffffffffffffff82111561225a57612259611e8f565b5b61226382611e7e565b9050602081019050919050565b82818337600083830152505050565b600061229261228d8461223f565b611eef565b9050828152602081018484840111156122ae576122ad61223a565b5b6122b9848285612270565b509392505050565b600082601f8301126122d6576122d5611e79565b5b81356122e684826020860161227f565b91505092915050565b60006020828403121561230557612304611a7e565b5b600082013567ffffffffffffffff81111561232357612322611a83565b5b61232f848285016122c1565b91505092915050565b7f4f6e6c79206f776e65722063616e2063616c6c20746869730000000000000000600082015250565b600061236e60188361217a565b915061237982612338565b602082019050919050565b6000602082019050818103600083015261239d81612361565b9050919050565b7f4e487b7100000000000000000000000000000000000000000000000000000000600052601160045260246000fd5b60006123de82611a88565b91507fffffffffffffffffffffffffffffffffffffffffffffffffffffffffffffffff82036124105761240f6123a4565b5b600182019050919050565b7f416c726561647920706c61796564000000000000000000000000000000000000600082015250565b6000612451600e8361217a565b915061245c8261241b565b602082019050919050565b6000602082019050818103600083015261248081612444565b9050919050565b7f4d757374207374616b6520736f6d652045544800000000000000000000000000600082015250565b60006124bd60138361217a565b91506124c882612487565b602082019050919050565b600060208201905081810360008301526124ec816124b0565b9050919050565b6000600a9050919050565b600081905092915050565b6000819050919050565b600061251f8383611c7d565b60208301905092915050565b6000602082019050919050565b612541816124f3565b61254b81846124fe565b925061255682612509565b8060005b8381101561258757815161256e8782612513565b96506125798361252b565b92505060018101905061255a565b505050505050565b6000610140820190506125a56000830184612538565b92915050565b7f526573756c7473206e6f742067656e6572617465640000000000000000000000600082015250565b60006125e160158361217a565b91506125ec826125ab565b602082019050919050565b60006020820190508181036000830152612610816125d4565b9050919050565b7f4e6f207374616b6520746f207769746864726177000000000000000000000000600082015250565b600061264d60148361217a565b915061265882612617565b602082019050919050565b6000602082019050818103600083015261267c81612640565b9050919050565b7f4e487b7100000000000000000000000000000000000000000000000000000000600052602260045260246000fd5b600060028204905060018216806126ca57607f821691505b6020821081036126dd576126dc612683565b5b50919050565b7f557365726e616d652063616e6e6f7420626520656d7074790000000000000000600082015250565b600061271960188361217a565b9150612724826126e3565b602082019050919050565b600060208201905081810360008301526127488161270c565b9050919050565b7f4e487b7100000000000000000000000000000000000000000000000000000000600052603260045260246000fd5b600081905092915050565b60008190508160005260206000209050919050565b600081546127ab816126b2565b6127b5818661277e565b945060018216600081146127d057600181146127e557612818565b60ff1983168652811515820286019350612818565b6127ee85612789565b60005b83811015612810578154818901526001820191506020810190506127f1565b838801955050505b50505092915050565b600061282d828461279e565b915081905092915050565b7f557365726e616d6520616c72656164792074616b656e00000000000000000000600082015250565b600061286e60168361217a565b915061287982612838565b602082019050919050565b6000602082019050818103600083015261289d81612861565b9050919050565b60008190508160005260206000209050919050565b60006020601f8301049050919050565b600082821b905092915050565b6000600883026129067fffffffffffffffffffffffffffffffffffffffffffffffffffffffffffffffff826128c9565b61291086836128c9565b95508019841693508086168417925050509392505050565b6000819050919050565b600061294d61294861294384611a88565b612928565b611a88565b9050919050565b6000819050919050565b61296783612932565b61297b61297382612954565b8484546128d6565b825550505050565b600090565b612990612983565b61299b81848461295e565b505050565b5b818110156129bf576129b4600082612988565b6001810190506129a1565b5050565b601f821115612a04576129d5816128a4565b6129de846128b9565b810160208510156129ed578190505b612a016129f9856128b9565b8301826129a0565b50505b505050565b600082821c905092915050565b6000612a2760001984600802612a09565b1980831691505092915050565b6000612a408383612a16565b9150826002028217905092915050565b612a5982611fee565b67ffffffffffffffff811115612a7257612a71611e8f565b5b612a7c82546126b2565b612a878282856129c3565b600060209050601f831160018114612aba5760008415612aa8578287015190505b612ab28582612a34565b865550612b1a565b601f198416612ac8866128a4565b60005b82811015612af057848901518255600182019150602085019450602081019050612acb565b86831015612b0d5784890151612b09601f891682612a16565b8355505b6001600288020188555050505b505050505050565b6000604082019050612b376000830185611b1d565b8181036020830152612b49818461218b565b90509392505050565b7f506c6179657220686173206e6f7420706c617965640000000000000000000000600082015250565b6000612b8860158361217a565b9150612b9382612b52565b602082019050919050565b60006020820190508181036000830152612bb781612b7b565b9050919050565b6000819050919050565b612bd9612bd482611a88565b612bbe565b82525050565b60008160601b9050919050565b6000612bf782612bdf565b9050919050565b6000612c0982612bec565b9050919050565b612c21612c1c82611b0b565b612bfe565b82525050565b6000612c338287612bc8565b602082019150612c438286612bc8565b602082019150612c538285612c10565b601482019150612c638284612bc8565b60208201915081905095945050505050565b7f4e487b7100000000000000000000000000000000000000000000000000000000600052601260045260246000fd5b6000612caf82611a88565b9150612cba83611a88565b925082612cca57612cc9612c75565b5b828206905092915050565b6000612ce082611a88565b9150612ceb83611a88565b9250828201905080821115612d0357612d026123a4565b5b92915050565b6000612d1482611a88565b9150612d1f83611a88565b9250828202612d2d81611a88565b91508282048414831517612d4457612d436123a4565b5b5092915050565b6000604082019050612d606000830185611b47565b612d6d6020830184611b47565b939250505056fea26469706673582212204ed99c7452d8c58bf592eaf8baa77ec10250dce2be7713a0d34dd606204d0ec064736f6c634300081c0033",
  "linkReferences": {},
  "deployedLinkReferences": {}
}