{
  "_format": "hh-sol-artifact-1",
  "contractName": "GuessGame",
  "sourceName": "contracts/Guess.sol",
  "abi": [
    {
      "inputs": [],
      "stateMutability": "nonpayable",
      "type": "constructor"
    },
    {
      "anonymous": false,
      "inputs": [
        {
          "indexed": true,
          "internalType": "address",
          "name": "player",
          "type": "address"
        },
        {
          "indexed": false,
          "internalType": "uint256[10]",
          "name": "answers",
          "type": "uint256[10]"
        },
        {
          "components": [
            {
              "internalType": "uint256",
              "name": "gameId",
              "type": "uint256"
            },
            {
              "internalType": "address",
              "name": "player",
              "type": "address"
            },
            {
              "internalType": "string",
              "name": "username",
              "type": "string"
            },
            {
              "internalType": "uint256",
              "name": "correctAnswers",
              "type": "uint256"
            },
            {
              "internalType": "uint256",
              "name": "totalPoints",
              "type": "uint256"
            },
            {
              "internalType": "uint256[10]",
              "name": "correctAnswerArray",
              "type": "uint256[10]"
            },
            {
              "internalType": "uint256[10]",
              "name": "userPredictions",
              "type": "uint256[10]"
            }
          ],
          "indexed": false,
          "internalType": "struct GuessGame.GameResult",
          "name": "result",
          "type": "tuple"
        }
      ],
      "name": "PredictionsSubmitted",
      "type": "event"
    },
    {
      "anonymous": false,
      "inputs": [
        {
          "indexed": true,
          "internalType": "address",
          "name": "player",
          "type": "address"
        },
        {
          "indexed": false,
          "internalType": "uint256",
          "name": "amount",
          "type": "uint256"
        }
      ],
      "name": "StakeWithdrawn",
      "type": "event"
    },
    {
      "anonymous": false,
      "inputs": [
        {
          "indexed": true,
          "internalType": "address",
          "name": "player",
          "type": "address"
        },
        {
          "indexed": false,
          "internalType": "string",
          "name": "username",
          "type": "string"
        }
      ],
      "name": "UsernameSet",
      "type": "event"
    },
    {
      "inputs": [],
      "name": "POINTS_PER_CORRECT_ANSWER",
      "outputs": [
        {
          "internalType": "uint256",
          "name": "",
          "type": "uint256"
        }
      ],
      "stateMutability": "view",
      "type": "function"
    },
    {
      "inputs": [],
      "name": "QUESTIONS_PER_GAME",
      "outputs": [
        {
          "internalType": "uint256",
          "name": "",
          "type": "uint256"
        }
      ],
      "stateMutability": "view",
      "type": "function"
    },
    {
      "inputs": [],
      "name": "STREAK_LENGTH",
      "outputs": [
        {
          "internalType": "uint256",
          "name": "",
          "type": "uint256"
        }
      ],
      "stateMutability": "view",
      "type": "function"
    },
    {
      "inputs": [],
      "name": "STREAK_REWARD_POINTS",
      "outputs": [
        {
          "internalType": "uint256",
          "name": "",
          "type": "uint256"
        }
      ],
      "stateMutability": "view",
      "type": "function"
    },
    {
      "inputs": [
        {
          "internalType": "uint256",
          "name": "",
          "type": "uint256"
        }
      ],
      "name": "allPlayers",
      "outputs": [
        {
          "internalType": "address",
          "name": "",
          "type": "address"
        }
      ],
      "stateMutability": "view",
      "type": "function"
    },
    {
      "inputs": [
        {
          "internalType": "address",
          "name": "",
          "type": "address"
        },
        {
          "internalType": "uint256",
          "name": "",
          "type": "uint256"
        }
      ],
      "name": "correctAnswers",
      "outputs": [
        {
          "internalType": "uint256",
          "name": "",
          "type": "uint256"
        }
      ],
      "stateMutability": "view",
      "type": "function"
    },
    {
      "inputs": [],
      "name": "currentGameId",
      "outputs": [
        {
          "internalType": "uint256",
          "name": "",
          "type": "uint256"
        }
      ],
      "stateMutability": "view",
      "type": "function"
    },
    {
      "inputs": [],
      "name": "getGlobalLeaderboard",
      "outputs": [
        {
          "components": [
            {
              "internalType": "address",
              "name": "playerAddress",
              "type": "address"
            },
            {
              "internalType": "string",
              "name": "username",
              "type": "string"
            },
            {
              "internalType": "uint256",
              "name": "totalPoints",
              "type": "uint256"
            },
            {
              "internalType": "uint256",
              "name": "totalCorrect",
              "type": "uint256"
            },
            {
              "internalType": "uint256",
              "name": "stakedAmount",
              "type": "uint256"
            }
          ],
          "internalType": "struct GuessGame.Player[]",
          "name": "",
          "type": "tuple[]"
        }
      ],
      "stateMutability": "view",
      "type": "function"
    },
    {
      "inputs": [
        {
          "internalType": "address",
          "name": "playerAddress",
          "type": "address"
        }
      ],
      "name": "getPlayerDetails",
      "outputs": [
        {
          "components": [
            {
              "internalType": "address",
              "name": "playerAddress",
              "type": "address"
            },
            {
              "internalType": "string",
              "name": "username",
              "type": "string"
            },
            {
              "internalType": "uint256",
              "name": "totalPoints",
              "type": "uint256"
            },
            {
              "internalType": "uint256",
              "name": "totalCorrect",
              "type": "uint256"
            },
            {
              "internalType": "uint256",
              "name": "stakedAmount",
              "type": "uint256"
            }
          ],
          "internalType": "struct GuessGame.Player",
          "name": "",
          "type": "tuple"
        }
      ],
      "stateMutability": "view",
      "type": "function"
    },
    {
      "inputs": [
        {
          "internalType": "address",
          "name": "player",
          "type": "address"
        }
      ],
      "name": "getPlayerLatestGameResult",
      "outputs": [
        {
          "components": [
            {
              "internalType": "uint256",
              "name": "gameId",
              "type": "uint256"
            },
            {
              "internalType": "address",
              "name": "player",
              "type": "address"
            },
            {
              "internalType": "string",
              "name": "username",
              "type": "string"
            },
            {
              "internalType": "uint256",
              "name": "correctAnswers",
              "type": "uint256"
            },
            {
              "internalType": "uint256",
              "name": "totalPoints",
              "type": "uint256"
            },
            {
              "internalType": "uint256[10]",
              "name": "correctAnswerArray",
              "type": "uint256[10]"
            },
            {
              "internalType": "uint256[10]",
              "name": "userPredictions",
              "type": "uint256[10]"
            }
          ],
          "internalType": "struct GuessGame.GameResult",
          "name": "",
          "type": "tuple"
        }
      ],
      "stateMutability": "view",
      "type": "function"
    },
    {
      "inputs": [],
      "name": "owner",
      "outputs": [
        {
          "internalType": "address",
          "name": "",
          "type": "address"
        }
      ],
      "stateMutability": "view",
      "type": "function"
    },
    {
      "inputs": [
        {
          "internalType": "address",
          "name": "",
          "type": "address"
        },
        {
          "internalType": "uint256",
          "name": "",
          "type": "uint256"
        }
      ],
      "name": "playerGameResults",
      "outputs": [
        {
          "internalType": "uint256",
          "name": "gameId",
          "type": "uint256"
        },
        {
          "internalType": "address",
          "name": "player",
          "type": "address"
        },
        {
          "internalType": "string",
          "name": "username",
          "type": "string"
        },
        {
          "internalType": "uint256",
          "name": "correctAnswers",
          "type": "uint256"
        },
        {
          "internalType": "uint256",
          "name": "totalPoints",
          "type": "uint256"
        }
      ],
      "stateMutability": "view",
      "type": "function"
    },
    {
      "inputs": [
        {
          "internalType": "address",
          "name": "",
          "type": "address"
        }
      ],
      "name": "players",
      "outputs": [
        {
          "internalType": "address",
          "name": "playerAddress",
          "type": "address"
        },
        {
          "internalType": "string",
          "name": "username",
          "type": "string"
        },
        {
          "internalType": "uint256",
          "name": "totalPoints",
          "type": "uint256"
        },
        {
          "internalType": "uint256",
          "name": "totalCorrect",
          "type": "uint256"
        },
        {
          "internalType": "uint256",
          "name": "stakedAmount",
          "type": "uint256"
        }
      ],
      "stateMutability": "view",
      "type": "function"
    },
    {
      "inputs": [
        {
          "internalType": "address",
          "name": "",
          "type": "address"
        }
      ],
      "name": "resultsGenerated",
      "outputs": [
        {
          "internalType": "bool",
          "name": "",
          "type": "bool"
        }
      ],
      "stateMutability": "view",
      "type": "function"
    },
    {
      "inputs": [
        {
          "internalType": "string",
          "name": "_username",
          "type": "string"
        }
      ],
      "name": "setUsername",
      "outputs": [],
      "stateMutability": "nonpayable",
      "type": "function"
    },
    {
      "inputs": [
        {
          "internalType": "uint256[10]",
          "name": "answers",
          "type": "uint256[10]"
        }
      ],
      "name": "submitPredictions",
      "outputs": [
        {
          "components": [
            {
              "internalType": "uint256",
              "name": "gameId",
              "type": "uint256"
            },
            {
              "internalType": "address",
              "name": "player",
              "type": "address"
            },
            {
              "internalType": "string",
              "name": "username",
              "type": "string"
            },
            {
              "internalType": "uint256",
              "name": "correctAnswers",
              "type": "uint256"
            },
            {
              "internalType": "uint256",
              "name": "totalPoints",
              "type": "uint256"
            },
            {
              "internalType": "uint256[10]",
              "name": "correctAnswerArray",
              "type": "uint256[10]"
            },
            {
              "internalType": "uint256[10]",
              "name": "userPredictions",
              "type": "uint256[10]"
            }
          ],
          "internalType": "struct GuessGame.GameResult",
          "name": "",
          "type": "tuple"
        }
      ],
      "stateMutability": "payable",
      "type": "function"
    },
    {
      "inputs": [
        {
          "internalType": "address",
          "name": "",
          "type": "address"
        },
        {
          "internalType": "uint256",
          "name": "",
          "type": "uint256"
        }
      ],
      "name": "userPredictions",
      "outputs": [
        {
          "internalType": "uint256",
          "name": "",
          "type": "uint256"
        }
      ],
      "stateMutability": "view",
      "type": "function"
    },
    {
      "inputs": [],
      "name": "withdrawStake",
      "outputs": [],
      "stateMutability": "nonpayable",
      "type": "function"
    }
  ],
  "bytecode": "0x6080604052348015600f57600080fd5b50336000806101000a81548173ffffffffffffffffffffffffffffffffffffffff021916908373ffffffffffffffffffffffffffffffffffffffff16021790555060018081905550613122806100666000396000f3fe6080604052600436106101095760003560e01c8063bed9d86111610095578063dea3e42d11610064578063dea3e42d14610388578063e2eb41ff146103b3578063e6b6b39c146103f4578063ed59313a14610435578063f6c331791461045e57610109565b8063bed9d861146102ba578063c8dd6ce7146102d1578063ce9b009d1461030e578063d3b592ad1461034b57610109565b806359d85553116100dc57806359d85553146101cc578063761f430b146101f75780637d7adffa146102345780638da5cb5b1461025f578063b33245751461028a57610109565b80630544ce5e1461010e578063108eeb201461014b5780631d5ba17a14610176578063536a3ddc146101a1575b600080fd5b34801561011a57600080fd5b5061013560048036038101906101309190611dbe565b61049b565b6040516101429190611e2c565b60405180910390f35b34801561015757600080fd5b506101606104da565b60405161016d9190611e56565b60405180910390f35b34801561018257600080fd5b5061018b6104df565b6040516101989190612057565b60405180910390f35b3480156101ad57600080fd5b506101b6610808565b6040516101c39190611e56565b60405180910390f35b3480156101d857600080fd5b506101e161080e565b6040516101ee9190611e56565b60405180910390f35b34801561020357600080fd5b5061021e600480360381019061021991906120a5565b610813565b60405161022b91906120ed565b60405180910390f35b34801561024057600080fd5b50610249610833565b6040516102569190611e56565b60405180910390f35b34801561026b57600080fd5b50610274610838565b6040516102819190611e2c565b60405180910390f35b6102a4600480360381019061029f919061223e565b61085c565b6040516102b191906123a6565b60405180910390f35b3480156102c657600080fd5b506102cf6109ba565b005b3480156102dd57600080fd5b506102f860048036038101906102f391906120a5565b610c67565b604051610305919061243e565b60405180910390f35b34801561031a57600080fd5b5061033560048036038101906103309190612460565b610dc6565b6040516103429190611e56565b60405180910390f35b34801561035757600080fd5b50610372600480360381019061036d91906120a5565b610dee565b60405161037f91906123a6565b60405180910390f35b34801561039457600080fd5b5061039d61108e565b6040516103aa9190611e56565b60405180910390f35b3480156103bf57600080fd5b506103da60048036038101906103d591906120a5565b611093565b6040516103eb9594939291906124ea565b60405180910390f35b34801561040057600080fd5b5061041b60048036038101906104169190612460565b611171565b60405161042c959493929190612544565b60405180910390f35b34801561044157600080fd5b5061045c60048036038101906104579190612653565b61126c565b005b34801561046a57600080fd5b5061048560048036038101906104809190612460565b611658565b6040516104929190611e56565b60405180910390f35b600781815481106104ab57600080fd5b906000526020600020016000915054906101000a900473ffffffffffffffffffffffffffffffffffffffff1681565b600a81565b60606000600780549050905060008167ffffffffffffffff8111156105075761050661210d565b5b60405190808252806020026020018201604052801561054057816020015b61052d611c50565b8152602001906001900390816105255790505b50905060005b828110156107075760026000600783815481106105665761056561269c565b5b9060005260206000200160009054906101000a900473ffffffffffffffffffffffffffffffffffffffff1673ffffffffffffffffffffffffffffffffffffffff1673ffffffffffffffffffffffffffffffffffffffff1681526020019081526020016000206040518060a00160405290816000820160009054906101000a900473ffffffffffffffffffffffffffffffffffffffff1673ffffffffffffffffffffffffffffffffffffffff1673ffffffffffffffffffffffffffffffffffffffff16815260200160018201805461063c906126fa565b80601f0160208091040260200160405190810160405280929190818152602001828054610668906126fa565b80156106b55780601f1061068a576101008083540402835291602001916106b5565b820191906000526020600020905b81548152906001019060200180831161069857829003601f168201915b5050505050815260200160028201548152602001600382015481526020016004820154815250508282815181106106ef576106ee61269c565b5b60200260200101819052508080600101915050610546565b5060005b828110156107ff576000600182610722919061275a565b90505b838110156107f1578282815181106107405761073f61269c565b5b60200260200101516040015183828151811061075f5761075e61269c565b5b60200260200101516040015111156107e4578281815181106107845761078361269c565b5b602002602001015183838151811061079f5761079e61269c565b5b60200260200101518484815181106107ba576107b961269c565b5b602002602001018584815181106107d4576107d361269c565b5b6020026020010182905282905250505b8080600101915050610725565b50808060010191505061070b565b50809250505090565b60015481565b600381565b60066020528060005260406000206000915054906101000a900460ff1681565b600a81565b60008054906101000a900473ffffffffffffffffffffffffffffffffffffffff1681565b610864611c95565b600034116108a7576040517f08c379a000000000000000000000000000000000000000000000000000000000815260040161089e906127da565b60405180910390fd5b81600460003373ffffffffffffffffffffffffffffffffffffffff1673ffffffffffffffffffffffffffffffffffffffff16815260200190815260200160002090600a6108f5929190611cf4565b5034600260003373ffffffffffffffffffffffffffffffffffffffff1673ffffffffffffffffffffffffffffffffffffffff168152602001908152602001600020600401819055506000610947611680565b90506001600081548092919061095c906127fa565b91905055503373ffffffffffffffffffffffffffffffffffffffff167f9be7a41eef92d55e0e9dfa1825ca89f99504ba1e9e5ff12118704a8cc265873c84836040516109a99291906128a4565b60405180910390a280915050919050565b6000600260003373ffffffffffffffffffffffffffffffffffffffff1673ffffffffffffffffffffffffffffffffffffffff16815260200190815260200160002090506000600360003373ffffffffffffffffffffffffffffffffffffffff1673ffffffffffffffffffffffffffffffffffffffff1681526020019081526020016000208054905011610a82576040517f08c379a0000000000000000000000000000000000000000000000000000000008152600401610a7990612922565b60405180910390fd5b600660003373ffffffffffffffffffffffffffffffffffffffff1673ffffffffffffffffffffffffffffffffffffffff16815260200190815260200160002060009054906101000a900460ff16610b0e576040517f08c379a0000000000000000000000000000000000000000000000000000000008152600401610b059061298e565b60405180910390fd5b6000816004015411610b55576040517f08c379a0000000000000000000000000000000000000000000000000000000008152600401610b4c906129fa565b60405180910390fd5b6000816004015490506000826004018190555060003373ffffffffffffffffffffffffffffffffffffffff1682604051610b8e90612a4b565b60006040518083038185875af1925050503d8060008114610bcb576040519150601f19603f3d011682016040523d82523d6000602084013e610bd0565b606091505b5050905080610c14576040517f08c379a0000000000000000000000000000000000000000000000000000000008152600401610c0b90612aac565b60405180910390fd5b3373ffffffffffffffffffffffffffffffffffffffff167f8108595eb6bad3acefa9da467d90cc2217686d5c5ac85460f8b7849c840645fc83604051610c5a9190611e56565b60405180910390a2505050565b610c6f611c50565b600260008373ffffffffffffffffffffffffffffffffffffffff1673ffffffffffffffffffffffffffffffffffffffff1681526020019081526020016000206040518060a00160405290816000820160009054906101000a900473ffffffffffffffffffffffffffffffffffffffff1673ffffffffffffffffffffffffffffffffffffffff1673ffffffffffffffffffffffffffffffffffffffff168152602001600182018054610d1f906126fa565b80601f0160208091040260200160405190810160405280929190818152602001828054610d4b906126fa565b8015610d985780601f10610d6d57610100808354040283529160200191610d98565b820191906000526020600020905b815481529060010190602001808311610d7b57829003601f168201915b5050505050815260200160028201548152602001600382015481526020016004820154815250509050919050565b600560205281600052604060002081600a8110610de257600080fd5b01600091509150505481565b610df6611c95565b6000600360008473ffffffffffffffffffffffffffffffffffffffff1673ffffffffffffffffffffffffffffffffffffffff16815260200190815260200160002080549050905060008111610e80576040517f08c379a0000000000000000000000000000000000000000000000000000000008152600401610e7790612922565b60405180910390fd5b600360008473ffffffffffffffffffffffffffffffffffffffff1673ffffffffffffffffffffffffffffffffffffffff168152602001908152602001600020600182610ecc9190612acc565b81548110610edd57610edc61269c565b5b90600052602060002090601902016040518060e0016040529081600082015481526020016001820160009054906101000a900473ffffffffffffffffffffffffffffffffffffffff1673ffffffffffffffffffffffffffffffffffffffff1673ffffffffffffffffffffffffffffffffffffffff168152602001600282018054610f66906126fa565b80601f0160208091040260200160405190810160405280929190818152602001828054610f92906126fa565b8015610fdf5780601f10610fb457610100808354040283529160200191610fdf565b820191906000526020600020905b815481529060010190602001808311610fc257829003601f168201915b50505050508152602001600382015481526020016004820154815260200160058201600a806020026040519081016040528092919082600a8015611038576020028201915b815481526020019060010190808311611024575b50505050508152602001600f8201600a806020026040519081016040528092919082600a801561107d576020028201915b815481526020019060010190808311611069575b505050505081525050915050919050565b603281565b60026020528060005260406000206000915090508060000160009054906101000a900473ffffffffffffffffffffffffffffffffffffffff16908060010180546110dc906126fa565b80601f0160208091040260200160405190810160405280929190818152602001828054611108906126fa565b80156111555780601f1061112a57610100808354040283529160200191611155565b820191906000526020600020905b81548152906001019060200180831161113857829003601f168201915b5050505050908060020154908060030154908060040154905085565b6003602052816000526040600020818154811061118d57600080fd5b9060005260206000209060190201600091509150508060000154908060010160009054906101000a900473ffffffffffffffffffffffffffffffffffffffff16908060020180546111dd906126fa565b80601f0160208091040260200160405190810160405280929190818152602001828054611209906126fa565b80156112565780601f1061122b57610100808354040283529160200191611256565b820191906000526020600020905b81548152906001019060200180831161123957829003601f168201915b5050505050908060030154908060040154905085565b60008151116112b0576040517f08c379a00000000000000000000000000000000000000000000000000000000081526004016112a790612b4c565b60405180910390fd5b60005b6007805490508110156113aa57818051906020012060026000600784815481106112e0576112df61269c565b5b9060005260206000200160009054906101000a900473ffffffffffffffffffffffffffffffffffffffff1673ffffffffffffffffffffffffffffffffffffffff1673ffffffffffffffffffffffffffffffffffffffff1681526020019081526020016000206001016040516113559190612c04565b60405180910390200361139d576040517f08c379a000000000000000000000000000000000000000000000000000000000815260040161139490612c67565b60405180910390fd5b80806001019150506112b3565b506000600260003373ffffffffffffffffffffffffffffffffffffffff1673ffffffffffffffffffffffffffffffffffffffff16815260200190815260200160002060010180546113fa906126fa565b90501461143c576040517f08c379a000000000000000000000000000000000000000000000000000000000815260040161143390612cd3565b60405180910390fd5b600073ffffffffffffffffffffffffffffffffffffffff16600260003373ffffffffffffffffffffffffffffffffffffffff1673ffffffffffffffffffffffffffffffffffffffff16815260200190815260200160002060000160009054906101000a900473ffffffffffffffffffffffffffffffffffffffff1673ffffffffffffffffffffffffffffffffffffffff16036115b75733600260003373ffffffffffffffffffffffffffffffffffffffff1673ffffffffffffffffffffffffffffffffffffffff16815260200190815260200160002060000160006101000a81548173ffffffffffffffffffffffffffffffffffffffff021916908373ffffffffffffffffffffffffffffffffffffffff1602179055506007339080600181540180825580915050600190039060005260206000200160009091909190916101000a81548173ffffffffffffffffffffffffffffffffffffffff021916908373ffffffffffffffffffffffffffffffffffffffff1602179055505b80600260003373ffffffffffffffffffffffffffffffffffffffff1673ffffffffffffffffffffffffffffffffffffffff16815260200190815260200160002060010190816116069190612e9f565b503373ffffffffffffffffffffffffffffffffffffffff167f74d8e560d2e870c35b35dc882df2a5c96e2bf1cdb5ef6dd2f9cb433c8d0488538260405161164d9190612f71565b60405180910390a250565b600460205281600052604060002081600a811061167457600080fd5b01600091509150505481565b611688611c95565b6000339050611695611d34565b60005b600a811015611706576002424485846040516020016116ba9493929190612ffc565b6040516020818303038152906040528051906020012060001c6116dd9190613079565b8282600a81106116f0576116ef61269c565b5b6020020181815250508080600101915050611698565b5080600560008473ffffffffffffffffffffffffffffffffffffffff1673ffffffffffffffffffffffffffffffffffffffff16815260200190815260200160002090600a611755929190611cf4565b506001600660008473ffffffffffffffffffffffffffffffffffffffff1673ffffffffffffffffffffffffffffffffffffffff16815260200190815260200160002060006101000a81548160ff0219169083151502179055506117b7826117be565b9250505090565b6117c6611c95565b600660008373ffffffffffffffffffffffffffffffffffffffff1673ffffffffffffffffffffffffffffffffffffffff16815260200190815260200160002060009054906101000a900460ff16611852576040517f08c379a00000000000000000000000000000000000000000000000000000000081526004016118499061298e565b60405180910390fd5b6000600260008473ffffffffffffffffffffffffffffffffffffffff1673ffffffffffffffffffffffffffffffffffffffff1681526020019081526020016000209050600080600460008673ffffffffffffffffffffffffffffffffffffffff1673ffffffffffffffffffffffffffffffffffffffff168152602001908152602001600020600a806020026040519081016040528092919082600a801561190e576020028201915b8154815260200190600101908083116118fa575b505050505090506000600560008773ffffffffffffffffffffffffffffffffffffffff1673ffffffffffffffffffffffffffffffffffffffff168152602001908152602001600020600a806020026040519081016040528092919082600a801561198d576020028201915b815481526020019060010190808311611979575b5050505050905060005b600a8110156119f1578181600a81106119b3576119b261269c565b5b60200201518382600a81106119cb576119ca61269c565b5b6020020151036119e45783806119e0906127fa565b9450505b8080600101915050611997565b506000600a84611a0191906130aa565b905060038410611a1b57603281611a18919061275a565b90505b83856003016000828254611a2f919061275a565b9250508190555080856002016000828254611a4a919061275a565b9250508190555060006040518060e0016040528060015481526020018973ffffffffffffffffffffffffffffffffffffffff168152602001876001018054611a91906126fa565b80601f0160208091040260200160405190810160405280929190818152602001828054611abd906126fa565b8015611b0a5780601f10611adf57610100808354040283529160200191611b0a565b820191906000526020600020905b815481529060010190602001808311611aed57829003601f168201915b50505050508152602001868152602001838152602001848152602001858152509050600360008973ffffffffffffffffffffffffffffffffffffffff1673ffffffffffffffffffffffffffffffffffffffff1681526020019081526020016000208190806001815401808255809150506001900390600052602060002090601902016000909190919091506000820151816000015560208201518160010160006101000a81548173ffffffffffffffffffffffffffffffffffffffff021916908373ffffffffffffffffffffffffffffffffffffffff1602179055506040820151816002019081611bfb9190612e9f565b50606082015181600301556080820151816004015560a08201518160050190600a611c27929190611cf4565b5060c082015181600f0190600a611c3f929190611cf4565b505050809650505050505050919050565b6040518060a00160405280600073ffffffffffffffffffffffffffffffffffffffff168152602001606081526020016000815260200160008152602001600081525090565b6040518060e0016040528060008152602001600073ffffffffffffffffffffffffffffffffffffffff168152602001606081526020016000815260200160008152602001611ce1611d34565b8152602001611cee611d34565b81525090565b82600a8101928215611d23579160200282015b82811115611d22578251825591602001919060010190611d07565b5b509050611d309190611d57565b5090565b604051806101400160405280600a90602082028036833780820191505090505090565b5b80821115611d70576000816000905550600101611d58565b5090565b6000604051905090565b600080fd5b600080fd5b6000819050919050565b611d9b81611d88565b8114611da657600080fd5b50565b600081359050611db881611d92565b92915050565b600060208284031215611dd457611dd3611d7e565b5b6000611de284828501611da9565b91505092915050565b600073ffffffffffffffffffffffffffffffffffffffff82169050919050565b6000611e1682611deb565b9050919050565b611e2681611e0b565b82525050565b6000602082019050611e416000830184611e1d565b92915050565b611e5081611d88565b82525050565b6000602082019050611e6b6000830184611e47565b92915050565b600081519050919050565b600082825260208201905092915050565b6000819050602082019050919050565b611ea681611e0b565b82525050565b600081519050919050565b600082825260208201905092915050565b60005b83811015611ee6578082015181840152602081019050611ecb565b60008484015250505050565b6000601f19601f8301169050919050565b6000611f0e82611eac565b611f188185611eb7565b9350611f28818560208601611ec8565b611f3181611ef2565b840191505092915050565b611f4581611d88565b82525050565b600060a083016000830151611f636000860182611e9d565b5060208301518482036020860152611f7b8282611f03565b9150506040830151611f906040860182611f3c565b506060830151611fa36060860182611f3c565b506080830151611fb66080860182611f3c565b508091505092915050565b6000611fcd8383611f4b565b905092915050565b6000602082019050919050565b6000611fed82611e71565b611ff78185611e7c565b93508360208202850161200985611e8d565b8060005b8581101561204557848403895281516120268582611fc1565b945061203183611fd5565b925060208a0199505060018101905061200d565b50829750879550505050505092915050565b600060208201905081810360008301526120718184611fe2565b905092915050565b61208281611e0b565b811461208d57600080fd5b50565b60008135905061209f81612079565b92915050565b6000602082840312156120bb576120ba611d7e565b5b60006120c984828501612090565b91505092915050565b60008115159050919050565b6120e7816120d2565b82525050565b600060208201905061210260008301846120de565b92915050565b600080fd5b7f4e487b7100000000000000000000000000000000000000000000000000000000600052604160045260246000fd5b61214582611ef2565b810181811067ffffffffffffffff821117156121645761216361210d565b5b80604052505050565b6000612177611d74565b9050612183828261213c565b919050565b600067ffffffffffffffff8211156121a3576121a261210d565b5b602082029050919050565b600080fd5b60006121c66121c184612188565b61216d565b905080602084028301858111156121e0576121df6121ae565b5b835b8181101561220957806121f58882611da9565b8452602084019350506020810190506121e2565b5050509392505050565b600082601f83011261222857612227612108565b5b600a6122358482856121b3565b91505092915050565b6000610140828403121561225557612254611d7e565b5b600061226384828501612213565b91505092915050565b6000600a9050919050565b600081905092915050565b6000819050919050565b60006122988383611f3c565b60208301905092915050565b6000602082019050919050565b6122ba8161226c565b6122c48184612277565b92506122cf82612282565b8060005b838110156123005781516122e7878261228c565b96506122f2836122a4565b9250506001810190506122d3565b505050505050565b6000610320830160008301516123216000860182611f3c565b5060208301516123346020860182611e9d565b506040830151848203604086015261234c8282611f03565b91505060608301516123616060860182611f3c565b5060808301516123746080860182611f3c565b5060a083015161238760a08601826122b1565b5060c083015161239b6101e08601826122b1565b508091505092915050565b600060208201905081810360008301526123c08184612308565b905092915050565b600060a0830160008301516123e06000860182611e9d565b50602083015184820360208601526123f88282611f03565b915050604083015161240d6040860182611f3c565b5060608301516124206060860182611f3c565b5060808301516124336080860182611f3c565b508091505092915050565b6000602082019050818103600083015261245881846123c8565b905092915050565b6000806040838503121561247757612476611d7e565b5b600061248585828601612090565b925050602061249685828601611da9565b9150509250929050565b600082825260208201905092915050565b60006124bc82611eac565b6124c681856124a0565b93506124d6818560208601611ec8565b6124df81611ef2565b840191505092915050565b600060a0820190506124ff6000830188611e1d565b818103602083015261251181876124b1565b90506125206040830186611e47565b61252d6060830185611e47565b61253a6080830184611e47565b9695505050505050565b600060a0820190506125596000830188611e47565b6125666020830187611e1d565b818103604083015261257881866124b1565b90506125876060830185611e47565b6125946080830184611e47565b9695505050505050565b600080fd5b600067ffffffffffffffff8211156125be576125bd61210d565b5b6125c782611ef2565b9050602081019050919050565b82818337600083830152505050565b60006125f66125f1846125a3565b61216d565b9050828152602081018484840111156126125761261161259e565b5b61261d8482856125d4565b509392505050565b600082601f83011261263a57612639612108565b5b813561264a8482602086016125e3565b91505092915050565b60006020828403121561266957612668611d7e565b5b600082013567ffffffffffffffff81111561268757612686611d83565b5b61269384828501612625565b91505092915050565b7f4e487b7100000000000000000000000000000000000000000000000000000000600052603260045260246000fd5b7f4e487b7100000000000000000000000000000000000000000000000000000000600052602260045260246000fd5b6000600282049050600182168061271257607f821691505b602082108103612725576127246126cb565b5b50919050565b7f4e487b7100000000000000000000000000000000000000000000000000000000600052601160045260246000fd5b600061276582611d88565b915061277083611d88565b92508282019050808211156127885761278761272b565b5b92915050565b7f4d757374207374616b6520736f6d652045544800000000000000000000000000600082015250565b60006127c46013836124a0565b91506127cf8261278e565b602082019050919050565b600060208201905081810360008301526127f3816127b7565b9050919050565b600061280582611d88565b91507fffffffffffffffffffffffffffffffffffffffffffffffffffffffffffffffff82036128375761283661272b565b5b600182019050919050565b600081905092915050565b6128568161226c565b6128608184612842565b925061286b82612282565b8060005b8381101561289c578151612883878261228c565b965061288e836122a4565b92505060018101905061286f565b505050505050565b6000610160820190506128ba600083018561284d565b8181036101408301526128cd8184612308565b90509392505050565b7f4e6f2067616d657320706c617965642079657400000000000000000000000000600082015250565b600061290c6013836124a0565b9150612917826128d6565b602082019050919050565b6000602082019050818103600083015261293b816128ff565b9050919050565b7f526573756c7473206e6f742067656e6572617465640000000000000000000000600082015250565b60006129786015836124a0565b915061298382612942565b602082019050919050565b600060208201905081810360008301526129a78161296b565b9050919050565b7f4e6f207374616b6520746f207769746864726177000000000000000000000000600082015250565b60006129e46014836124a0565b91506129ef826129ae565b602082019050919050565b60006020820190508181036000830152612a13816129d7565b9050919050565b600081905092915050565b50565b6000612a35600083612a1a565b9150612a4082612a25565b600082019050919050565b6000612a5682612a28565b9150819050919050565b7f5472616e73666572206661696c65640000000000000000000000000000000000600082015250565b6000612a96600f836124a0565b9150612aa182612a60565b602082019050919050565b60006020820190508181036000830152612ac581612a89565b9050919050565b6000612ad782611d88565b9150612ae283611d88565b9250828203905081811115612afa57612af961272b565b5b92915050565b7f557365726e616d652063616e6e6f7420626520656d7074790000000000000000600082015250565b6000612b366018836124a0565b9150612b4182612b00565b602082019050919050565b60006020820190508181036000830152612b6581612b29565b9050919050565b60008190508160005260206000209050919050565b60008154612b8e816126fa565b612b988186612a1a565b94506001821660008114612bb35760018114612bc857612bfb565b60ff1983168652811515820286019350612bfb565b612bd185612b6c565b60005b83811015612bf357815481890152600182019150602081019050612bd4565b838801955050505b50505092915050565b6000612c108284612b81565b915081905092915050565b7f557365726e616d6520616c72656164792074616b656e00000000000000000000600082015250565b6000612c516016836124a0565b9150612c5c82612c1b565b602082019050919050565b60006020820190508181036000830152612c8081612c44565b9050919050565b7f557365726e616d6520616c726561647920736574000000000000000000000000600082015250565b6000612cbd6014836124a0565b9150612cc882612c87565b602082019050919050565b60006020820190508181036000830152612cec81612cb0565b9050919050565b60008190508160005260206000209050919050565b60006020601f8301049050919050565b600082821b905092915050565b600060088302612d557fffffffffffffffffffffffffffffffffffffffffffffffffffffffffffffffff82612d18565b612d5f8683612d18565b95508019841693508086168417925050509392505050565b6000819050919050565b6000612d9c612d97612d9284611d88565b612d77565b611d88565b9050919050565b6000819050919050565b612db683612d81565b612dca612dc282612da3565b848454612d25565b825550505050565b600090565b612ddf612dd2565b612dea818484612dad565b505050565b5b81811015612e0e57612e03600082612dd7565b600181019050612df0565b5050565b601f821115612e5357612e2481612cf3565b612e2d84612d08565b81016020851015612e3c578190505b612e50612e4885612d08565b830182612def565b50505b505050565b600082821c905092915050565b6000612e7660001984600802612e58565b1980831691505092915050565b6000612e8f8383612e65565b9150826002028217905092915050565b612ea882611eac565b67ffffffffffffffff811115612ec157612ec061210d565b5b612ecb82546126fa565b612ed6828285612e12565b600060209050601f831160018114612f095760008415612ef7578287015190505b612f018582612e83565b865550612f69565b601f198416612f1786612cf3565b60005b82811015612f3f57848901518255600182019150602085019450602081019050612f1a565b86831015612f5c5784890151612f58601f891682612e65565b8355505b6001600288020188555050505b505050505050565b60006020820190508181036000830152612f8b81846124b1565b905092915050565b6000819050919050565b612fae612fa982611d88565b612f93565b82525050565b60008160601b9050919050565b6000612fcc82612fb4565b9050919050565b6000612fde82612fc1565b9050919050565b612ff6612ff182611e0b565b612fd3565b82525050565b60006130088287612f9d565b6020820191506130188286612f9d565b6020820191506130288285612fe5565b6014820191506130388284612f9d565b60208201915081905095945050505050565b7f4e487b7100000000000000000000000000000000000000000000000000000000600052601260045260246000fd5b600061308482611d88565b915061308f83611d88565b92508261309f5761309e61304a565b5b828206905092915050565b60006130b582611d88565b91506130c083611d88565b92508282026130ce81611d88565b915082820484148315176130e5576130e461272b565b5b509291505056fea264697066735822122079fb54416501127173730e1fa82ec8ad1b00997bce2c42556b173cb18c0115e264736f6c634300081c0033",
  "linkReferences": {},
  "deployedLinkReferences": {}
}