{
  "_format": "hh-sol-artifact-1",
  "contractName": "GuessGame",
  "sourceName": "contracts/Guess.sol",
  "abi": [
    {
      "inputs": [],
      "stateMutability": "nonpayable",
      "type": "constructor"
    },
    {
      "anonymous": false,
      "inputs": [
        {
          "indexed": true,
          "internalType": "address",
          "name": "owner",
          "type": "address"
        },
        {
          "indexed": false,
          "internalType": "uint256",
          "name": "amount",
          "type": "uint256"
        }
      ],
      "name": "OwnerWithdrawn",
      "type": "event"
    },
    {
      "anonymous": false,
      "inputs": [
        {
          "indexed": true,
          "internalType": "address",
          "name": "player",
          "type": "address"
        },
        {
          "indexed": false,
          "internalType": "uint256[10]",
          "name": "answers",
          "type": "uint256[10]"
        },
        {
          "components": [
            {
              "internalType": "uint256",
              "name": "gameId",
              "type": "uint256"
            },
            {
              "internalType": "address",
              "name": "player",
              "type": "address"
            },
            {
              "internalType": "string",
              "name": "username",
              "type": "string"
            },
            {
              "internalType": "uint256",
              "name": "correctAnswers",
              "type": "uint256"
            },
            {
              "internalType": "uint256",
              "name": "totalPoints",
              "type": "uint256"
            },
            {
              "internalType": "uint256[10]",
              "name": "correctAnswerArray",
              "type": "uint256[10]"
            },
            {
              "internalType": "uint256[10]",
              "name": "userPredictions",
              "type": "uint256[10]"
            }
          ],
          "indexed": false,
          "internalType": "struct GuessGame.GameResult",
          "name": "result",
          "type": "tuple"
        }
      ],
      "name": "PredictionsSubmitted",
      "type": "event"
    },
    {
      "anonymous": false,
      "inputs": [
        {
          "indexed": true,
          "internalType": "address",
          "name": "player",
          "type": "address"
        },
        {
          "indexed": false,
          "internalType": "uint256",
          "name": "amount",
          "type": "uint256"
        }
      ],
      "name": "StakeWithdrawn",
      "type": "event"
    },
    {
      "anonymous": false,
      "inputs": [
        {
          "indexed": true,
          "internalType": "address",
          "name": "player",
          "type": "address"
        },
        {
          "indexed": false,
          "internalType": "uint256",
          "name": "amount",
          "type": "uint256"
        }
      ],
      "name": "Staked",
      "type": "event"
    },
    {
      "anonymous": false,
      "inputs": [
        {
          "indexed": true,
          "internalType": "address",
          "name": "player",
          "type": "address"
        },
        {
          "indexed": false,
          "internalType": "string",
          "name": "username",
          "type": "string"
        }
      ],
      "name": "UsernameSet",
      "type": "event"
    },
    {
      "inputs": [],
      "name": "POINTS_PER_CORRECT_ANSWER",
      "outputs": [
        {
          "internalType": "uint256",
          "name": "",
          "type": "uint256"
        }
      ],
      "stateMutability": "view",
      "type": "function"
    },
    {
      "inputs": [],
      "name": "QUESTIONS_PER_GAME",
      "outputs": [
        {
          "internalType": "uint256",
          "name": "",
          "type": "uint256"
        }
      ],
      "stateMutability": "view",
      "type": "function"
    },
    {
      "inputs": [],
      "name": "STREAK_LENGTH",
      "outputs": [
        {
          "internalType": "uint256",
          "name": "",
          "type": "uint256"
        }
      ],
      "stateMutability": "view",
      "type": "function"
    },
    {
      "inputs": [],
      "name": "STREAK_REWARD_POINTS",
      "outputs": [
        {
          "internalType": "uint256",
          "name": "",
          "type": "uint256"
        }
      ],
      "stateMutability": "view",
      "type": "function"
    },
    {
      "inputs": [
        {
          "internalType": "uint256",
          "name": "",
          "type": "uint256"
        }
      ],
      "name": "allPlayers",
      "outputs": [
        {
          "internalType": "address",
          "name": "",
          "type": "address"
        }
      ],
      "stateMutability": "view",
      "type": "function"
    },
    {
      "inputs": [
        {
          "internalType": "address",
          "name": "",
          "type": "address"
        },
        {
          "internalType": "uint256",
          "name": "",
          "type": "uint256"
        }
      ],
      "name": "correctAnswers",
      "outputs": [
        {
          "internalType": "uint256",
          "name": "",
          "type": "uint256"
        }
      ],
      "stateMutability": "view",
      "type": "function"
    },
    {
      "inputs": [],
      "name": "currentGameId",
      "outputs": [
        {
          "internalType": "uint256",
          "name": "",
          "type": "uint256"
        }
      ],
      "stateMutability": "view",
      "type": "function"
    },
    {
      "inputs": [],
      "name": "getGlobalLeaderboard",
      "outputs": [
        {
          "components": [
            {
              "internalType": "address",
              "name": "playerAddress",
              "type": "address"
            },
            {
              "internalType": "string",
              "name": "username",
              "type": "string"
            },
            {
              "internalType": "uint256",
              "name": "totalPoints",
              "type": "uint256"
            },
            {
              "internalType": "uint256",
              "name": "totalCorrect",
              "type": "uint256"
            },
            {
              "internalType": "uint256",
              "name": "stakedAmount",
              "type": "uint256"
            },
            {
              "internalType": "bool",
              "name": "hasStaked",
              "type": "bool"
            }
          ],
          "internalType": "struct GuessGame.Player[]",
          "name": "",
          "type": "tuple[]"
        }
      ],
      "stateMutability": "view",
      "type": "function"
    },
    {
      "inputs": [
        {
          "internalType": "address",
          "name": "playerAddress",
          "type": "address"
        }
      ],
      "name": "getPlayerDetails",
      "outputs": [
        {
          "components": [
            {
              "internalType": "address",
              "name": "playerAddress",
              "type": "address"
            },
            {
              "internalType": "string",
              "name": "username",
              "type": "string"
            },
            {
              "internalType": "uint256",
              "name": "totalPoints",
              "type": "uint256"
            },
            {
              "internalType": "uint256",
              "name": "totalCorrect",
              "type": "uint256"
            },
            {
              "internalType": "uint256",
              "name": "stakedAmount",
              "type": "uint256"
            },
            {
              "internalType": "bool",
              "name": "hasStaked",
              "type": "bool"
            }
          ],
          "internalType": "struct GuessGame.Player",
          "name": "",
          "type": "tuple"
        }
      ],
      "stateMutability": "view",
      "type": "function"
    },
    {
      "inputs": [
        {
          "internalType": "address",
          "name": "player",
          "type": "address"
        }
      ],
      "name": "getPlayerLatestGameResult",
      "outputs": [
        {
          "components": [
            {
              "internalType": "uint256",
              "name": "gameId",
              "type": "uint256"
            },
            {
              "internalType": "address",
              "name": "player",
              "type": "address"
            },
            {
              "internalType": "string",
              "name": "username",
              "type": "string"
            },
            {
              "internalType": "uint256",
              "name": "correctAnswers",
              "type": "uint256"
            },
            {
              "internalType": "uint256",
              "name": "totalPoints",
              "type": "uint256"
            },
            {
              "internalType": "uint256[10]",
              "name": "correctAnswerArray",
              "type": "uint256[10]"
            },
            {
              "internalType": "uint256[10]",
              "name": "userPredictions",
              "type": "uint256[10]"
            }
          ],
          "internalType": "struct GuessGame.GameResult",
          "name": "",
          "type": "tuple"
        }
      ],
      "stateMutability": "view",
      "type": "function"
    },
    {
      "inputs": [
        {
          "internalType": "address",
          "name": "playerAddress",
          "type": "address"
        }
      ],
      "name": "getPlayerScores",
      "outputs": [
        {
          "internalType": "uint256",
          "name": "totalPoints",
          "type": "uint256"
        },
        {
          "internalType": "uint256",
          "name": "totalCorrect",
          "type": "uint256"
        }
      ],
      "stateMutability": "view",
      "type": "function"
    },
    {
      "inputs": [],
      "name": "owner",
      "outputs": [
        {
          "internalType": "address",
          "name": "",
          "type": "address"
        }
      ],
      "stateMutability": "view",
      "type": "function"
    },
    {
      "inputs": [
        {
          "internalType": "address",
          "name": "",
          "type": "address"
        },
        {
          "internalType": "uint256",
          "name": "",
          "type": "uint256"
        }
      ],
      "name": "playerGameResults",
      "outputs": [
        {
          "internalType": "uint256",
          "name": "gameId",
          "type": "uint256"
        },
        {
          "internalType": "address",
          "name": "player",
          "type": "address"
        },
        {
          "internalType": "string",
          "name": "username",
          "type": "string"
        },
        {
          "internalType": "uint256",
          "name": "correctAnswers",
          "type": "uint256"
        },
        {
          "internalType": "uint256",
          "name": "totalPoints",
          "type": "uint256"
        }
      ],
      "stateMutability": "view",
      "type": "function"
    },
    {
      "inputs": [
        {
          "internalType": "address",
          "name": "",
          "type": "address"
        }
      ],
      "name": "players",
      "outputs": [
        {
          "internalType": "address",
          "name": "playerAddress",
          "type": "address"
        },
        {
          "internalType": "string",
          "name": "username",
          "type": "string"
        },
        {
          "internalType": "uint256",
          "name": "totalPoints",
          "type": "uint256"
        },
        {
          "internalType": "uint256",
          "name": "totalCorrect",
          "type": "uint256"
        },
        {
          "internalType": "uint256",
          "name": "stakedAmount",
          "type": "uint256"
        },
        {
          "internalType": "bool",
          "name": "hasStaked",
          "type": "bool"
        }
      ],
      "stateMutability": "view",
      "type": "function"
    },
    {
      "inputs": [
        {
          "internalType": "address",
          "name": "",
          "type": "address"
        }
      ],
      "name": "resultsGenerated",
      "outputs": [
        {
          "internalType": "bool",
          "name": "",
          "type": "bool"
        }
      ],
      "stateMutability": "view",
      "type": "function"
    },
    {
      "inputs": [
        {
          "internalType": "string",
          "name": "_username",
          "type": "string"
        }
      ],
      "name": "setUsername",
      "outputs": [],
      "stateMutability": "nonpayable",
      "type": "function"
    },
    {
      "inputs": [],
      "name": "stake",
      "outputs": [],
      "stateMutability": "payable",
      "type": "function"
    },
    {
      "inputs": [
        {
          "internalType": "uint256[10]",
          "name": "answers",
          "type": "uint256[10]"
        },
        {
          "internalType": "uint256[10]",
          "name": "_correctAnswers",
          "type": "uint256[10]"
        }
      ],
      "name": "submitPredictions",
      "outputs": [
        {
          "internalType": "bool",
          "name": "",
          "type": "bool"
        }
      ],
      "stateMutability": "nonpayable",
      "type": "function"
    },
    {
      "inputs": [
        {
          "internalType": "address",
          "name": "",
          "type": "address"
        },
        {
          "internalType": "uint256",
          "name": "",
          "type": "uint256"
        }
      ],
      "name": "userPredictions",
      "outputs": [
        {
          "internalType": "uint256",
          "name": "",
          "type": "uint256"
        }
      ],
      "stateMutability": "view",
      "type": "function"
    },
    {
      "inputs": [],
      "name": "withdrawFromContract",
      "outputs": [],
      "stateMutability": "nonpayable",
      "type": "function"
    }
  ],
  "bytecode": "0x6080604052348015600f57600080fd5b50336000806101000a81548173ffffffffffffffffffffffffffffffffffffffff021916908373ffffffffffffffffffffffffffffffffffffffff1602179055506001808190555061361c806100666000396000f3fe60806040526004361061011f5760003560e01c8063951c238f116100a0578063dea3e42d11610064578063dea3e42d146103f3578063e2eb41ff1461041e578063e6b6b39c14610460578063ed59313a146104a1578063f6c33179146104ca5761011f565b8063951c238f146102c1578063b162f257146102fe578063c8dd6ce71461033c578063ce9b009d14610379578063d3b592ad146103b65761011f565b806359d85553116100e757806359d85553146101ec5780635f589e4214610217578063761f430b1461022e5780637d7adffa1461026b5780638da5cb5b146102965761011f565b80630544ce5e14610124578063108eeb20146101615780631d5ba17a1461018c5780633a4b66f1146101b7578063536a3ddc146101c1575b600080fd5b34801561013057600080fd5b5061014b6004803603810190610146919061220b565b610507565b6040516101589190612279565b60405180910390f35b34801561016d57600080fd5b50610176610546565b60405161018391906122a3565b60405180910390f35b34801561019857600080fd5b506101a161054b565b6040516101ae91906124d2565b60405180910390f35b6101bf61088f565b005b3480156101cd57600080fd5b506101d66109c4565b6040516101e391906122a3565b60405180910390f35b3480156101f857600080fd5b506102016109ca565b60405161020e91906122a3565b60405180910390f35b34801561022357600080fd5b5061022c6109cf565b005b34801561023a57600080fd5b5061025560048036038101906102509190612520565b610be4565b604051610262919061255c565b60405180910390f35b34801561027757600080fd5b50610280610c04565b60405161028d91906122a3565b60405180910390f35b3480156102a257600080fd5b506102ab610c09565b6040516102b89190612279565b60405180910390f35b3480156102cd57600080fd5b506102e860048036038101906102e391906126ad565b610c2d565b6040516102f5919061255c565b60405180910390f35b34801561030a57600080fd5b5061032560048036038101906103209190612520565b610e98565b6040516103339291906126ef565b60405180910390f35b34801561034857600080fd5b50610363600480360381019061035e9190612520565b61101e565b60405161037091906127a1565b60405180910390f35b34801561038557600080fd5b506103a0600480360381019061039b91906127c3565b611198565b6040516103ad91906122a3565b60405180910390f35b3480156103c257600080fd5b506103dd60048036038101906103d89190612520565b6111c0565b6040516103ea919061293d565b60405180910390f35b3480156103ff57600080fd5b50610408611460565b60405161041591906122a3565b60405180910390f35b34801561042a57600080fd5b5061044560048036038101906104409190612520565b611465565b604051610457969594939291906129a9565b60405180910390f35b34801561046c57600080fd5b50610487600480360381019061048291906127c3565b611556565b604051610498959493929190612a11565b60405180910390f35b3480156104ad57600080fd5b506104c860048036038101906104c39190612b20565b611651565b005b3480156104d657600080fd5b506104f160048036038101906104ec91906127c3565b611a3d565b6040516104fe91906122a3565b60405180910390f35b6007818154811061051757600080fd5b906000526020600020016000915054906101000a900473ffffffffffffffffffffffffffffffffffffffff1681565b600a81565b60606000600780549050905060008167ffffffffffffffff8111156105735761057261257c565b5b6040519080825280602002602001820160405280156105ac57816020015b610599612094565b8152602001906001900390816105915790505b50905060005b8281101561078e5760026000600783815481106105d2576105d1612b69565b5b9060005260206000200160009054906101000a900473ffffffffffffffffffffffffffffffffffffffff1673ffffffffffffffffffffffffffffffffffffffff1673ffffffffffffffffffffffffffffffffffffffff1681526020019081526020016000206040518060c00160405290816000820160009054906101000a900473ffffffffffffffffffffffffffffffffffffffff1673ffffffffffffffffffffffffffffffffffffffff1673ffffffffffffffffffffffffffffffffffffffff1681526020016001820180546106a890612bc7565b80601f01602080910402602001604051908101604052809291908181526020018280546106d490612bc7565b80156107215780601f106106f657610100808354040283529160200191610721565b820191906000526020600020905b81548152906001019060200180831161070457829003601f168201915b505050505081526020016002820154815260200160038201548152602001600482015481526020016005820160009054906101000a900460ff16151515158152505082828151811061077657610775612b69565b5b602002602001018190525080806001019150506105b2565b5060005b828110156108865760006001826107a99190612c27565b90505b83811015610878578282815181106107c7576107c6612b69565b5b6020026020010151604001518382815181106107e6576107e5612b69565b5b602002602001015160400151111561086b5782818151811061080b5761080a612b69565b5b602002602001015183838151811061082657610825612b69565b5b602002602001015184848151811061084157610840612b69565b5b6020026020010185848151811061085b5761085a612b69565b5b6020026020010182905282905250505b80806001019150506107ac565b508080600101915050610792565b50809250505090565b600034116108d2576040517f08c379a00000000000000000000000000000000000000000000000000000000081526004016108c990612ca7565b60405180910390fd5b34600260003373ffffffffffffffffffffffffffffffffffffffff1673ffffffffffffffffffffffffffffffffffffffff168152602001908152602001600020600401819055506001600260003373ffffffffffffffffffffffffffffffffffffffff1673ffffffffffffffffffffffffffffffffffffffff16815260200190815260200160002060050160006101000a81548160ff0219169083151502179055503373ffffffffffffffffffffffffffffffffffffffff167f9e71bc8eea02a63969f509818f2dafb9254532904319f9dbda79b67bd34a5f3d346040516109ba91906122a3565b60405180910390a2565b60015481565b600381565b60008054906101000a900473ffffffffffffffffffffffffffffffffffffffff1673ffffffffffffffffffffffffffffffffffffffff163373ffffffffffffffffffffffffffffffffffffffff1614610a5d576040517f08c379a0000000000000000000000000000000000000000000000000000000008152600401610a5490612d13565b60405180910390fd5b600047905060008111610aa5576040517f08c379a0000000000000000000000000000000000000000000000000000000008152600401610a9c90612d7f565b60405180910390fd5b60008060009054906101000a900473ffffffffffffffffffffffffffffffffffffffff1673ffffffffffffffffffffffffffffffffffffffff1682604051610aec90612dd0565b60006040518083038185875af1925050503d8060008114610b29576040519150601f19603f3d011682016040523d82523d6000602084013e610b2e565b606091505b5050905080610b72576040517f08c379a0000000000000000000000000000000000000000000000000000000008152600401610b6990612e31565b60405180910390fd5b60008054906101000a900473ffffffffffffffffffffffffffffffffffffffff1673ffffffffffffffffffffffffffffffffffffffff167f7f36cb738e7e0427042dc19669b1186fd858a03b8e699e089a4306ab78a160cb83604051610bd891906122a3565b60405180910390a25050565b60066020528060005260406000206000915054906101000a900460ff1681565b600a81565b60008054906101000a900473ffffffffffffffffffffffffffffffffffffffff1681565b6000600260003373ffffffffffffffffffffffffffffffffffffffff1673ffffffffffffffffffffffffffffffffffffffff16815260200190815260200160002060050160009054906101000a900460ff16610cbe576040517f08c379a0000000000000000000000000000000000000000000000000000000008152600401610cb590612e9d565b60405180910390fd5b82600460003373ffffffffffffffffffffffffffffffffffffffff1673ffffffffffffffffffffffffffffffffffffffff16815260200190815260200160002090600a610d0c9291906120e2565b506001600660003373ffffffffffffffffffffffffffffffffffffffff1673ffffffffffffffffffffffffffffffffffffffff16815260200190815260200160002060006101000a81548160ff02191690831515021790555081600560003373ffffffffffffffffffffffffffffffffffffffff1673ffffffffffffffffffffffffffffffffffffffff16815260200190815260200160002090600a610db39291906120e2565b506001600260003373ffffffffffffffffffffffffffffffffffffffff1673ffffffffffffffffffffffffffffffffffffffff16815260200190815260200160002060050160006101000a81548160ff02191690831515021790555060016000815480929190610e2290612ebd565b91905055506000610e3233611a65565b90503373ffffffffffffffffffffffffffffffffffffffff167f9be7a41eef92d55e0e9dfa1825ca89f99504ba1e9e5ff12118704a8cc265873c8583604051610e7c929190612f67565b60405180910390a2610e8d33611ef7565b600191505092915050565b6000806000600260008573ffffffffffffffffffffffffffffffffffffffff1673ffffffffffffffffffffffffffffffffffffffff1681526020019081526020016000206040518060c00160405290816000820160009054906101000a900473ffffffffffffffffffffffffffffffffffffffff1673ffffffffffffffffffffffffffffffffffffffff1673ffffffffffffffffffffffffffffffffffffffff168152602001600182018054610f4d90612bc7565b80601f0160208091040260200160405190810160405280929190818152602001828054610f7990612bc7565b8015610fc65780601f10610f9b57610100808354040283529160200191610fc6565b820191906000526020600020905b815481529060010190602001808311610fa957829003601f168201915b505050505081526020016002820154815260200160038201548152602001600482015481526020016005820160009054906101000a900460ff1615151515815250509050806040015181606001519250925050915091565b611026612094565b600260008373ffffffffffffffffffffffffffffffffffffffff1673ffffffffffffffffffffffffffffffffffffffff1681526020019081526020016000206040518060c00160405290816000820160009054906101000a900473ffffffffffffffffffffffffffffffffffffffff1673ffffffffffffffffffffffffffffffffffffffff1673ffffffffffffffffffffffffffffffffffffffff1681526020016001820180546110d690612bc7565b80601f016020809104026020016040519081016040528092919081815260200182805461110290612bc7565b801561114f5780601f106111245761010080835404028352916020019161114f565b820191906000526020600020905b81548152906001019060200180831161113257829003601f168201915b505050505081526020016002820154815260200160038201548152602001600482015481526020016005820160009054906101000a900460ff1615151515815250509050919050565b600560205281600052604060002081600a81106111b457600080fd5b01600091509150505481565b6111c8612122565b6000600360008473ffffffffffffffffffffffffffffffffffffffff1673ffffffffffffffffffffffffffffffffffffffff16815260200190815260200160002080549050905060008111611252576040517f08c379a000000000000000000000000000000000000000000000000000000000815260040161124990612fe5565b60405180910390fd5b600360008473ffffffffffffffffffffffffffffffffffffffff1673ffffffffffffffffffffffffffffffffffffffff16815260200190815260200160002060018261129e9190613005565b815481106112af576112ae612b69565b5b90600052602060002090601902016040518060e0016040529081600082015481526020016001820160009054906101000a900473ffffffffffffffffffffffffffffffffffffffff1673ffffffffffffffffffffffffffffffffffffffff1673ffffffffffffffffffffffffffffffffffffffff16815260200160028201805461133890612bc7565b80601f016020809104026020016040519081016040528092919081815260200182805461136490612bc7565b80156113b15780601f10611386576101008083540402835291602001916113b1565b820191906000526020600020905b81548152906001019060200180831161139457829003601f168201915b50505050508152602001600382015481526020016004820154815260200160058201600a806020026040519081016040528092919082600a801561140a576020028201915b8154815260200190600101908083116113f6575b50505050508152602001600f8201600a806020026040519081016040528092919082600a801561144f576020028201915b81548152602001906001019080831161143b575b505050505081525050915050919050565b603281565b60026020528060005260406000206000915090508060000160009054906101000a900473ffffffffffffffffffffffffffffffffffffffff16908060010180546114ae90612bc7565b80601f01602080910402602001604051908101604052809291908181526020018280546114da90612bc7565b80156115275780601f106114fc57610100808354040283529160200191611527565b820191906000526020600020905b81548152906001019060200180831161150a57829003601f168201915b5050505050908060020154908060030154908060040154908060050160009054906101000a900460ff16905086565b6003602052816000526040600020818154811061157257600080fd5b9060005260206000209060190201600091509150508060000154908060010160009054906101000a900473ffffffffffffffffffffffffffffffffffffffff16908060020180546115c290612bc7565b80601f01602080910402602001604051908101604052809291908181526020018280546115ee90612bc7565b801561163b5780601f106116105761010080835404028352916020019161163b565b820191906000526020600020905b81548152906001019060200180831161161e57829003601f168201915b5050505050908060030154908060040154905085565b6000815111611695576040517f08c379a000000000000000000000000000000000000000000000000000000000815260040161168c90613085565b60405180910390fd5b60005b60078054905081101561178f57818051906020012060026000600784815481106116c5576116c4612b69565b5b9060005260206000200160009054906101000a900473ffffffffffffffffffffffffffffffffffffffff1673ffffffffffffffffffffffffffffffffffffffff1673ffffffffffffffffffffffffffffffffffffffff16815260200190815260200160002060010160405161173a919061313d565b604051809103902003611782576040517f08c379a0000000000000000000000000000000000000000000000000000000008152600401611779906131a0565b60405180910390fd5b8080600101915050611698565b506000600260003373ffffffffffffffffffffffffffffffffffffffff1673ffffffffffffffffffffffffffffffffffffffff16815260200190815260200160002060010180546117df90612bc7565b905014611821576040517f08c379a00000000000000000000000000000000000000000000000000000000081526004016118189061320c565b60405180910390fd5b600073ffffffffffffffffffffffffffffffffffffffff16600260003373ffffffffffffffffffffffffffffffffffffffff1673ffffffffffffffffffffffffffffffffffffffff16815260200190815260200160002060000160009054906101000a900473ffffffffffffffffffffffffffffffffffffffff1673ffffffffffffffffffffffffffffffffffffffff160361199c5733600260003373ffffffffffffffffffffffffffffffffffffffff1673ffffffffffffffffffffffffffffffffffffffff16815260200190815260200160002060000160006101000a81548173ffffffffffffffffffffffffffffffffffffffff021916908373ffffffffffffffffffffffffffffffffffffffff1602179055506007339080600181540180825580915050600190039060005260206000200160009091909190916101000a81548173ffffffffffffffffffffffffffffffffffffffff021916908373ffffffffffffffffffffffffffffffffffffffff1602179055505b80600260003373ffffffffffffffffffffffffffffffffffffffff1673ffffffffffffffffffffffffffffffffffffffff16815260200190815260200160002060010190816119eb91906133d8565b503373ffffffffffffffffffffffffffffffffffffffff167f74d8e560d2e870c35b35dc882df2a5c96e2bf1cdb5ef6dd2f9cb433c8d04885382604051611a3291906134aa565b60405180910390a250565b600460205281600052604060002081600a8110611a5957600080fd5b01600091509150505481565b611a6d612122565b600660008373ffffffffffffffffffffffffffffffffffffffff1673ffffffffffffffffffffffffffffffffffffffff16815260200190815260200160002060009054906101000a900460ff16611af9576040517f08c379a0000000000000000000000000000000000000000000000000000000008152600401611af090613518565b60405180910390fd5b6000600260008473ffffffffffffffffffffffffffffffffffffffff1673ffffffffffffffffffffffffffffffffffffffff1681526020019081526020016000209050600080600460008673ffffffffffffffffffffffffffffffffffffffff1673ffffffffffffffffffffffffffffffffffffffff168152602001908152602001600020600a806020026040519081016040528092919082600a8015611bb5576020028201915b815481526020019060010190808311611ba1575b505050505090506000600560008773ffffffffffffffffffffffffffffffffffffffff1673ffffffffffffffffffffffffffffffffffffffff168152602001908152602001600020600a806020026040519081016040528092919082600a8015611c34576020028201915b815481526020019060010190808311611c20575b5050505050905060005b600a811015611c98578181600a8110611c5a57611c59612b69565b5b60200201518382600a8110611c7257611c71612b69565b5b602002015103611c8b578380611c8790612ebd565b9450505b8080600101915050611c3e565b506000600a84611ca89190613538565b905060038410611cc257603281611cbf9190612c27565b90505b83856003016000828254611cd69190612c27565b9250508190555080856002016000828254611cf19190612c27565b9250508190555060006040518060e0016040528060015481526020018973ffffffffffffffffffffffffffffffffffffffff168152602001876001018054611d3890612bc7565b80601f0160208091040260200160405190810160405280929190818152602001828054611d6490612bc7565b8015611db15780601f10611d8657610100808354040283529160200191611db1565b820191906000526020600020905b815481529060010190602001808311611d9457829003601f168201915b50505050508152602001868152602001838152602001848152602001858152509050600360008973ffffffffffffffffffffffffffffffffffffffff1673ffffffffffffffffffffffffffffffffffffffff1681526020019081526020016000208190806001815401808255809150506001900390600052602060002090601902016000909190919091506000820151816000015560208201518160010160006101000a81548173ffffffffffffffffffffffffffffffffffffffff021916908373ffffffffffffffffffffffffffffffffffffffff1602179055506040820151816002019081611ea291906133d8565b50606082015181600301556080820151816004015560a08201518160050190600a611ece9291906120e2565b5060c082015181600f0190600a611ee69291906120e2565b505050809650505050505050919050565b6000600260008373ffffffffffffffffffffffffffffffffffffffff1673ffffffffffffffffffffffffffffffffffffffff16815260200190815260200160002090506000816004015411611f81576040517f08c379a0000000000000000000000000000000000000000000000000000000008152600401611f78906135c6565b60405180910390fd5b6000816004015490506000826004018190555060008373ffffffffffffffffffffffffffffffffffffffff1682604051611fba90612dd0565b60006040518083038185875af1925050503d8060008114611ff7576040519150601f19603f3d011682016040523d82523d6000602084013e611ffc565b606091505b5050905080612040576040517f08c379a000000000000000000000000000000000000000000000000000000000815260040161203790612e31565b60405180910390fd5b8373ffffffffffffffffffffffffffffffffffffffff167f8108595eb6bad3acefa9da467d90cc2217686d5c5ac85460f8b7849c840645fc8360405161208691906122a3565b60405180910390a250505050565b6040518060c00160405280600073ffffffffffffffffffffffffffffffffffffffff168152602001606081526020016000815260200160008152602001600081526020016000151581525090565b82600a8101928215612111579160200282015b828111156121105782518255916020019190600101906120f5565b5b50905061211e9190612181565b5090565b6040518060e0016040528060008152602001600073ffffffffffffffffffffffffffffffffffffffff16815260200160608152602001600081526020016000815260200161216e61219e565b815260200161217b61219e565b81525090565b5b8082111561219a576000816000905550600101612182565b5090565b604051806101400160405280600a90602082028036833780820191505090505090565b6000604051905090565b600080fd5b600080fd5b6000819050919050565b6121e8816121d5565b81146121f357600080fd5b50565b600081359050612205816121df565b92915050565b600060208284031215612221576122206121cb565b5b600061222f848285016121f6565b91505092915050565b600073ffffffffffffffffffffffffffffffffffffffff82169050919050565b600061226382612238565b9050919050565b61227381612258565b82525050565b600060208201905061228e600083018461226a565b92915050565b61229d816121d5565b82525050565b60006020820190506122b86000830184612294565b92915050565b600081519050919050565b600082825260208201905092915050565b6000819050602082019050919050565b6122f381612258565b82525050565b600081519050919050565b600082825260208201905092915050565b60005b83811015612333578082015181840152602081019050612318565b60008484015250505050565b6000601f19601f8301169050919050565b600061235b826122f9565b6123658185612304565b9350612375818560208601612315565b61237e8161233f565b840191505092915050565b612392816121d5565b82525050565b60008115159050919050565b6123ad81612398565b82525050565b600060c0830160008301516123cb60008601826122ea565b50602083015184820360208601526123e38282612350565b91505060408301516123f86040860182612389565b50606083015161240b6060860182612389565b50608083015161241e6080860182612389565b5060a083015161243160a08601826123a4565b508091505092915050565b600061244883836123b3565b905092915050565b6000602082019050919050565b6000612468826122be565b61247281856122c9565b935083602082028501612484856122da565b8060005b858110156124c057848403895281516124a1858261243c565b94506124ac83612450565b925060208a01995050600181019050612488565b50829750879550505050505092915050565b600060208201905081810360008301526124ec818461245d565b905092915050565b6124fd81612258565b811461250857600080fd5b50565b60008135905061251a816124f4565b92915050565b600060208284031215612536576125356121cb565b5b60006125448482850161250b565b91505092915050565b61255681612398565b82525050565b6000602082019050612571600083018461254d565b92915050565b600080fd5b7f4e487b7100000000000000000000000000000000000000000000000000000000600052604160045260246000fd5b6125b48261233f565b810181811067ffffffffffffffff821117156125d3576125d261257c565b5b80604052505050565b60006125e66121c1565b90506125f282826125ab565b919050565b600067ffffffffffffffff8211156126125761261161257c565b5b602082029050919050565b600080fd5b6000612635612630846125f7565b6125dc565b9050806020840283018581111561264f5761264e61261d565b5b835b81811015612678578061266488826121f6565b845260208401935050602081019050612651565b5050509392505050565b600082601f83011261269757612696612577565b5b600a6126a4848285612622565b91505092915050565b60008061028083850312156126c5576126c46121cb565b5b60006126d385828601612682565b9250506101406126e585828601612682565b9150509250929050565b60006040820190506127046000830185612294565b6127116020830184612294565b9392505050565b600060c08301600083015161273060008601826122ea565b50602083015184820360208601526127488282612350565b915050604083015161275d6040860182612389565b5060608301516127706060860182612389565b5060808301516127836080860182612389565b5060a083015161279660a08601826123a4565b508091505092915050565b600060208201905081810360008301526127bb8184612718565b905092915050565b600080604083850312156127da576127d96121cb565b5b60006127e88582860161250b565b92505060206127f9858286016121f6565b9150509250929050565b6000600a9050919050565b600081905092915050565b6000819050919050565b600061282f8383612389565b60208301905092915050565b6000602082019050919050565b61285181612803565b61285b818461280e565b925061286682612819565b8060005b8381101561289757815161287e8782612823565b96506128898361283b565b92505060018101905061286a565b505050505050565b6000610320830160008301516128b86000860182612389565b5060208301516128cb60208601826122ea565b50604083015184820360408601526128e38282612350565b91505060608301516128f86060860182612389565b50608083015161290b6080860182612389565b5060a083015161291e60a0860182612848565b5060c08301516129326101e0860182612848565b508091505092915050565b60006020820190508181036000830152612957818461289f565b905092915050565b600082825260208201905092915050565b600061297b826122f9565b612985818561295f565b9350612995818560208601612315565b61299e8161233f565b840191505092915050565b600060c0820190506129be600083018961226a565b81810360208301526129d08188612970565b90506129df6040830187612294565b6129ec6060830186612294565b6129f96080830185612294565b612a0660a083018461254d565b979650505050505050565b600060a082019050612a266000830188612294565b612a33602083018761226a565b8181036040830152612a458186612970565b9050612a546060830185612294565b612a616080830184612294565b9695505050505050565b600080fd5b600067ffffffffffffffff821115612a8b57612a8a61257c565b5b612a948261233f565b9050602081019050919050565b82818337600083830152505050565b6000612ac3612abe84612a70565b6125dc565b905082815260208101848484011115612adf57612ade612a6b565b5b612aea848285612aa1565b509392505050565b600082601f830112612b0757612b06612577565b5b8135612b17848260208601612ab0565b91505092915050565b600060208284031215612b3657612b356121cb565b5b600082013567ffffffffffffffff811115612b5457612b536121d0565b5b612b6084828501612af2565b91505092915050565b7f4e487b7100000000000000000000000000000000000000000000000000000000600052603260045260246000fd5b7f4e487b7100000000000000000000000000000000000000000000000000000000600052602260045260246000fd5b60006002820490506001821680612bdf57607f821691505b602082108103612bf257612bf1612b98565b5b50919050565b7f4e487b7100000000000000000000000000000000000000000000000000000000600052601160045260246000fd5b6000612c32826121d5565b9150612c3d836121d5565b9250828201905080821115612c5557612c54612bf8565b5b92915050565b7f4d757374207374616b6520736f6d652045544800000000000000000000000000600082015250565b6000612c9160138361295f565b9150612c9c82612c5b565b602082019050919050565b60006020820190508181036000830152612cc081612c84565b9050919050565b7f4e6f7420636f6e7472616374206f776e65720000000000000000000000000000600082015250565b6000612cfd60128361295f565b9150612d0882612cc7565b602082019050919050565b60006020820190508181036000830152612d2c81612cf0565b9050919050565b7f4e6f2066756e647320746f207769746864726177000000000000000000000000600082015250565b6000612d6960148361295f565b9150612d7482612d33565b602082019050919050565b60006020820190508181036000830152612d9881612d5c565b9050919050565b600081905092915050565b50565b6000612dba600083612d9f565b9150612dc582612daa565b600082019050919050565b6000612ddb82612dad565b9150819050919050565b7f5472616e73666572206661696c65640000000000000000000000000000000000600082015250565b6000612e1b600f8361295f565b9150612e2682612de5565b602082019050919050565b60006020820190508181036000830152612e4a81612e0e565b9050919050565b7f4d757374207374616b65206265666f72652070726564696374696e6700000000600082015250565b6000612e87601c8361295f565b9150612e9282612e51565b602082019050919050565b60006020820190508181036000830152612eb681612e7a565b9050919050565b6000612ec8826121d5565b91507fffffffffffffffffffffffffffffffffffffffffffffffffffffffffffffffff8203612efa57612ef9612bf8565b5b600182019050919050565b600081905092915050565b612f1981612803565b612f238184612f05565b9250612f2e82612819565b8060005b83811015612f5f578151612f468782612823565b9650612f518361283b565b925050600181019050612f32565b505050505050565b600061016082019050612f7d6000830185612f10565b818103610140830152612f90818461289f565b90509392505050565b7f4e6f2067616d657320706c617965642079657400000000000000000000000000600082015250565b6000612fcf60138361295f565b9150612fda82612f99565b602082019050919050565b60006020820190508181036000830152612ffe81612fc2565b9050919050565b6000613010826121d5565b915061301b836121d5565b925082820390508181111561303357613032612bf8565b5b92915050565b7f557365726e616d652063616e6e6f7420626520656d7074790000000000000000600082015250565b600061306f60188361295f565b915061307a82613039565b602082019050919050565b6000602082019050818103600083015261309e81613062565b9050919050565b60008190508160005260206000209050919050565b600081546130c781612bc7565b6130d18186612d9f565b945060018216600081146130ec576001811461310157613134565b60ff1983168652811515820286019350613134565b61310a856130a5565b60005b8381101561312c5781548189015260018201915060208101905061310d565b838801955050505b50505092915050565b600061314982846130ba565b915081905092915050565b7f557365726e616d6520616c72656164792074616b656e00000000000000000000600082015250565b600061318a60168361295f565b915061319582613154565b602082019050919050565b600060208201905081810360008301526131b98161317d565b9050919050565b7f557365726e616d6520616c726561647920736574000000000000000000000000600082015250565b60006131f660148361295f565b9150613201826131c0565b602082019050919050565b60006020820190508181036000830152613225816131e9565b9050919050565b60008190508160005260206000209050919050565b60006020601f8301049050919050565b600082821b905092915050565b60006008830261328e7fffffffffffffffffffffffffffffffffffffffffffffffffffffffffffffffff82613251565b6132988683613251565b95508019841693508086168417925050509392505050565b6000819050919050565b60006132d56132d06132cb846121d5565b6132b0565b6121d5565b9050919050565b6000819050919050565b6132ef836132ba565b6133036132fb826132dc565b84845461325e565b825550505050565b600090565b61331861330b565b6133238184846132e6565b505050565b5b818110156133475761333c600082613310565b600181019050613329565b5050565b601f82111561338c5761335d8161322c565b61336684613241565b81016020851015613375578190505b61338961338185613241565b830182613328565b50505b505050565b600082821c905092915050565b60006133af60001984600802613391565b1980831691505092915050565b60006133c8838361339e565b9150826002028217905092915050565b6133e1826122f9565b67ffffffffffffffff8111156133fa576133f961257c565b5b6134048254612bc7565b61340f82828561334b565b600060209050601f8311600181146134425760008415613430578287015190505b61343a85826133bc565b8655506134a2565b601f1984166134508661322c565b60005b8281101561347857848901518255600182019150602085019450602081019050613453565b868310156134955784890151613491601f89168261339e565b8355505b6001600288020188555050505b505050505050565b600060208201905081810360008301526134c48184612970565b905092915050565b7f526573756c7473206e6f742067656e6572617465640000000000000000000000600082015250565b600061350260158361295f565b915061350d826134cc565b602082019050919050565b60006020820190508181036000830152613531816134f5565b9050919050565b6000613543826121d5565b915061354e836121d5565b925082820261355c816121d5565b9150828204841483151761357357613572612bf8565b5b5092915050565b7f4e6f207374616b6520746f207769746864726177000000000000000000000000600082015250565b60006135b060148361295f565b91506135bb8261357a565b602082019050919050565b600060208201905081810360008301526135df816135a3565b905091905056fea26469706673582212203f2ec69fbfb5d7320a9906045e9477176767b915c4e97603f3c937043b8e94f664736f6c634300081c0033",
  "linkReferences": {},
  "deployedLinkReferences": {}
}