{"abi":[{"type":"constructor","inputs":[],"stateMutability":"nonpayable"},{"type":"function","name":"createMatchPool","inputs":[{"name":"_roiYes","type":"uint256","internalType":"uint256"},{"name":"_roiNo","type":"uint256","internalType":"uint256"},{"name":"_deadline","type":"uint256","internalType":"uint256"}],"outputs":[],"stateMutability":"nonpayable"},{"type":"function","name":"createPlayer","inputs":[{"name":"_username","type":"string","internalType":"string"}],"outputs":[],"stateMutability":"nonpayable"},{"type":"function","name":"getPlayerDetails","inputs":[{"name":"_playerAddress","type":"address","internalType":"address"}],"outputs":[{"name":"","type":"tuple","internalType":"struct Game.Player","components":[{"name":"playerAddress","type":"address","internalType":"address"},{"name":"username","type":"string","internalType":"string"},{"name":"totalPoints","type":"uint256","internalType":"uint256"},{"name":"correctPredictions","type":"uint256","internalType":"uint256"},{"name":"totalPredictions","type":"uint256","internalType":"uint256"}]}],"stateMutability":"view"},{"type":"function","name":"getPoolDetails","inputs":[{"name":"_poolId","type":"uint256","internalType":"uint256"}],"outputs":[{"name":"roiYes","type":"uint256","internalType":"uint256"},{"name":"roiNo","type":"uint256","internalType":"uint256"},{"name":"totalAmount","type":"uint256","internalType":"uint256"},{"name":"deadline","type":"uint256","internalType":"uint256"},{"name":"correctAnswer","type":"uint8","internalType":"enum Game.Answer"}],"stateMutability":"view"},{"type":"function","name":"matchPools","inputs":[{"name":"","type":"uint256","internalType":"uint256"}],"outputs":[{"name":"roiYes","type":"uint256","internalType":"uint256"},{"name":"roiNo","type":"uint256","internalType":"uint256"},{"name":"totalAmount","type":"uint256","internalType":"uint256"},{"name":"deadline","type":"uint256","internalType":"uint256"},{"name":"correctAnswer","type":"uint8","internalType":"enum Game.Answer"}],"stateMutability":"view"},{"type":"function","name":"owner","inputs":[],"outputs":[{"name":"","type":"address","internalType":"address"}],"stateMutability":"view"},{"type":"function","name":"players","inputs":[{"name":"","type":"address","internalType":"address"}],"outputs":[{"name":"playerAddress","type":"address","internalType":"address"},{"name":"username","type":"string","internalType":"string"},{"name":"totalPoints","type":"uint256","internalType":"uint256"},{"name":"correctPredictions","type":"uint256","internalType":"uint256"},{"name":"totalPredictions","type":"uint256","internalType":"uint256"}],"stateMutability":"view"},{"type":"function","name":"predict","inputs":[{"name":"_poolId","type":"uint256","internalType":"uint256"},{"name":"_answer","type":"uint8","internalType":"enum Game.Answer"}],"outputs":[],"stateMutability":"payable"},{"type":"function","name":"updateCorrectAnswer","inputs":[{"name":"_poolId","type":"uint256","internalType":"uint256"},{"name":"_answer","type":"uint8","internalType":"enum Game.Answer"}],"outputs":[],"stateMutability":"nonpayable"},{"type":"event","name":"AnswerSet","inputs":[{"name":"poolId","type":"uint256","indexed":true,"internalType":"uint256"},{"name":"answer","type":"uint256","indexed":false,"internalType":"uint256"}],"anonymous":false},{"type":"event","name":"MatchCreated","inputs":[{"name":"poolId","type":"uint256","indexed":true,"internalType":"uint256"},{"name":"roiYes","type":"uint256","indexed":false,"internalType":"uint256"},{"name":"roiNo","type":"uint256","indexed":false,"internalType":"uint256"},{"name":"deadline","type":"uint256","indexed":false,"internalType":"uint256"}],"anonymous":false},{"type":"event","name":"PlayerRegistered","inputs":[{"name":"player","type":"address","indexed":true,"internalType":"address"},{"name":"username","type":"string","indexed":false,"internalType":"string"}],"anonymous":false},{"type":"error","name":"InvalidAnswer","inputs":[]},{"type":"error","name":"InvalidDeadline","inputs":[]},{"type":"error","name":"InvalidPoolId","inputs":[]},{"type":"error","name":"InvalidRoi","inputs":[]},{"type":"error","name":"InvalidStake","inputs":[]},{"type":"error","name":"UsernameCannotBeEmpty","inputs":[]}],"bytecode":{"object":"0x6080604052348015600e575f5ffd5b503360015f6101000a81548173ffffffffffffffffffffffffffffffffffffffff021916908373ffffffffffffffffffffffffffffffffffffffff1602179055506118838061005c5f395ff3fe608060405260043610610085575f3560e01c8063bb38940e11610058578063bb38940e14610137578063c499b9cd14610177578063c8dd6ce71461019f578063e2eb41ff146101db578063e79b044f1461021b57610085565b806384ec1ed2146100895780638da5cb5b146100a5578063b586a740146100cf578063b8764c39146100f7575b5f5ffd5b6100a3600480360381019061009e9190610da2565b610243565b005b3480156100b0575f5ffd5b506100b961056a565b6040516100c69190610e1f565b60405180910390f35b3480156100da575f5ffd5b506100f560048036038101906100f09190610f74565b61058f565b005b348015610102575f5ffd5b5061011d60048036038101906101189190610fbb565b61070e565b60405161012e959493929190611068565b60405180910390f35b348015610142575f5ffd5b5061015d60048036038101906101589190610fbb565b61075f565b60405161016e959493929190611068565b60405180910390f35b348015610182575f5ffd5b5061019d600480360381019061019891906110b9565b61079d565b005b3480156101aa575f5ffd5b506101c560048036038101906101c09190611133565b610952565b6040516101d2919061124f565b60405180910390f35b3480156101e6575f5ffd5b5061020160048036038101906101fc9190611133565b610aaa565b6040516102129594939291906112b7565b60405180910390f35b348015610226575f5ffd5b50610241600480360381019061023c9190610da2565b610b80565b005b3373ffffffffffffffffffffffffffffffffffffffff165f5f3373ffffffffffffffffffffffffffffffffffffffff1673ffffffffffffffffffffffffffffffffffffffff1681526020019081526020015f205f015f9054906101000a900473ffffffffffffffffffffffffffffffffffffffff1673ffffffffffffffffffffffffffffffffffffffff161461030e576040517f08c379a00000000000000000000000000000000000000000000000000000000081526004016103059061137f565b60405180910390fd5b5f60035f8481526020019081526020015f2090504281600301541015610360576040517f769d11e400000000000000000000000000000000000000000000000000000000815260040160405180910390fd5b5f600281111561037357610372610ff5565b5b82600281111561038657610385610ff5565b5b036103bd576040517fb5f71a2e00000000000000000000000000000000000000000000000000000000815260040160405180910390fd5b5f34036103f6576040517f9d749a9200000000000000000000000000000000000000000000000000000000815260040160405180910390fd5b5f831480610405575060025483115b1561043c576040517f0afa7ee800000000000000000000000000000000000000000000000000000000815260040160405180910390fd5b34816005015f3373ffffffffffffffffffffffffffffffffffffffff1673ffffffffffffffffffffffffffffffffffffffff1681526020019081526020015f205f82825461048a91906113ca565b9250508190555034816002015f8282546104a491906113ca565b9250508190555081816006015f3373ffffffffffffffffffffffffffffffffffffffff1673ffffffffffffffffffffffffffffffffffffffff1681526020019081526020015f205f6101000a81548160ff0219169083600281111561050c5761050b610ff5565b5b02179055505f5f3373ffffffffffffffffffffffffffffffffffffffff1673ffffffffffffffffffffffffffffffffffffffff1681526020019081526020015f206004015f815480929190610560906113fd565b9190505550505050565b60015f9054906101000a900473ffffffffffffffffffffffffffffffffffffffff1681565b5f8151036105c9576040517fbae519da00000000000000000000000000000000000000000000000000000000815260040160405180910390fd5b6040518060a001604052803373ffffffffffffffffffffffffffffffffffffffff1681526020018281526020015f81526020015f81526020015f8152505f5f3373ffffffffffffffffffffffffffffffffffffffff1673ffffffffffffffffffffffffffffffffffffffff1681526020019081526020015f205f820151815f015f6101000a81548173ffffffffffffffffffffffffffffffffffffffff021916908373ffffffffffffffffffffffffffffffffffffffff160217905550602082015181600101908161069b9190611641565b506040820151816002015560608201518160030155608082015181600401559050503373ffffffffffffffffffffffffffffffffffffffff167fe04d23b73ae3d3b27074da9719b5a4cd521395aaf86bfe7e374933ecb567731a826040516107039190611710565b60405180910390a250565b5f5f5f5f5f5f60035f8881526020019081526020015f209050805f0154816001015482600201548360030154846004015f9054906101000a900460ff16955095509550955095505091939590929450565b6003602052805f5260405f205f91509050805f015490806001015490806002015490806003015490806004015f9054906101000a900460ff16905085565b60015f9054906101000a900473ffffffffffffffffffffffffffffffffffffffff1673ffffffffffffffffffffffffffffffffffffffff163373ffffffffffffffffffffffffffffffffffffffff161461082c576040517f08c379a0000000000000000000000000000000000000000000000000000000008152600401610823906117a0565b60405180910390fd5b5f83148061083957505f82145b15610870576040517f3a08c50500000000000000000000000000000000000000000000000000000000815260040160405180910390fd5b5f81036108a9576040517f769d11e400000000000000000000000000000000000000000000000000000000815260040160405180910390fd5b5f4262015180836108ba91906117be565b6108c491906113ca565b905060025f8154809291906108d8906113fd565b91905055505f60035f60025481526020019081526020015f20905084815f01819055508381600101819055508181600301819055506002547fb4ac4ed0731b859e8e643e842c48ff0a96c8006bebe435317e13f82818805b28868685604051610943939291906117ff565b60405180910390a25050505050565b61095a610cfa565b5f5f8373ffffffffffffffffffffffffffffffffffffffff1673ffffffffffffffffffffffffffffffffffffffff1681526020019081526020015f206040518060a00160405290815f82015f9054906101000a900473ffffffffffffffffffffffffffffffffffffffff1673ffffffffffffffffffffffffffffffffffffffff1673ffffffffffffffffffffffffffffffffffffffff168152602001600182018054610a0590611471565b80601f0160208091040260200160405190810160405280929190818152602001828054610a3190611471565b8015610a7c5780601f10610a5357610100808354040283529160200191610a7c565b820191905f5260205f20905b815481529060010190602001808311610a5f57829003601f168201915b5050505050815260200160028201548152602001600382015481526020016004820154815250509050919050565b5f602052805f5260405f205f91509050805f015f9054906101000a900473ffffffffffffffffffffffffffffffffffffffff1690806001018054610aed90611471565b80601f0160208091040260200160405190810160405280929190818152602001828054610b1990611471565b8015610b645780601f10610b3b57610100808354040283529160200191610b64565b820191905f5260205f20905b815481529060010190602001808311610b4757829003601f168201915b5050505050908060020154908060030154908060040154905085565b60015f9054906101000a900473ffffffffffffffffffffffffffffffffffffffff1673ffffffffffffffffffffffffffffffffffffffff163373ffffffffffffffffffffffffffffffffffffffff1614610c0f576040517f08c379a0000000000000000000000000000000000000000000000000000000008152600401610c06906117a0565b60405180910390fd5b5f60035f8481526020019081526020015f2090505f6002811115610c3657610c35610ff5565b5b826002811115610c4957610c48610ff5565b5b03610c80576040517fb5f71a2e00000000000000000000000000000000000000000000000000000000815260040160405180910390fd5b81816004015f6101000a81548160ff02191690836002811115610ca657610ca5610ff5565b5b0217905550827f4772d83d7289b527150ec81022e02e39b5b278f66492d7f0702903636f33396d836002811115610ce057610cdf610ff5565b5b604051610ced9190611834565b60405180910390a2505050565b6040518060a001604052805f73ffffffffffffffffffffffffffffffffffffffff168152602001606081526020015f81526020015f81526020015f81525090565b5f604051905090565b5f5ffd5b5f5ffd5b5f819050919050565b610d5e81610d4c565b8114610d68575f5ffd5b50565b5f81359050610d7981610d55565b92915050565b60038110610d8b575f5ffd5b50565b5f81359050610d9c81610d7f565b92915050565b5f5f60408385031215610db857610db7610d44565b5b5f610dc585828601610d6b565b9250506020610dd685828601610d8e565b9150509250929050565b5f73ffffffffffffffffffffffffffffffffffffffff82169050919050565b5f610e0982610de0565b9050919050565b610e1981610dff565b82525050565b5f602082019050610e325f830184610e10565b92915050565b5f5ffd5b5f5ffd5b5f601f19601f8301169050919050565b7f4e487b71000000000000000000000000000000000000000000000000000000005f52604160045260245ffd5b610e8682610e40565b810181811067ffffffffffffffff82111715610ea557610ea4610e50565b5b80604052505050565b5f610eb7610d3b565b9050610ec38282610e7d565b919050565b5f67ffffffffffffffff821115610ee257610ee1610e50565b5b610eeb82610e40565b9050602081019050919050565b828183375f83830152505050565b5f610f18610f1384610ec8565b610eae565b905082815260208101848484011115610f3457610f33610e3c565b5b610f3f848285610ef8565b509392505050565b5f82601f830112610f5b57610f5a610e38565b5b8135610f6b848260208601610f06565b91505092915050565b5f60208284031215610f8957610f88610d44565b5b5f82013567ffffffffffffffff811115610fa657610fa5610d48565b5b610fb284828501610f47565b91505092915050565b5f60208284031215610fd057610fcf610d44565b5b5f610fdd84828501610d6b565b91505092915050565b610fef81610d4c565b82525050565b7f4e487b71000000000000000000000000000000000000000000000000000000005f52602160045260245ffd5b6003811061103357611032610ff5565b5b50565b5f81905061104382611022565b919050565b5f61105282611036565b9050919050565b61106281611048565b82525050565b5f60a08201905061107b5f830188610fe6565b6110886020830187610fe6565b6110956040830186610fe6565b6110a26060830185610fe6565b6110af6080830184611059565b9695505050505050565b5f5f5f606084860312156110d0576110cf610d44565b5b5f6110dd86828701610d6b565b93505060206110ee86828701610d6b565b92505060406110ff86828701610d6b565b9150509250925092565b61111281610dff565b811461111c575f5ffd5b50565b5f8135905061112d81611109565b92915050565b5f6020828403121561114857611147610d44565b5b5f6111558482850161111f565b91505092915050565b61116781610dff565b82525050565b5f81519050919050565b5f82825260208201905092915050565b8281835e5f83830152505050565b5f61119f8261116d565b6111a98185611177565b93506111b9818560208601611187565b6111c281610e40565b840191505092915050565b6111d681610d4c565b82525050565b5f60a083015f8301516111f15f86018261115e565b50602083015184820360208601526112098282611195565b915050604083015161121e60408601826111cd565b50606083015161123160608601826111cd565b50608083015161124460808601826111cd565b508091505092915050565b5f6020820190508181035f83015261126781846111dc565b905092915050565b5f82825260208201905092915050565b5f6112898261116d565b611293818561126f565b93506112a3818560208601611187565b6112ac81610e40565b840191505092915050565b5f60a0820190506112ca5f830188610e10565b81810360208301526112dc818761127f565b90506112eb6040830186610fe6565b6112f86060830185610fe6565b6113056080830184610fe6565b9695505050505050565b7f47616d653a206f6e6c7920706c617965722063616e2063616c6c2074686973205f8201527f66756e6374696f6e000000000000000000000000000000000000000000000000602082015250565b5f61136960288361126f565b91506113748261130f565b604082019050919050565b5f6020820190508181035f8301526113968161135d565b9050919050565b7f4e487b71000000000000000000000000000000000000000000000000000000005f52601160045260245ffd5b5f6113d482610d4c565b91506113df83610d4c565b92508282019050808211156113f7576113f661139d565b5b92915050565b5f61140782610d4c565b91507fffffffffffffffffffffffffffffffffffffffffffffffffffffffffffffffff82036114395761143861139d565b5b600182019050919050565b7f4e487b71000000000000000000000000000000000000000000000000000000005f52602260045260245ffd5b5f600282049050600182168061148857607f821691505b60208210810361149b5761149a611444565b5b50919050565b5f819050815f5260205f209050919050565b5f6020601f8301049050919050565b5f82821b905092915050565b5f600883026114fd7fffffffffffffffffffffffffffffffffffffffffffffffffffffffffffffffff826114c2565b61150786836114c2565b95508019841693508086168417925050509392505050565b5f819050919050565b5f61154261153d61153884610d4c565b61151f565b610d4c565b9050919050565b5f819050919050565b61155b83611528565b61156f61156782611549565b8484546114ce565b825550505050565b5f5f905090565b611586611577565b611591818484611552565b505050565b5b818110156115b4576115a95f8261157e565b600181019050611597565b5050565b601f8211156115f9576115ca816114a1565b6115d3846114b3565b810160208510156115e2578190505b6115f66115ee856114b3565b830182611596565b50505b505050565b5f82821c905092915050565b5f6116195f19846008026115fe565b1980831691505092915050565b5f611631838361160a565b9150826002028217905092915050565b61164a8261116d565b67ffffffffffffffff81111561166357611662610e50565b5b61166d8254611471565b6116788282856115b8565b5f60209050601f8311600181146116a9575f8415611697578287015190505b6116a18582611626565b865550611708565b601f1984166116b7866114a1565b5f5b828110156116de578489015182556001820191506020850194506020810190506116b9565b868310156116fb57848901516116f7601f89168261160a565b8355505b6001600288020188555050505b505050505050565b5f6020820190508181035f830152611728818461127f565b905092915050565b7f47616d653a206f6e6c79206f776e65722063616e2063616c6c207468697320665f8201527f756e6374696f6e00000000000000000000000000000000000000000000000000602082015250565b5f61178a60278361126f565b915061179582611730565b604082019050919050565b5f6020820190508181035f8301526117b78161177e565b9050919050565b5f6117c882610d4c565b91506117d383610d4c565b92508282026117e181610d4c565b915082820484148315176117f8576117f761139d565b5b5092915050565b5f6060820190506118125f830186610fe6565b61181f6020830185610fe6565b61182c6040830184610fe6565b949350505050565b5f6020820190506118475f830184610fe6565b9291505056fea264697066735822122035428ce01cef690fdd2314d86ae2c265d82849a4f1f96b1f550b380f5431aa5264736f6c634300081c0033","linkReferences":{}},"methodIdentifiers":{"createMatchPool(uint256,uint256,uint256)":"c499b9cd","createPlayer(string)":"b586a740","getPlayerDetails(address)":"c8dd6ce7","getPoolDetails(uint256)":"b8764c39","matchPools(uint256)":"bb38940e","owner()":"8da5cb5b","players(address)":"e2eb41ff","predict(uint256,uint8)":"84ec1ed2","updateCorrectAnswer(uint256,uint8)":"e79b044f"},"id":15}