{"abi":[{"type":"constructor","inputs":[],"stateMutability":"nonpayable"},{"type":"function","name":"createMatchPool","inputs":[{"name":"_deadline","type":"uint256","internalType":"uint256"}],"outputs":[],"stateMutability":"nonpayable"},{"type":"function","name":"createPlayer","inputs":[{"name":"_username","type":"string","internalType":"string"}],"outputs":[],"stateMutability":"nonpayable"},{"type":"function","name":"distributeRewards","inputs":[{"name":"_poolId","type":"uint256","internalType":"uint256"}],"outputs":[],"stateMutability":"nonpayable"},{"type":"function","name":"getPlayerDetails","inputs":[{"name":"_playerAddress","type":"address","internalType":"address"}],"outputs":[{"name":"","type":"tuple","internalType":"struct Game.Player","components":[{"name":"playerAddress","type":"address","internalType":"address"},{"name":"username","type":"string","internalType":"string"},{"name":"totalPoints","type":"uint256","internalType":"uint256"},{"name":"correctPredictions","type":"uint256","internalType":"uint256"},{"name":"totalPredictions","type":"uint256","internalType":"uint256"}]}],"stateMutability":"view"},{"type":"function","name":"getPoolDetails","inputs":[{"name":"_poolId","type":"uint256","internalType":"uint256"}],"outputs":[{"name":"totalAmount","type":"uint256","internalType":"uint256"},{"name":"deadline","type":"uint256","internalType":"uint256"},{"name":"correctAnswer","type":"uint8","internalType":"enum Game.Answer"}],"stateMutability":"view"},{"type":"function","name":"matchPools","inputs":[{"name":"","type":"uint256","internalType":"uint256"}],"outputs":[{"name":"totalAmount","type":"uint256","internalType":"uint256"},{"name":"deadline","type":"uint256","internalType":"uint256"},{"name":"correctAnswer","type":"uint8","internalType":"enum Game.Answer"}],"stateMutability":"view"},{"type":"function","name":"owner","inputs":[],"outputs":[{"name":"","type":"address","internalType":"address"}],"stateMutability":"view"},{"type":"function","name":"players","inputs":[{"name":"","type":"address","internalType":"address"}],"outputs":[{"name":"playerAddress","type":"address","internalType":"address"},{"name":"username","type":"string","internalType":"string"},{"name":"totalPoints","type":"uint256","internalType":"uint256"},{"name":"correctPredictions","type":"uint256","internalType":"uint256"},{"name":"totalPredictions","type":"uint256","internalType":"uint256"}],"stateMutability":"view"},{"type":"function","name":"predict","inputs":[{"name":"_poolId","type":"uint256","internalType":"uint256"},{"name":"_answer","type":"uint8","internalType":"enum Game.Answer"}],"outputs":[],"stateMutability":"payable"},{"type":"function","name":"totalPools","inputs":[],"outputs":[{"name":"","type":"uint256","internalType":"uint256"}],"stateMutability":"view"},{"type":"function","name":"updateCorrectAnswer","inputs":[{"name":"_poolId","type":"uint256","internalType":"uint256"},{"name":"_answer","type":"uint8","internalType":"enum Game.Answer"}],"outputs":[],"stateMutability":"nonpayable"},{"type":"event","name":"AnswerSet","inputs":[{"name":"poolId","type":"uint256","indexed":true,"internalType":"uint256"},{"name":"answer","type":"uint256","indexed":false,"internalType":"uint256"}],"anonymous":false},{"type":"event","name":"MatchCreated","inputs":[{"name":"poolId","type":"uint256","indexed":true,"internalType":"uint256"},{"name":"deadline","type":"uint256","indexed":false,"internalType":"uint256"}],"anonymous":false},{"type":"event","name":"PlayerRegistered","inputs":[{"name":"player","type":"address","indexed":true,"internalType":"address"},{"name":"username","type":"string","indexed":false,"internalType":"string"}],"anonymous":false},{"type":"error","name":"AlreadyPredicted","inputs":[]},{"type":"error","name":"AnswerNotSet","inputs":[]},{"type":"error","name":"InvalidAnswer","inputs":[]},{"type":"error","name":"InvalidDeadline","inputs":[]},{"type":"error","name":"InvalidPoolId","inputs":[]},{"type":"error","name":"InvalidStake","inputs":[]},{"type":"error","name":"NoFundsInPool","inputs":[]},{"type":"error","name":"UsernameCannotBeEmpty","inputs":[]}],"bytecode":{"object":"0x6080604052348015600e575f5ffd5b503360015f6101000a81548173ffffffffffffffffffffffffffffffffffffffff021916908373ffffffffffffffffffffffffffffffffffffffff160217905550611f078061005c5f395ff3fe60806040526004361061009b575f3560e01c8063b8764c3911610063578063b8764c391461015f578063bb38940e1461019d578063c20fa69a146101db578063c8dd6ce714610203578063e2eb41ff1461023f578063e79b044f1461027f5761009b565b806359974e381461009f57806384ec1ed2146100c75780638da5cb5b146100e3578063ab3c7e521461010d578063b586a74014610137575b5f5ffd5b3480156100aa575f5ffd5b506100c560048036038101906100c09190611371565b6102a7565b005b6100e160048036038101906100dc91906113bf565b6106f1565b005b3480156100ee575f5ffd5b506100f7610b10565b604051610104919061143c565b60405180910390f35b348015610118575f5ffd5b50610121610b35565b60405161012e9190611464565b60405180910390f35b348015610142575f5ffd5b5061015d600480360381019061015891906115b9565b610b3b565b005b34801561016a575f5ffd5b5061018560048036038101906101809190611371565b610cba565b60405161019493929190611673565b60405180910390f35b3480156101a8575f5ffd5b506101c360048036038101906101be9190611371565b610d3f565b6040516101d293929190611673565b60405180910390f35b3480156101e6575f5ffd5b5061020160048036038101906101fc9190611371565b610d71565b005b34801561020e575f5ffd5b50610229600480360381019061022491906116d2565b610efe565b60405161023691906117ee565b60405180910390f35b34801561024a575f5ffd5b50610265600480360381019061026091906116d2565b611056565b604051610276959493929190611856565b60405180910390f35b34801561028a575f5ffd5b506102a560048036038101906102a091906113bf565b61112c565b005b60015f9054906101000a900473ffffffffffffffffffffffffffffffffffffffff1673ffffffffffffffffffffffffffffffffffffffff163373ffffffffffffffffffffffffffffffffffffffff1614610336576040517f08c379a000000000000000000000000000000000000000000000000000000000815260040161032d9061191e565b60405180910390fd5b5f811480610345575060025481115b1561037c576040517f0afa7ee800000000000000000000000000000000000000000000000000000000815260040160405180910390fd5b5f60035f8381526020019081526020015f2090505f60028111156103a3576103a2611600565b5b816002015f9054906101000a900460ff1660028111156103c6576103c5611600565b5b036103fd576040517f1ada35ee00000000000000000000000000000000000000000000000000000000815260040160405180910390fd5b5f815f015403610439576040517f3758365a00000000000000000000000000000000000000000000000000000000815260040160405180910390fd5b5f6101f4825f015461044b9190611969565b90505f5f90505b82600501805490508110156106eb575f836005018281548110610478576104776119aa565b5b905f5260205f20015f9054906101000a900473ffffffffffffffffffffffffffffffffffffffff1690505f846003015f8373ffffffffffffffffffffffffffffffffffffffff1673ffffffffffffffffffffffffffffffffffffffff1681526020019081526020015f205490505f8273ffffffffffffffffffffffffffffffffffffffff168260405161050a90611a04565b5f6040518083038185875af1925050503d805f8114610544576040519150601f19603f3d011682016040523d82523d5f602084013e610549565b606091505b505090508061058d576040517f08c379a000000000000000000000000000000000000000000000000000000000815260040161058490611a62565b60405180910390fd5b856002015f9054906101000a900460ff1660028111156105b0576105af611600565b5b866004015f8573ffffffffffffffffffffffffffffffffffffffff1673ffffffffffffffffffffffffffffffffffffffff1681526020019081526020015f205f9054906101000a900460ff16600281111561060e5761060d611600565b5b036106db575f865f015486846106249190611969565b61062e9190611aad565b9050805f5f8673ffffffffffffffffffffffffffffffffffffffff1673ffffffffffffffffffffffffffffffffffffffff1681526020019081526020015f206002015f82825461067e9190611add565b925050819055505f5f8573ffffffffffffffffffffffffffffffffffffffff1673ffffffffffffffffffffffffffffffffffffffff1681526020019081526020015f206003015f8154809291906106d490611b10565b9190505550505b5050508080600101915050610452565b50505050565b3373ffffffffffffffffffffffffffffffffffffffff165f5f3373ffffffffffffffffffffffffffffffffffffffff1673ffffffffffffffffffffffffffffffffffffffff1681526020019081526020015f205f015f9054906101000a900473ffffffffffffffffffffffffffffffffffffffff1673ffffffffffffffffffffffffffffffffffffffff16146107bc576040517f08c379a00000000000000000000000000000000000000000000000000000000081526004016107b390611bc7565b60405180910390fd5b5f8214806107cb575060025482115b15610802576040517f0afa7ee800000000000000000000000000000000000000000000000000000000815260040160405180910390fd5b5f60035f8481526020019081526020015f2090508060010154421115610854576040517f769d11e400000000000000000000000000000000000000000000000000000000815260040160405180910390fd5b5f600281111561086757610866611600565b5b82600281111561087a57610879611600565b5b036108b1576040517fb5f71a2e00000000000000000000000000000000000000000000000000000000815260040160405180910390fd5b5f34036108ea576040517f9d749a9200000000000000000000000000000000000000000000000000000000815260040160405180910390fd5b5f60028111156108fd576108fc611600565b5b816004015f3373ffffffffffffffffffffffffffffffffffffffff1673ffffffffffffffffffffffffffffffffffffffff1681526020019081526020015f205f9054906101000a900460ff16600281111561095b5761095a611600565b5b14610992576040517f3b9e91cf00000000000000000000000000000000000000000000000000000000815260040160405180910390fd5b34816003015f3373ffffffffffffffffffffffffffffffffffffffff1673ffffffffffffffffffffffffffffffffffffffff1681526020019081526020015f208190555081816004015f3373ffffffffffffffffffffffffffffffffffffffff1673ffffffffffffffffffffffffffffffffffffffff1681526020019081526020015f205f6101000a81548160ff02191690836002811115610a3757610a36611600565b5b021790555034815f015f828254610a4e9190611add565b925050819055508060050133908060018154018082558091505060019003905f5260205f20015f9091909190916101000a81548173ffffffffffffffffffffffffffffffffffffffff021916908373ffffffffffffffffffffffffffffffffffffffff1602179055505f5f3373ffffffffffffffffffffffffffffffffffffffff1673ffffffffffffffffffffffffffffffffffffffff1681526020019081526020015f206004015f815480929190610b0690611b10565b9190505550505050565b60015f9054906101000a900473ffffffffffffffffffffffffffffffffffffffff1681565b60025481565b5f815103610b75576040517fbae519da00000000000000000000000000000000000000000000000000000000815260040160405180910390fd5b6040518060a001604052803373ffffffffffffffffffffffffffffffffffffffff1681526020018281526020015f81526020015f81526020015f8152505f5f3373ffffffffffffffffffffffffffffffffffffffff1673ffffffffffffffffffffffffffffffffffffffff1681526020019081526020015f205f820151815f015f6101000a81548173ffffffffffffffffffffffffffffffffffffffff021916908373ffffffffffffffffffffffffffffffffffffffff1602179055506020820151816001019081610c479190611de2565b506040820151816002015560608201518160030155608082015181600401559050503373ffffffffffffffffffffffffffffffffffffffff167fe04d23b73ae3d3b27074da9719b5a4cd521395aaf86bfe7e374933ecb567731a82604051610caf9190611eb1565b60405180910390a250565b5f5f5f5f841480610ccc575060025484115b15610d03576040517f0afa7ee800000000000000000000000000000000000000000000000000000000815260040160405180910390fd5b5f60035f8681526020019081526020015f209050805f01548160010154826002015f9054906101000a900460ff16935093509350509193909250565b6003602052805f5260405f205f91509050805f015490806001015490806002015f9054906101000a900460ff16905083565b60015f9054906101000a900473ffffffffffffffffffffffffffffffffffffffff1673ffffffffffffffffffffffffffffffffffffffff163373ffffffffffffffffffffffffffffffffffffffff1614610e00576040517f08c379a0000000000000000000000000000000000000000000000000000000008152600401610df79061191e565b60405180910390fd5b5f8111610e39576040517f769d11e400000000000000000000000000000000000000000000000000000000815260040160405180910390fd5b5f6201518082610e499190611969565b42610e549190611add565b905060025f815480929190610e6890611b10565b91905055505f60035f60025481526020019081526020015f2090508181600101819055505f816002015f6101000a81548160ff02191690836002811115610eb257610eb1611600565b5b02179055505f815f01819055506002547fd56886a1746d522b2004f5a22791ef766ad000208d143745de239399516bb5ab83604051610ef19190611464565b60405180910390a2505050565b610f066112ec565b5f5f8373ffffffffffffffffffffffffffffffffffffffff1673ffffffffffffffffffffffffffffffffffffffff1681526020019081526020015f206040518060a00160405290815f82015f9054906101000a900473ffffffffffffffffffffffffffffffffffffffff1673ffffffffffffffffffffffffffffffffffffffff1673ffffffffffffffffffffffffffffffffffffffff168152602001600182018054610fb190611c12565b80601f0160208091040260200160405190810160405280929190818152602001828054610fdd90611c12565b80156110285780601f10610fff57610100808354040283529160200191611028565b820191905f5260205f20905b81548152906001019060200180831161100b57829003601f168201915b5050505050815260200160028201548152602001600382015481526020016004820154815250509050919050565b5f602052805f5260405f205f91509050805f015f9054906101000a900473ffffffffffffffffffffffffffffffffffffffff169080600101805461109990611c12565b80601f01602080910402602001604051908101604052809291908181526020018280546110c590611c12565b80156111105780601f106110e757610100808354040283529160200191611110565b820191905f5260205f20905b8154815290600101906020018083116110f357829003601f168201915b5050505050908060020154908060030154908060040154905085565b60015f9054906101000a900473ffffffffffffffffffffffffffffffffffffffff1673ffffffffffffffffffffffffffffffffffffffff163373ffffffffffffffffffffffffffffffffffffffff16146111bb576040517f08c379a00000000000000000000000000000000000000000000000000000000081526004016111b29061191e565b60405180910390fd5b5f8214806111ca575060025482115b15611201576040517f0afa7ee800000000000000000000000000000000000000000000000000000000815260040160405180910390fd5b5f60035f8481526020019081526020015f2090505f600281111561122857611227611600565b5b82600281111561123b5761123a611600565b5b03611272576040517fb5f71a2e00000000000000000000000000000000000000000000000000000000815260040160405180910390fd5b81816002015f6101000a81548160ff0219169083600281111561129857611297611600565b5b0217905550827f4772d83d7289b527150ec81022e02e39b5b278f66492d7f0702903636f33396d8360028111156112d2576112d1611600565b5b6040516112df9190611464565b60405180910390a2505050565b6040518060a001604052805f73ffffffffffffffffffffffffffffffffffffffff168152602001606081526020015f81526020015f81526020015f81525090565b5f604051905090565b5f5ffd5b5f5ffd5b5f819050919050565b6113508161133e565b811461135a575f5ffd5b50565b5f8135905061136b81611347565b92915050565b5f6020828403121561138657611385611336565b5b5f6113938482850161135d565b91505092915050565b600381106113a8575f5ffd5b50565b5f813590506113b98161139c565b92915050565b5f5f604083850312156113d5576113d4611336565b5b5f6113e28582860161135d565b92505060206113f3858286016113ab565b9150509250929050565b5f73ffffffffffffffffffffffffffffffffffffffff82169050919050565b5f611426826113fd565b9050919050565b6114368161141c565b82525050565b5f60208201905061144f5f83018461142d565b92915050565b61145e8161133e565b82525050565b5f6020820190506114775f830184611455565b92915050565b5f5ffd5b5f5ffd5b5f601f19601f8301169050919050565b7f4e487b71000000000000000000000000000000000000000000000000000000005f52604160045260245ffd5b6114cb82611485565b810181811067ffffffffffffffff821117156114ea576114e9611495565b5b80604052505050565b5f6114fc61132d565b905061150882826114c2565b919050565b5f67ffffffffffffffff82111561152757611526611495565b5b61153082611485565b9050602081019050919050565b828183375f83830152505050565b5f61155d6115588461150d565b6114f3565b90508281526020810184848401111561157957611578611481565b5b61158484828561153d565b509392505050565b5f82601f8301126115a05761159f61147d565b5b81356115b084826020860161154b565b91505092915050565b5f602082840312156115ce576115cd611336565b5b5f82013567ffffffffffffffff8111156115eb576115ea61133a565b5b6115f78482850161158c565b91505092915050565b7f4e487b71000000000000000000000000000000000000000000000000000000005f52602160045260245ffd5b6003811061163e5761163d611600565b5b50565b5f81905061164e8261162d565b919050565b5f61165d82611641565b9050919050565b61166d81611653565b82525050565b5f6060820190506116865f830186611455565b6116936020830185611455565b6116a06040830184611664565b949350505050565b6116b18161141c565b81146116bb575f5ffd5b50565b5f813590506116cc816116a8565b92915050565b5f602082840312156116e7576116e6611336565b5b5f6116f4848285016116be565b91505092915050565b6117068161141c565b82525050565b5f81519050919050565b5f82825260208201905092915050565b8281835e5f83830152505050565b5f61173e8261170c565b6117488185611716565b9350611758818560208601611726565b61176181611485565b840191505092915050565b6117758161133e565b82525050565b5f60a083015f8301516117905f8601826116fd565b50602083015184820360208601526117a88282611734565b91505060408301516117bd604086018261176c565b5060608301516117d0606086018261176c565b5060808301516117e3608086018261176c565b508091505092915050565b5f6020820190508181035f830152611806818461177b565b905092915050565b5f82825260208201905092915050565b5f6118288261170c565b611832818561180e565b9350611842818560208601611726565b61184b81611485565b840191505092915050565b5f60a0820190506118695f83018861142d565b818103602083015261187b818761181e565b905061188a6040830186611455565b6118976060830185611455565b6118a46080830184611455565b9695505050505050565b7f47616d653a206f6e6c79206f776e65722063616e2063616c6c207468697320665f8201527f756e6374696f6e00000000000000000000000000000000000000000000000000602082015250565b5f61190860278361180e565b9150611913826118ae565b604082019050919050565b5f6020820190508181035f830152611935816118fc565b9050919050565b7f4e487b71000000000000000000000000000000000000000000000000000000005f52601160045260245ffd5b5f6119738261133e565b915061197e8361133e565b925082820261198c8161133e565b915082820484148315176119a3576119a261193c565b5b5092915050565b7f4e487b71000000000000000000000000000000000000000000000000000000005f52603260045260245ffd5b5f81905092915050565b50565b5f6119ef5f836119d7565b91506119fa826119e1565b5f82019050919050565b5f611a0e826119e4565b9150819050919050565b7f5472616e73666572206661696c656400000000000000000000000000000000005f82015250565b5f611a4c600f8361180e565b9150611a5782611a18565b602082019050919050565b5f6020820190508181035f830152611a7981611a40565b9050919050565b7f4e487b71000000000000000000000000000000000000000000000000000000005f52601260045260245ffd5b5f611ab78261133e565b9150611ac28361133e565b925082611ad257611ad1611a80565b5b828204905092915050565b5f611ae78261133e565b9150611af28361133e565b9250828201905080821115611b0a57611b0961193c565b5b92915050565b5f611b1a8261133e565b91507fffffffffffffffffffffffffffffffffffffffffffffffffffffffffffffffff8203611b4c57611b4b61193c565b5b600182019050919050565b7f47616d653a206f6e6c7920706c617965722063616e2063616c6c2074686973205f8201527f66756e6374696f6e000000000000000000000000000000000000000000000000602082015250565b5f611bb160288361180e565b9150611bbc82611b57565b604082019050919050565b5f6020820190508181035f830152611bde81611ba5565b9050919050565b7f4e487b71000000000000000000000000000000000000000000000000000000005f52602260045260245ffd5b5f6002820490506001821680611c2957607f821691505b602082108103611c3c57611c3b611be5565b5b50919050565b5f819050815f5260205f209050919050565b5f6020601f8301049050919050565b5f82821b905092915050565b5f60088302611c9e7fffffffffffffffffffffffffffffffffffffffffffffffffffffffffffffffff82611c63565b611ca88683611c63565b95508019841693508086168417925050509392505050565b5f819050919050565b5f611ce3611cde611cd98461133e565b611cc0565b61133e565b9050919050565b5f819050919050565b611cfc83611cc9565b611d10611d0882611cea565b848454611c6f565b825550505050565b5f5f905090565b611d27611d18565b611d32818484611cf3565b505050565b5b81811015611d5557611d4a5f82611d1f565b600181019050611d38565b5050565b601f821115611d9a57611d6b81611c42565b611d7484611c54565b81016020851015611d83578190505b611d97611d8f85611c54565b830182611d37565b50505b505050565b5f82821c905092915050565b5f611dba5f1984600802611d9f565b1980831691505092915050565b5f611dd28383611dab565b9150826002028217905092915050565b611deb8261170c565b67ffffffffffffffff811115611e0457611e03611495565b5b611e0e8254611c12565b611e19828285611d59565b5f60209050601f831160018114611e4a575f8415611e38578287015190505b611e428582611dc7565b865550611ea9565b601f198416611e5886611c42565b5f5b82811015611e7f57848901518255600182019150602085019450602081019050611e5a565b86831015611e9c5784890151611e98601f891682611dab565b8355505b6001600288020188555050505b505050505050565b5f6020820190508181035f830152611ec9818461181e565b90509291505056fea264697066735822122011257faae45f16e0a4d52123a48109215d35af39da77746206cca82031c5696b64736f6c634300081c0033","linkReferences":{}},"methodIdentifiers":{"createMatchPool(uint256)":"c20fa69a","createPlayer(string)":"b586a740","distributeRewards(uint256)":"59974e38","getPlayerDetails(address)":"c8dd6ce7","getPoolDetails(uint256)":"b8764c39","matchPools(uint256)":"bb38940e","owner()":"8da5cb5b","players(address)":"e2eb41ff","predict(uint256,uint8)":"84ec1ed2","totalPools()":"ab3c7e52","updateCorrectAnswer(uint256,uint8)":"e79b044f"},"id":27}